:020000041000EA
:1000000000B5324B212058609868022188439860DF
:10001000D860186158612E4B002199600221596106
:100020000121F02299502B49196001219960352056
:1000300000F044F80222904214D00621196600F024
:1000400034F8196E01211966002018661A6600F04E
:100050002CF8196E196E196E052000F02FF8012189
:100060000842F9D1002199601B49196000215960AB
:100070001A491B48016001219960EB211966A021F2
:10008000196600F012F800219960164914480160C1
:100090000121996001BC002800D000471248134993
:1000A000086003C880F30888084703B5996A0420EC
:1000B0000142FBD001200142F8D103BD02B5186610
:1000C0001866FFF7F2FF186E186E02BD00000240BE
:1000D000000000180000070000035F00212200005C
:1000E000F4000018222000A00001001008ED00E03C
:1000F00000000000000000000000000074B24E7A12
:1001000000200420F7010010CB010010CD010010E9
:10011000C9010010C9010010C9010010C901001077
:10012000C9010010C9010010C9010010CF01001061
:10013000C9010010C9010010D1010010D301001045
:10014000C1010010C1010010C1010010C101001067
:10015000C1010010C1010010C1010010C101001057
:10016000C1010010C1010010C1010010C101001047
:10017000C1010010C1010010C1010010C101001037
:10018000C1010010C1010010C1010010C101001027
:10019000C1010010C1010010C1010010C101001017
:1001A000C1010010C1010010C1010010C101001007
:1001B000C1010010C1010010C1010010C1010010F7
:1001C000EFF30580103800BE00BE00BE00BE00BECA
:1001D00000BE00BEF2EB8871E88C0710188D071086
:1001E0003802001090A31AE71E481F49086006C88D
:1001F00081F3088810471D480068002801D019487D
:10020000F3E70DA40ECC002902D000F012F8F9E7B4
:100210001749184A002000E001C19142FCD116495B
:100220008847164988471649884700BEFDE701C937
:1002300001C29A42FBD37047188D0710E0000020DE
:10024000781B0020B0A70710000004200000042045
:10025000B0A70710001004200010042000000000C8
:10026000704700000000000008ED00E0000000D032
:10027000781B00208CF8022059710010D90A001058
:1002800051710010F8B5C04606480749091A8B108D
:10029000C90FC91810B5491003D0044B002B00D06A
:1002A000984710BD781B0020781B0020000000003C
:1002B000054B10B5002B03D00449054800E000BFF2
:1002C000FFF7E2FF10BDC04600000000ECDD00209B
:1002D000C85F031070B50126124C0500217800207C
:1002E0007140C9B2217021F06DF80F4B22781B7854
:1002F0000E49002B0AD10B70002A0FD06421280070
:100300001AF078FE28001AF081FE70BD0B78002AE2
:1003100002D073400B70F1E7002BEFD1FA21890076
:10032000EDE7C046C81300206FF8022075F80220E0
:10033000F8B53F4C10002378062B1BD00DD8042BAA
:1003400021D0052B12D11378A02B46D0A22B10D18F
:100350000821384A0EF05EFE0BE0072B06D111781B
:10036000A7291AD0344807F00BF902E0334807F008
:1003700083F8F8BD1378A02BFBD1137A002BF8D1AA
:1003800007332370F5E71378A02B1BD0A12BF0D1F6
:1003900008212B4A0EF01EFEEBE79D391AF080FE75
:1003A000284904000B880A2201330B80264B186869
:1003B000002301F05BFB022CDBD02100234807F077
:1003C000DFF8D6E7117A002927D0214807F0D8F8BE
:1003D000204B18881FF05CFBCBE7117A002907D06F
:1003E0001D4807F0CDF81B4B18881FF051FBC0E7E4
:1003F0000122104E174F194D194B29001A70194838
:1004000033003A880EF06AFC06233200237028007D
:100410003988053B0EF04EFDABE7052323700D4BED
:10042000074A19880D48104B0EF0D8FCA1E7C046CA
:1004300086F802209CF000203C60031058600310F6
:10044000B8F0002050F80220101F00202460031094
:10045000C85F03103CF80220F45F03103103001062
:100460006FF80220D8DD00206E2A0000F0B583B0BE
:100470006B469C1D002323808D33FF33C35C002B10
:1004800014D1184D184E05E020F0ACFFFA20800082
:1004900002F0F8F814222100286801F079FC012804
:1004A000F2D13000218807F06BF8EDE707680D4DB9
:1004B0000D4E0AE0380034F077FD002801D020F01E
:1004C00091FFFA20800002F0DDF814222100286854
:1004D00001F05EFC0128EDD13000218807F050F8D2
:1004E000E8E7C046F838002060600310F0B5CE465B
:1004F000474680B50400150083B004280BD113785B
:10050000602B0DD032D8052B12D03E2B03D193781F
:10051000012B00D178E003B0C0BCB946B046F0BDB5
:100520009478022C00D187E000224E4B1A70F2E73B
:1005300001224D4B52421A804C4B1A78002A75D139
:100540004B481AF0EDFF4B4B0100180007F018F86C
:10055000444B1A78002ADED0022230211A70002083
:100560002E321FF085F91FF06BF9D4E7DA2BD2D1C8
:100570003C4B99461B78022BCDD1D17A68460C3280
:1005800019F020F83C4B984602E0684619F032F822
:10059000684619F01DF80028BDD0684619F038F8F3
:1005A0000400684619F02EF80600684619F036F87F
:1005B0000700032CE9D1002EE7D0002402E002342A
:1005C000A642E2DD210038001AF06AFD4045F6D16E
:1005D000274C281D210006221AF0B8FD274AEB7887
:1005E000150013704A46032313701FF035F92000DD
:1005F0001AF096FF224B0100180006F0C1FF200000
:1006000029781FF04FF986E7164E3378032B00D078
:1006100081E7042110001AF043FD134B01001880FC
:10062000154A184834700EF075FB74E7002216481E
:100630001A700EF065FB83E768461BF0C5FF68463D
:100640001AF06EFF114B0100180006F099FF054BE0
:100650003022302100201C701FF00AF91FF0F0F842
:1006600059E7C04686F802203CF802206FF80220C5
:1006700094F000208C6003101A1800007AF8022011
:10068000A060031031030010D8DD00206C6003105F
:1006900070B53821012005F067F8041E3CD02E20EB
:1006A0002EF052FE606000282FD022001C492EF050
:1006B00019FE1C4BA461E3601B4B2463636220F0B2
:1006C0008BFE050003F0A8FF002917DB6161210004
:1006D0002B6820615B69280008319847002811D0F9
:1006E000124B1C685D6820F07DFE2000290020F080
:1006F00085FEFA20C00001F0C5FFF4E701200C4997
:100700004042E3E704F0ECFAEAE70A4806F0B4FEF8
:10071000200005F04BF870BD074806F0ADFEFAE783
:10072000A9070010790900103D07001018B6031042
:10073000FFFFFF7FE0600310C460031070B5164830
:100740000C6906F099FE20F047FE21000368203175
:100750009B69984720F040FE050003F05DFF0023F1
:100760000E4A8018594102000B1E02DA01220C4B7E
:100770005242210063612B6828005B6922610831C5
:100780009847002804D00521064806F0F9FE70BD00
:1007900004F0A6FAF7E7C046F8600310404B4C009F
:1007A000FFFFFF7F0C610310F0B5C64600B588B0AF
:1007B0001E006B461B8F0400002110001500984698
:1007C00029F0ACFB01210700280029F0A7FB3268C3
:1007D00023689A4202D143467B2B30D02E4806F044
:1007E0004BFE20F0F9FD2100036820319B699847FA
:1007F00020F0F2FD060003F00FFF0023274A8018C7
:10080000594102000B1E02DA0122254B52422100FF
:100810006361336830005B692261083198470028C2
:100820000AD005211F4806F0ABFE280029F0F2F897
:1008300008B080BCB846F0BD04F052FAF1E72B894D
:10084000302BCBD1293B3B40042BC7D10028C5D04E
:10085000002605A9042228002433059629F01EFA53
:10086000114A059B94461BBA634406A80693079653
:1008700034F0FAFF0D4A0768944643690269C1687B
:10088000029747680A4E01978068634400900132DE
:10089000300006F075FEA4E758610310404B4C0091
:1008A000FFFFFF7F0C6103108081557C6C07000007
:1008B0002461031070B508001400002925D00B68CE
:1008C000136032F099F9274B0100180006F058FE2A
:1008D00026F01CFDA02230219200362028F042FF95
:1008E000466805002F220021701C04F077FF1B23AF
:1008F000337022002900603360682EF089FC2800E4
:1009000029F088F826F00CFD70BD174806F0B4FDFC
:1009100020F062FD2100036820319B69984720F098
:100920005BFD050003F078FE0023104A8018594152
:1009300002000B1E0EDB210063612B6828005B693F
:10094000226108319847002808D00521084806F0A0
:1009500017FED9E70122074B5242ECE704F0C0F939
:10096000F3E7C0467061031080610310404B4C00F8
:100970000C610310FFFFFF7F70B50C6920F02CFDA8
:10098000060003F049FE0023344A2500801859412F
:10099000203502000B1E02DA0122314B5242E36283
:1009A0003368290030005B69A262984700284BD069
:1009B000230021002B4A2C4828F0EAF8002826D0F2
:1009C000053000D170BD294806F056FD20F004FD29
:1009D000036829009B69984720F0FEFC050003F09E
:1009E0001BFE0023224A8018594102000B1E2EDBF9
:1009F000210063612B6828005B69226108319847F8
:100A0000002828D005211B4806F0BAFDDAE726F0B9
:100A10007DFCA02230219200362028F0A3FE4668FB
:100A200005002F220021701C04F0D8FE1B23337018
:100A300022002900603360682EF0EAFB280028F0CD
:100A4000E9FF26F06DFCBDE704F04AF9B0E70122AA
:100A5000034B5242CCE704F043F9D3E78096980069
:100A6000FFFFFF7FB5080010986103108461031039
:100A7000404B4C000C610310124B026810B51A6019
:100A80001FF08CFB12F068F8032012F05FF80022D0
:100A9000002100200CF012FA0EF0F4F80A480B4B7B
:100AA00043601BF0B1FCFA21094C0A4B890020007D
:100AB000A3601AF09FFA20001AF0A8FA01201EF095
:100AC00053FD10BD101F0020FC3B0020ED04001062
:100AD000803F0020D5020010F0B50022022189B02D
:100AE000022000F071FF514C206006F073FC20F0F2
:100AF00091FC061E00D090E0200002ACFFF7BCFF86
:100B00000521200007F01CF903212278484B985C4E
:100B10000140012901D12032D2B203212270627832
:100B2000985C0140012901D12032D2B203216270C8
:100B3000A278985C0140012901D12032D2B2A27082
:100B4000E278995C03230B40012B01D12032D2B211
:100B500004ADE2702A00374B002703CB03C21920F3
:100B60001B78210013706844042204F03DFE290024
:100B700031486F7306F004FD3C23304C64226560FD
:100B80002F4D304928002382A760E76034F03EFEF5
:100B90002D4B6561A36101236377A37720F0B8FB38
:100BA0002A492B482B4B2C4A20F0C0FB00282CD183
:100BB0002A4806F061FC26F0A9FB210089312300B8
:100BC000274A2848FF3127F0E3FF050026F0A8FB5D
:100BD000002D1ED0053526D10027012580222300B7
:100BE0002149120121480197009501F033FC802230
:100BF00000231F4912011F480197009501F02AFCAC
:100C000001F03AFC300009B0F0BD1B4806F0B8FC1A
:100C1000D1E7200000F09CF9DEE70126174806F036
:100C20002BFC7642EEE7164802F05AFBF83800201B
:100C3000E58B0710C8610310D4610310D4F20020C3
:100C4000F8F60220E4610310A09E0310F061031087
:100C5000FC610310307500000400400018620310AE
:100C6000011000102C620310406203106D0400108C
:100C70004C6203109106001004620310A861031077
:100C80008461031010B50400002905D1C822520068
:100C9000A3580133A35010BD014806F071FCF5E7DD
:100CA0005862031010B521306422FF3034F0AEFDDD
:100CB00010BDC0462023F0B5C646984600B5804416
:100CC000040088B00700404615000E0034F09EFD79
:100CD000C22300225B00E55021376319FF37203320
:100CE00039001A702A48424606F04AFC3800294961
:100CF00034F0CEFE002833D03800274934F0C8FE47
:100D0000002809D03800254934F0C2FE021E32D036
:100D100008B080BCB846F0BD03F07EFC002925D0A9
:100D2000FA220023920004F071F9FA21890004F0FC
:100D30002FF90B2103001A4A05A806F0AFF905A800
:100D400034F0EAFE174A83B2206802920022019230
:100D5000013200921449039405AA33F023F9D7E72E
:100D600032002900114806F00BFCD1E7FA21890076
:100D700004F00EF9D9E7CA2301215B00E154206891
:100D80000B4B01920B490094013233F0BFFABFE7DD
:100D9000746203108C6203109C620310AC62031037
:100DA00034830310B90D0010A46203109462031081
:100DB000CD0D0010B462031010B5002900D110BD94
:100DC000014806F0DDFBFAE7C062031010B504002D
:100DD000002910D1C8225200A358013BA350002B78
:100DE00000DD10BDCA235B00E35C002BF9D0206856
:100DF00034F0C8F8F5E7024806F0C2FBEAE7C0465F
:100E0000DC62031030B50C0085B0002A0DD08023C1
:100E10005B009A4205D18C33CB5C002B33D005B0FC
:100E200030BD1B4806F0ACFBF9E7C62301255B008B
:100E3000CD5420681749184B01950094013233F0C6
:100E400065FA6169002909D0144B2068144A02939D
:100E5000039401230195009533F0A4F8114D2C6102
:100E600020F0BAFA040003F0D7FB0300002902DAED
:100E700001230D495B42AB602368E9602000290033
:100E80005B699847CBE7094806F07AFBC7E7C0469D
:100E900020630310B4620310850C0010B90D00101C
:100EA0005092031098140020FFFFFF7FFC62031094
:100EB000F0B51F4B1F4A1B7889B0013B9B00050012
:100EC00098580F690C0004F0F7FB1B4E009001913D
:100ED0003200102104A806F0E1F8184E04A93200EF
:100EE000174806F04DFB04A834F016FE154A83B2ED
:100EF0003868029200220192013231000092039779
:100F000004AA33F04FF803F087FB00230E4A801841
:100F1000594102000B1E02DA01220C4B5242E360DF
:100F20002B68210028005B69A260984709B0F0BDDA
:100F30006AF80220CC1300203463031038630310D6
:100F40004C630310B90D001080969800FFFFFF7FDF
:100F500030B5040083B01F4806F08EFA33F09EFBD4
:100F60002060002832D01C4B2500186889350430D9
:100F700031F042FE194B0100FF35180006F000FB6E
:100F8000280031F039FE164B0100180006F0F8FA7F
:100F900026F0BCF9220001CA29000192114B124A25
:100FA000009433F083FB00280CD1104806F064FA5B
:100FB00023000F4A0F49206833F064FB26F0B0F994
:100FC00003B030BD0C4806F0DBFAEEE70B4802F048
:100FD00087F9C04664630310CCDD0020A0630310D2
:100FE000C0630310050E00105B07000004640310CB
:100FF000B50C0010A50C0010E46303107C63031013
:10100000100010B5002906D0C4230A685B00C25046
:10101000FFF79EFF10BD024806F0B2FAFAE7C0469D
:1010200084610310000000000000000000000000C8
:101030000B4A13681868203080F30988022080F377
:101040001488BFF36F8F3FBCAE4608BC04BC62B6C9
:101050001847C046C046C046C046C046C046C04607
:1010600020DE002000000000000000000000000062
:10107000EFF30980164B1A6820381060F0C0444620
:101080004D4656465F46F0C00D221207146E556E4F
:10109000566F176F3038F0C008B572B601F052FBCA
:1010A00062B60CBC116808681030F0C8A046A946AA
:1010B000B246BB4680F309880D2212073038F0C8CB
:1010C0001466556656671767F0C81847C046C0468D
:1010D00020DE002010B502F01BF9C046D02300B579
:1010E0001B061A6D83B0D20704D501219A6D1A6DC3
:1010F0001142FBD1D023FF221B061A650023114A9F
:1011000001931168EFF3108C72B60B68002BFCD0C2
:10111000BFF35F8F00230C48126801680360BFF3C0
:101120005F8F13608CF31088084B01AA186800F0D9
:1011300001FB019B002B03D08022054B52051A6056
:1011400003B000BD1CDE00201CF60220B0F7022018
:1011500004ED00E07047C04610B58024031F64040E
:101160001C60043B19600349043B1960143B403880
:101170001A6010BDD51000108022044B52051A6071
:10118000BFF34F8FBFF36F8F7047C04604ED00E091
:1011900072B6044A136801331360BFF34F8FBFF375
:1011A0006F8F704718F60220034A1368013B1360E3
:1011B000002B00D162B6704718F60220EFF31080C2
:1011C00072B6704780F310887047C04610B5FFF7BD
:1011D000F5FF040001F0A4FA002803D08022034B9D
:1011E00052051A602000FFF7EDFF10BD04ED00E08E
:1011F000002310B5084A094C05202360136002F053
:1012000063F8FA21890003F0C3FE054B013818602A
:101210000723236010BDC04618E000E010E000E0A6
:1012200014E000E0FF221F4B1204196810B50A43B6
:101230001A60FF22196812060A431A601A490E2022
:1012400003F070FB19490F2003F06CFB18490B20C9
:1012500003F068FBFFF7CCFF0022164B1A60D02387
:101260001B06154A1C681470FF221A651A6DD207F6
:1012700004D501219A6D1A6D1142FBD10F34FF2163
:10128000200002F027FC20000C4902F015FA012191
:10129000200002F0D9F9FFF7CBFE01F053FA02F07B
:1012A00037F8C04620ED00E071100010CD1100109D
:1012B0005511001018F60220B0140020DD100010A7
:1012C000D02310B51B061868074B1B78834200D04B
:1012D00010BDEFF30583002B02D05B00C018F7E7C9
:1012E00001F096FCF4E7C046B014002010B50300EE
:1012F0000268154882B00478D02000060068844255
:1013000008D0BFF35F8F0023136081F3108820BFE4
:1013100002B010BDBFF35F8F0020106081F3108812
:101320000A4A1B6810680A4A944663449A105C2B68
:1013300000D9183A012301215B4291400093012218
:10134000002300F04DF9E3E7B0140020B0F70220CD
:1013500000FFFF2F0A002B4930B58C46036883B08D
:1013600063449C105C2B00D9183C0121264BA14002
:101370001C78D0231B061B689C421FD040BF234D06
:1013800003682C68A34234D02368002BFCD0BFF341
:101390005F8F1F4C23680B4323602B68BFF35F8F65
:1013A000002119600368D020002100064165BFF3C9
:1013B0005F8F196082F3108803B030BD40BF0368AF
:1013C000BFF35F8F00241C6082F31088EFF3058366
:1013D000104ADBB21068002B10D001AA019400F073
:1013E000A9F9019B002BE7D080220B4B52051A6014
:1013F000E2E7074C206808432060D4E700F04CF98E
:10140000DAE7C04600FFFF2FB01400201CDE0020EA
:101410001CF60220B0F7022004ED00E0F0B5CE4645
:10142000474680B51D00344B14001A78D0231B06A4
:101430001B688046894683B09A420FD00368BFF389
:101440005F8F00221A6081F310882000290003F0CA
:101450002FF803B0C0BCB946B046F0BD03F0DCF8CD
:1014600026002F00361A8F41012124484942801955
:10147000794143461E6800291EDC19D0BFF35F8FF7
:101480000023336089F310881D4B5A6A954205D8B2
:101490009B6A0120A342DCD29542DAD18022194B0B
:1014A00052051A60BFF34F8FBFF36F8F0020D0E754
:1014B000FA239B009842E1D3FA220023920003F022
:1014C0008DFD031EDAD0BFF35F8F0022326089F3F7
:1014D00010880D4A0D49106842468C4612686244D5
:1014E00096105C2A00D9183E01210093B1400023D8
:1014F000012200F075F8C7E7B014002018FCFFFFC8
:101500000040054004ED00E0B0F7022000FFFF2F8F
:1015100010B501F09BFF054A054B944660448000DE
:10152000186000F051F8034B186010BD4000003403
:101530001CDE0020B0F70220F8B5DE4657464E46C6
:101540004546E0B505000F00060000F0CFFF296812
:101550002C6939430C362960A6422CD000239846CA
:101560008023DB049B4680235B049A4680239B04F4
:1015700099460FE06746002F0AD057463A4202D0FC
:1015800042461A4390464B46194301F0ABFA29688C
:10159000A6420ED020000F000268646813021B0AE6
:1015A0001F40BC465F463A42E4D06345E5D0A642C0
:1015B000F0D143469943296000F0A0FFF0BCBB4640
:1015C000B246A946A046F8BD10B51C2003F018FA93
:1015D000041E03D0002308C000F0B8F8200010BD9E
:1015E000F0B5C6460D00060000B51F00904600F09D
:1015F0007DFF2B0034682340002F0DD1002B28D015
:101600004346002B28D02300AB43336000F076FF25
:10161000200080BCB846F0BD9D42F1D0069B002B57
:101620001AD0434680215A1E9341C9041B06194310
:10163000069A2943301D01F013F900F05FFF0028DE
:1016400024D001F01DFB040083010DD52402240ADF
:10165000DEE7069B002B02D100F050FFD8E74146A1
:101660004B1E99410906E3E7FFF792FD346823001A
:101670002B40002F0DD1002B05D04346002B02D06C
:101680002300AB433360FFF78FFDDFE7FFF774FD07
:10169000D7E7AB42F7D1F0E7F0B5DE4657464E4606
:1016A00045460400E0B583B00D000600019000F04F
:1016B0001DFF2200136824690C361D433700156096
:1016C000A6422BD0002399468023DB049846802332
:1016D0005B049B4680239B049A460FE000290BD0B5
:1016E00059460A4202D04A461A4391465146294376
:1016F00001F0F8F9019B1D68A7420DD020002900D8
:1017000046460268646813021B0A19403242E5D05B
:101710008B42E5D0A742F1D14B469D43019B1D6012
:1017200000F0ECFE280003B0F0BCBB46B246A94670
:10173000A046F0BD10B5044C13000A0001002000C3
:1017400001F0BEFC10BDC04639150010030008337F
:1017500001224360C3600361002352428260036040
:101760007047C046002303617047C046030030B590
:101770000D6808336A1C0DD01C005B681A68AA4209
:10178000FAD94B60996003688C600133616008612D
:10179000036030BD04696368F3E7C04603694168CC
:1017A00082688A6051605968814205D000220261D6
:1017B00018680138186070475A60F7E7F0B5DE46E0
:1017C0004E4657464546E0B585B00600FFF7E0FCBB
:1017D0004523F45C64B2002C21DD213B9946213382
:1017E0009A46B14409E0AA6BEB6B03969A4245D343
:1017F000013CE3B264B2002B11D0B56C002DF2D1E4
:10180000736A002B0BD0484601F006F90028EFD090
:1018100001F0F8F9013CE3B264B2002BEDD14523AD
:10182000FF22F254FFF7C0FCFFF7B2FC442335005F
:10183000F45C103564B2002C05DC13E0013CE2B22C
:1018400064B2002A0ED03369002B0BD0280001F0BF
:10185000E3F80028F2D0013C01F0D4F9E2B264B21E
:10186000002AF0D14423FF22F254FFF79DFC05B07B
:10187000F0BCBB46B246A946A046F0BD5346EF5C5D
:10188000AB6B2A6C013398467FB2002A13D12B68C8
:101890009B46002B2AD04346AB637B1C1CD16B6A52
:1018A000002BA5D02800243001F0B6F800289FD0E6
:1018B00001F0A8F9AEE7686803A903F095FF6B682B
:1018C0002A6C9B18AA686B609342E4D32B686B6008
:1018D0004346AB637B1CE2D000F01CFFB84200D84B
:1018E00086E7534601377FB2EF5481E7A86801F0DD
:1018F00095F95B46AB6043460190AB637B1C09D115
:101900006B6A002B0FD1019B002B00D170E701F017
:1019100079F97FE700F0FEFEB842F4D9534601376B
:101920007FB2EF54EFE72800243001F075F800286B
:1019300000D06DE7E7E7C046F0B5C64600B5846C59
:1019400082B0A26BE36B002501909A4204D3280079
:1019500002B080BCB846F0BD4523226CE65CA76BA4
:1019600076B2002A1CD0606801A903F03DFF6368CD
:10197000226C9B18A2686360934201D32368636062
:1019800000250137A763731C15D1636A002BDED0D5
:101990002000243001F040F80028D8D00125D6E7F7
:1019A00023689846002BEBD1A06801F037F9434635
:1019B0000500A360E5E700F0ADFE8642C7D24523EF
:1019C000013676B2E654C2E7F8B505000E001700FE
:1019D000002841D0030C0A0C002B42D1002A30D140
:1019E000300068430300553336D8543003F008F80C
:1019F000041E31D00300002E31D12360E56326643C
:101A0000FFF7C6FB216CE36B22684B43D0185B1ACF
:101A10006260D218E260FF2300254422A06020000B
:101A2000A563A3540132A3541030FFF78FFE2000AA
:101A30002430FFF78BFEFFF7B7FB5023E754A56474
:101A40000BE0131CA9B2B2B24A4380B29BB243432B
:101A5000120C9B181B0CC3D000242000F8BD54337B
:101A6000CBE7002AF8D1081CECE7C046F0B5CE461B
:101A7000474680B585B00400884699460192022BFE
:101A800000D19DE0FFF784FBA36BE26B00274425A8
:101A900000269A4232D8019B002B64D0002F5ED0E2
:101AA000FFF782FB00F022FDFFF772FB635D5BB284
:101AB000013300D166554523E25C52B2013200D1B8
:101AC000E654FFF771FB01A902A801F061F80028B4
:101AD00000D06FE0FFF75CFBA26BE36B9A422CD067
:101AE000FFF762FB2000FFF769FE00F007FD01270A
:101AF000FFF74EFBA36BE26B9A42CCD9226CA66B2C
:101B0000A56B002A37D1236800209846002B00D10E
:101B100083E0A36C0135A563002B00D170E04B4638
:101B2000022B01D1002E04D12000FFF705FF002871
:101B30003DD1FFF739FB012018E0FFF735FB20000E
:101B40000199103000F03CFE2000FFF737FE00F056
:101B5000D5FC0028CBD1FFF70FFB0127C8E702A86F
:101B600001F00AF89CE7FFF71FFB002005B0C0BC9E
:101B7000B946B046F0BD4B46002B29D141466068BE
:101B800003F032FE6368226CA16C9B18A26863604C
:101B9000013593423AD2A5630029C5D1636A002B6F
:101BA000C7D02000243000F037FF0028C1D0FFF755
:101BB000E3FABEE72000FFF701FE00F09FFCD4E748
:101BC000FFF7E6FA226CA36BA66BA56B002A9AD0EE
:101BD0004146E06803F008FE226CE36851429B1A1C
:101BE0002268E360934202D2A3685B18E3604A462E
:101BF000A36C022A17D00135A563002B94D1CDE741
:101C0000636A002BCDD10028D1D192E72368A56368
:101C10006360002900D087E7C0E7A06800F0FEFFFE
:101C20004346A36075E7002D04D0A563002B00D0C8
:101C300078E7B3E70122A263002B00D072E7ADE79B
:101C4000F8B55746DE464E4645460400E0B5924696
:101C50001D000F00FFF7B2FAA26BE36B06009A4279
:101C60003BD300239846022D09D03000FFF7AAFA93
:101C70004046F0BCBB46B246A946A046F8BD453337
:101C8000E35C226C5BB29846A36B9B46A36B9946C0
:101C9000002A2DD03900E06803F0A6FD226CE3682D
:101CA00051429B1A2268E360934202D2A3685B18F8
:101CB000E3604B46022D51D00133A3634346013309
:101CC0003DD000F027FD804504D243464522013334
:101CD0005BB2A35401239846C7E74523E35C226C1B
:101CE0005BB29846A36B9B46A36B9946002A11D121
:101CF0002768002F46D04B460133A3634346013388
:101D0000DFD1A36C002B33D0022D1BD15B46002BFF
:101D100018D0DFE7002DBDD13900606803F064FD05
:101D200049466368226C01319B18A2686360934244
:101D300001D3236863604346A1630133C1D1A36C1F
:101D4000002B15D02000FFF7F7FD0028C2D0534626
:101D5000002BBFD0012352461360BBE7002B00D1FC
:101D60000123A36343460133ABD1A36C002BCDD138
:101D7000636A002BAED02000243000F04DFE002816
:101D8000E5D1A7E7A06800F049FFA760B3E7C04628
:101D9000F0B54746CE46040080B585B0884601922E
:101DA000FFF7F6F9A76B002F5ED1019B002B3BD00C
:101DB00002A800F0E1FE0023442699464525FFF7DE
:101DC000F3F900F093FBFFF7E3F9A35D5BB2013396
:101DD00001D14B46A355635D5BB2013301D14B4644
:101DE0006355FFF7E1F901A902A800F0D1FE002830
:101DF00022D1FFF7CDF9A36B002B2AD1FFF7D4F93D
:101E000020000199243000F0DBFC2000FFF7D6FC15
:101E100000F074FB002824D0FFF7BAF9A76B002F5D
:101E200022D1019B002BCAD1FFF7BEF9002005B0DB
:101E3000C0BCB946B046F0BD2000FFF7BFFC00F0C3
:101E40005DFBFFF7A5F9A36B002BEDD0FFF7ACF915
:101E5000E2E7FFF7A9F92000FFF7B0FC00F04EFB26
:101E6000DAE7FFF789F9D7E7226C002A08D0E168A2
:101E7000A3688918E16099420BD2404603F0B4FC94
:101E80007B1EA3632369002B06D1FFF78DF9012088
:101E9000CDE72168E160F0E72000103000F0BCFDE4
:101EA0000028F2D0FFF768F9EFE7C04610B5002927
:101EB00033D0424B5A68904200D173E01A68002A2E
:101EC0002CD0DA68904200D176E09A68002A3ED0A1
:101ED0005A69904200D16DE01A69002A3DD0DA6952
:101EE000904261D09A69002A3DD05A6A904242D00D
:101EF0001A6A002A43D0DA6A904257D09A6A002AB6
:101F000043D05A6B904253D01A6B002A43D0DA6BFD
:101F1000904245D09A6B002A2AD010BDDA689042D0
:101F20004AD05A69904245D01A00DC69A0423BD0A1
:101F30005C6AA0421FD0DC6AA04237D05C6BA04232
:101F400036D0DC6BA0422BD011605060E5E75A69B7
:101F500090422FD01A000832E7E7DA69904223D086
:101F60001A001032E4E75A6A904204D0144AE2E7B9
:101F700038331A00E8E70422D2009A18E4E7DA6A54
:101F8000904213D01A002032D8E75A6B90420FD0FB
:101F90001A002832D5E71A00DC6B3032A042D3D1C8
:101FA0000722E9E70022E7E70322E5E70522E3E766
:101FB0000622E1E70222DFE70122DDE7D01E002052
:101FC000E81E002070B5040016000D00FFF7E0F8D1
:101FD0004422A35C5BB2013301D10023A354452208
:101FE000A35C5BB2013301D10023A354FFF7DCF8FB
:101FF000A36B002B03D02000FFF7E0FB70BD200097
:1020000032002900243000F08DFCF4E7F0B5C6461C
:1020100000B50400FFF7BCF8384A394F13680133A4
:1020200013603B68002B35D0364BE26A98461B683C
:10203000002B29D0344E35490B6801330B606364A3
:10204000334B1968914200D21A6093009B189B0091
:10205000F1184A689068A26084466546E060201DD9
:1020600068609060F25861610132F250FFF79CF8AD
:1020700043461B68002B04D03B68DA6AE36A9A4245
:1020800011D380BCB846F0BD3B68DB6A9342D1D81F
:102090003C60CFE73C601368012B07D0194BE26A24
:1020A0009846194EC7E7FFF767F8EAE7A023164EF0
:1020B0009B0098463500B04428001435FFF746FBD6
:1020C0004545F9D1134B98461800FFF73FFB124DD9
:1020D0002800FFF73BFB1148FFF738FB1048FFF7DC
:1020E00035FB1048FFF732FB42460F4B1A600F4B8F
:1020F000E26A1D60034B98469DE7C04620F6022029
:1021000020DE0020ECF7022038DE00202CF6022032
:1021100030F6022088F702209CF70220D8F7022030
:102120000CF80220F8F7022028DE002030DE002024
:10213000F8B5CE464746960080B5804630000D0083
:10214000994602F05DFC071E00D187E0702002F086
:1021500057FC041E00D17EE07022002103F03EFBFC
:102160003200A5213800276303F038FB236B043EBF
:102170009E1907239E43002D4BD034222B78A35465
:10218000002B43D06B780132A354002B3ED0AB78A8
:102190000132A354002B39D0EB780132A354002B29
:1021A00034D02B790132A354002B2FD06B7901321C
:1021B000A354002B2AD0AB790132A354002B25D095
:1021C000EB790132A354002B20D02B7A0132A35497
:1021D000002B1BD06B7A0132A354002B16D0AB7AA4
:1021E0000132A354002B11D0EB7A0132A354002BFF
:1021F0000CD02B7B0132A354002B07D06B7B013218
:10220000A354002B02D04223AA7BE2544323002292
:10221000E254089D1F2D1CD8201DE562E564FFF7E0
:10222000A1FA20001830FFF79DFA20235B1BA36161
:102230004A464146300024616462FEF78DFF099BE7
:102240002060002B00D01C602000C0BCB946B04606
:10225000F8BD1F25E0E7380002F064FC0024F3E736
:10226000F0B5C646124B00B59846124D124F134EAC
:1022700014E0FEF78DFFFB68DC68201DFFF78EFA87
:102280003368013B33602B68013B2B60FEF78CFF0A
:10229000206B02F047FC200002F044FC2B68002B6E
:1022A000E7D143461B68012BF8D9FEF765FFF5E738
:1022B00038DE002024F602200CF8022020F602204E
:1022C000F0B5DE4657464E464546594BE0B51A68CE
:1022D00083B0013294461A60002A5FD055490B68DA
:1022E0009C4570D3544B99461B681B68002B00D14A
:1022F00098E000239846514B514E9B46514B01911B
:102300009A4639E0002159611168013911609A6AD1
:10231000002A0ED0D969186A556888604160190092
:1023200018318D4200D173E00021996211680139A2
:1023300011605246D96A1268914201D95246116021
:102340008A0052189200B518686887689860DF6044
:102350007C6084605D61B3580133B3505B461B6899
:102360004246DB6A8B429B415B421A434B461B68E9
:1023700090461B68002B50D04B461B68DB68DB681F
:102380005A68944546D35A699868D9681C1D81607B
:1023900048605068A042B5D15160B3E7264B2A4A45
:1023A000196810681860116028490A6801320A60CB
:1023B0001A681268002A25D101231E495B420B606E
:1023C0000B689C458ED2002398461C4B1C4E9B46A6
:1023D0005B4601201B681E4AD96A12688B005B1895
:1023E0009B00F3589842804113005A1E934140428B
:1023F00018434346184303B0F0BCBB46B246A94657
:10240000A046F0BD1B680B49DB681B680B6066E7E4
:10241000506089E701990A60DAE7019901235B427C
:102420000B60D5E79846054B054E9B46F6E7C04640
:1024300020F80220C4F7022028DE002020DE002041
:1024400038DE002030F6022030DE0020C8F70220FF
:102450002CF8022010B582B0059C0194049C0094D5
:10246000FFF766FE002804D0FFF7D0FD012002B080
:1024700010BD01204042FAE710B586B010220021BD
:1024800002A803F0ABF900248022114B11480293FB
:10249000114B009401935200002302A9FFF748FE5C
:1024A000002805D0FFF7B2FD00F0C4FD012803D0DD
:1024B0000A4B1B6806B010BD72B60122084B52428F
:1024C0001A60084B1860084B1C60FEF7ABFEEFE784
:1024D00049444C4561220010B8F70220ECB50310C6
:1024E000C4F70220ECF7022020F80220024A136809
:1024F000013313607047C04628F60220F0B5DE466F
:1025000057464E464546E0B583B0FEF741FE534C74
:102510002368013B23602368002B00D081E0504BEF
:102520001B68002B7DD04F4B9C461B68002B00D1B5
:1025300090E04D4B4D4D98464D4B019499464D4B77
:102540009A4600239B466346DB68DB68D869196AB4
:102550009A6A81604860180056681830864200D137
:1025600072E0594699621168013911605A69986898
:10257000D968566881604860181D864262D011682B
:10258000013911604146DA6A09688A4201D9414637
:102590000A60910089188C002E1971688F68996003
:1025A000DF60786088605E612B5901332B514B46A8
:1025B0001B68DB6A9A423FD9534601221A60634680
:1025C0001B68002BBFD12C4B019C1A681268002A93
:1025D0003CD01B68DB681A68284B1A60284E3568A7
:1025E000002D14D0012708E0FFF76AFE002801D073
:1025F00053461F60013D002D08D02368002BF3D007
:102600003368013D01333360002DF6D13560534608
:102610001B68002B05D0164B01241B68FEF7ACFD90
:1026200000E00024FEF7C0FD200003B0F0BCBB4674
:10263000B246A946A046F0BD63461B68002B00D0F9
:1026400081E7C0E751609AE751608AE70B4B013A96
:102650001A60C3E7074B9A46C0E7C04628F6022037
:1026600020F60220D8F7022030F6022038DE0020C3
:1026700020DE00202CF8022028DE0020C4F70220F3
:10268000D4F70220F0B5C646040000B5002821D0DA
:10269000174A136801331360164B00211E68164B4E
:1026A000164D1F68164BA4191B682A6898466D239F
:1026B0002868D1540430FFF771F82B6829685C60F2
:1026C0000431A6420BD94046FFF750F8FFF716FF3A
:1026D000002801D1FEF750FD80BCB846F0BD38009F
:1026E000FFF744F8074B1A689442EFD21C60EDE7FD
:1026F00028F6022020F8022028DE002020DE00201C
:1027000030DE0020C4F70220014B18687047C04635
:1027100020F80220014B18687047C04620F60220BE
:10272000064B10B51B68002B02D1FFF7C9FD10BD89
:10273000034A0020136801331360F8E728F60220EB
:10274000D4F70220194B30B51B68002B03D00122AF
:10275000174B1A6030BD164A164C13602268164893
:1027600091008B189B00C558002D07D1143BC3184E
:102770001968143B013A0029FAD0910089188900A0
:1027800045186B6808315B6840186B60834205D060
:10279000D9680A4B196022601B68DBE7EB68D968CF
:1027A0006B60064B196022601B68D3E728F6022095
:1027B0002CF8022030F6022038DE002020DE002037
:1027C000F0B5C646204D0C00296800B51831FEF75B
:1027D000CDFF1E4B00211E681D4B1F681D4B1B6843
:1027E0002A6898466D232868D1540430FEF7D6FF36
:1027F000631C15D02B682968A4195C600431A642BB
:1028000005D94046FEF7B2FF80BCB846F0BD38009F
:10281000FEF7ACFF104B1A689442F5D21C60F3E748
:102820000E4B29685A688A6090682968C8602968D0
:10283000043141602968043191602A6853611A6843
:1028400001321A60E0E7C04620DE002020F80220B6
:1028500028DE002030DE0020C4F70220F8F7022036
:102860008023F0B5C646294C15001B0622680B4391
:1028700000B59361226843689968D3612268116248
:10288000226818324A602268002118329A60236850
:1028900098620368013303601D4B1E681D4B1F685F
:1028A0001D4B1B68226898466D232068D154043064
:1028B000FEF774FF6B1C15D023682168AD195D60AD
:1028C0000431AE4205D94046FEF750FF80BCB84601
:1028D000F0BD3800FEF74AFF104B1A689542F5D25A
:1028E0001D60F3E70E4B21685A688A609068216882
:1028F000C860216804314160216804319160226818
:1029000053611A6801321A60E0E7C04620DE0020F9
:1029100020F8022028DE002030DE0020C4F702204C
:10292000F8F70220F0B5C646354C43680D00216823
:1029300000B59E68CB6121680E6221681831716014
:102940002168183199602368986203680133036035
:102950002C4B002A21D01B682B4B00211B682B4BD2
:102960001B686D2322682068D1540430FEF716FFDF
:10297000274B21685A688A6090682168C86021687E
:1029800004314160216804319160226853611A6802
:1029900001321A6080BCB846F0BD1E681A4B1F6831
:1029A0001A4B1B68216898466D232068CA5404306E
:1029B000FEF7F4FE6B1C15D02368AD195D60AE42C6
:1029C0000AD8216838000431FEF7D0FE114B1A688E
:1029D0009542DFD21D60DDE7216840460431FEF7F5
:1029E000C5FED7E72268731E53609E42F4D8216863
:1029F00038000431FEF7BAFE064B1B68CAE7C04632
:102A000020DE002020F8022028DE002030DE00201A
:102A1000F8F70220C4F70220C368F0B5DB68D86974
:102A2000196A9A6A816048601800546818308442B4
:102A300041D000219962116801391160234AD96A95
:102A40001268002A29D15A699C68D8681D1DA060A7
:102A500044605468AC4230D01068013810601C4AA1
:102A60001068884225D38A001A48521892008618A6
:102A70007468A7689C60DF607D60A5605E618358B4
:102A800001338350144B00201B68DB6A8B4203D256
:102A90000122124B01301A60F0BD114A5468A5683A
:102AA000DC611D626860A0609A6213680133136084
:102AB000E8E71160D7E75160BBE750601068013864
:102AC0001060034A10688842CDD2F2E728F602204F
:102AD00030F6022038DE002020DE00202CF8022014
:102AE000D8F7022080231B06F0B5026944680B4327
:102AF00081680360C368A1604C60546884422ED032
:102B00000021016111689868013911605A69D9681A
:102B10001D1D816048605068A84222D011680139AB
:102B20001160114AD96A1068814200D911608A0087
:102B30000E485218920086187468A7689C60DF607F
:102B40007D60A5605E61835801338350084B1B682C
:102B5000DB6A994202D90122064B1A60F0BD51602E
:102B6000CEE75160DAE7C04630F6022038DE0020BA
:102B700020DE00202CF80220034B1B680360034B6F
:102B80001B6843607047C046C8F7022020F8022047
:102B9000F0B5C64600B50E000700FEF7F9FA6D2342
:102BA000154C164A21681568ED5C002D09D00021EE
:102BB0001268D1540124FEF7F7FA200080BCB84611
:102BC000F0BD33685A1C15D00D487A680568A846D0
:102BD0003D68454504D08A4202D800233360E9E7C6
:102BE0008D1AAB42F9D95B1A9B18336003683B60BE
:102BF00023687B600024DEE720F8022020DE00202E
:102C0000C8F702200122014B1A6070472CF80220FD
:102C1000014B18687047C04620DE002070B5041EC6
:102C200008D0036DC16AC26C013B0365914201D0BB
:102C3000002B01D0002070BD051D2800FEF7AEFD61
:102C40002023E26C9B1AA3610B4BE26219688A4253
:102C500000D91A60930009499B189B00C818426864
:102C60009668A260E66075609560CA58606101323E
:102C70000120CA50DFE7C04630F6022038DE0020CF
:102C8000044B1A68196890691A682023C96A5B1A8C
:102C90009361704720DE0020F0B55746DE464E4671
:102CA0004546E0B5CE4B8BB09846CE4B06AF019370
:102CB000CD4B9B46CD4B9946CD4B4C46029328239A
:102CC000D9469A46C3465B461B681D68002D00D056
:102CD000E1E0FFF70BFCFFF717FD019A8046136850
:102CE000834200D9E7E04B461B6810601A685342E4
:102CF0005A4143462068E91AFFF764F9FFF7FEFBE3
:102D0000002800D12BE110220021380002F066FDDE
:102D1000002239002068FFF73BF80028D3D03B6839
:102D2000002B5ADBBD68002DF2D06B69002B02D05E
:102D3000281DFEF733FDFFF7E7FC019B06001B682B
:102D4000984252D3019B1E603B68092BE0D8029A3F
:102D50009B00D3589F465346E85C012352460343E9
:102D6000AB547968AA692D618B186B60B34200D9A6
:102D700086E0711A8A4219D8410700D5F2E0012392
:102D800098435346E85428002B6A9847C0E75346B7
:102D90000122EB5C13435246AB547B682D619A19B8
:102DA000AB616A60B24270D8002BB1D04B46291D8E
:102DB0001868FEF7DBFCABE753460122EB5C93435C
:102DC0005246AB54A4E75346EB5C9A0700D4C2E0EA
:102DD000012293435246AB549AE77B68F968B8687E
:102DE00098473B68002B93DB9CE75B461B681A689F
:102DF000002A3ED00395049005940BE001229343F2
:102E00005246A354236A200098475B461B681A6801
:102E1000002A2BD0DB68DC681E68231D180098464A
:102E2000FEF7BCFC53460422E35C1A42E6D0A369D9
:102E30002461F518F64365609E420AD32E00F643DE
:102E4000236A20009847A3692461ED186560B342A6
:102E5000F4D94B4641461868FEF788FC236A2000E7
:102E600098475B461B681A68002AD3D1039D049ECD
:102E7000059C4A46594612680A604A46136061E753
:102E8000B14202D9994200D876E75B46291D1868FD
:102E9000FEF76CFC3CE7DB681D68FFF727FBFFF7DC
:102EA00033FC019A80461368984204D3106085422F
:102EB0007AD900221DE75B461B681A68002A3ED0BB
:102EC0004246049403920BE0012293435246A354DA
:102ED000236A200098475B461B681A68002A2BD09B
:102EE000DB68DC681E68231D18009846FEF756FC58
:102EF00053460422E35C1A42E6D0A3692461F51824
:102F0000F64365609E420AD32E00F643236A2000F2
:102F10009847A3692461ED186560B342F4D94B4624
:102F200041461868FEF722FC236A200098475B465A
:102F30001B681A68002AD3D1039A049C90464A461B
:102F4000594612680A604A4613604246019B1A605D
:102F5000FFF7D4FAD7E6280001F0E4FDD8E6FEF743
:102F60000BF9D0E6A046340007E0E31A9A4214D8E1
:102F70002B6A280098473300AA69D6186E602D6125
:102F8000B442F2D29C4201D2B342F1D95B46291D30
:102F900018684446FEF7EAFBF5E64B46291D18681B
:102FA0004446FEF7E3FBEEE6FFF7A8FA5B461B6834
:102FB000DB68DE68331D18000393FEF7EFFB534612
:102FC000F35C5A0707D4012293435246B3543000AE
:102FD000336A984797E622002B004446904610E05B
:102FE00024DE0020BCF7022034DE002024F802207A
:102FF000F0B50310E31A9A4214D8336A30009847A8
:103000002B00B26936619D187560A542F2D9A342C2
:1030100001D9AB42F1D95B46039918684446FEF7E3
:10302000A5FBD4E74B46039918684446FEF79EFB80
:10303000CDE7C04670B582B0FEF7AAF8174C2368FA
:10304000002B12D0FEF7B0F823680020002B0AD026
:10305000134B802201931F2312490093124800232F
:10306000D200FFF7F7F902B070BD104E3000FEF746
:103070006DFB0F4D2800FEF769FB0E4B00221E6012
:103080000D4B10210A201D60FEF79EFC20600028D9
:10309000D8D00A49FEF70AFFD4E7C04624F8022038
:1030A00028F8022018640310992C001060F7022001
:1030B00074F7022024DE002034DE002010640310A8
:1030C00030B514001A0002230D0085B05B42009356
:1030D000054B019069461868002302950394FEF79A
:1030E000AFFD05B030BDC04624F80220F8B5DE467D
:1030F0004E4657464546E0B58B4605000A991800EE
:10310000160001F045FF0A9B6C001F02324B641948
:103110009C46A4006444636881469F4200D967606E
:103120002B1FDBB29846012B30D9C02380229B0194
:10313000E31812011A60294BAD0059599A4600292B
:103140001BD17301E026226853401E408023424673
:103150005B01E3181E60012A30D9802380229B0185
:10316000E31812011A6053464A4667605A51F0BC90
:10317000BB46B246A946A046F8BD586901F008FF13
:10318000013043001B18033BFDD2DAE75B46012BFD
:10319000CBD1C02303229B01E3181A60023AA36833
:1031A0001A42FCD07301E0262268AD0053401E4055
:1031B00080230A4A5B019246E3181E605A46216842
:1031C000514003220A401A6001225B469A40A368DC
:1031D0001A42FCD0C1E7C0460080004070290020A0
:1031E000F0B546464F46D646C0B51F00344B4400A6
:1031F0009C462418A4006444636888461600FF2B8C
:1032000002D880235B006360031FDBB29A46012B68
:1032100030D9C02380229B01E31812011A60294B88
:1032200085005959994600291BD17301E02622686F
:1032300053401E40802352465B01E3181E60012A62
:1032400030D9802380229B01E31812011A60802369
:103250005B0063604B465F51E0BCBA46B146A8468E
:10326000F0BD586901F094FE013043001B18033B88
:10327000FDD2DAE74346012BCBD1C02303229B01C9
:10328000E3181A60023AA3681A42FCD07301E026E0
:103290002268850053401E4080230A4A5B01914604
:1032A000E3181E6042462168514003220A401A601A
:1032B000012342469340A2681342FCD0C1E7C046B6
:1032C0000080004070290020014B8000C0587047EA
:1032D000702900208023DB051868000F7047C04666
:1032E0000FB400B5084883B004F0C6F8049B002B67
:1032F00007D005A91800019103F0F6FE034804F079
:10330000BBF8012003F008FF20640310686003107D
:1033100010B50148FFF7E4FF30640310EFF31080AD
:1033200072B6034A1368002BFCD0BFF35F8F70475F
:103330002C0100D0BFF35F8F0022024B1A6080F394
:10334000108870472C0100D070B5EFF3108C72B666
:103350000D4D2B68002BFCD0BFF35F8F0724CB08EB
:10336000C618C05C01230C40A3401C00044003426B
:1033700007D118433070BFF35F8F2C608CF3108837
:1033800070BD1000FFF7ACFF2C0100D0F8B5474628
:10339000CE46884680B5EFF3108C72B61C4D2C6873
:1033A000002CFCD0BFF35F8F9A4222D80721012660
:1033B000894602E00132934218D34D46370015404A
:1033C000AF40D4080119045D2742F3D110003C43FB
:1033D0000C70BFF35F8F00220D4B1A608CF31088C6
:1033E00000280EDBC0BCB946B046F8BD0120404203
:1033F000EFE7BFF35F8F00232B608CF31088012071
:1034000040424346002BEDD00898FFF769FFC046C5
:103410002C0100D030B5EFF3108C72B60A4C236843
:10342000002BFCD0BFF35F8F072301220B409A4093
:10343000CD08435D93434355BFF35F8F0023236063
:103440008CF3108830BDC0462C0100D0044A10789F
:10345000431CDBB2172B00D9102313707047C046F2
:10346000B114002010B5064B064C82B00100009349
:1034700018221F232000FFF789FF02B010BDC046AD
:1034800040640310642900200021044B044ABFF368
:103490005F8F02C39342FAD17047C046000100D04B
:1034A000800100D0094A83009A1810B514684022A0
:1034B000544080322240064CC000A44663441A6047
:1034C000044B9C466044416010BDC04604C00140AE
:1034D00004D0014000400140074B8000C3181B6826
:1034E000C90092000A435A400C231340034A9446F1
:1034F000604403607047C04604C0014004D00140EE
:103500008000002905D0064B9C46022360440360DE
:103510007047044B9C46022360440360F8E7C046B2
:1035200004E0014004F00140D0231B061B6830B5C5
:103530000500584243412F205B4283430E48EC086C
:103540008446072028408000814020000B4D3C30FD
:1035500063448000A40041511B19002A05D0802239
:10356000920194466344196030BDC0229201944692
:1035700063441960F8E7C046304101400040014013
:10358000D023F0B5C6461B0698461B680C4F9B001F
:103590001600FA5804000D0000B5104209D12900A8
:1035A00014430D203200FC5000F0B0F880BCB84647
:1035B000F0BD01F095FB43461B689B00FA58EEE70F
:1035C00074F0002010B504000D2000F099F9D0230C
:1035D0001B061B6802499B005A58A2435A5010BD53
:1035E00074F000200123D02283401206936293617D
:1035F000094A83009A1811684022514080320A40DB
:103600000649C0008C4663441A60054B9C4605235E
:10361000604443607047C04604C0014004D001408C
:1036200000400140054B064A1360064A1360536090
:103630009360D36013615361936170478080808091
:1036400000E400E004E400E01F2318401E3B834038
:10365000002905D0C021044A490053501360704727
:10366000802201498B50FAE700E100E0012282400C
:10367000034B1B6813405A1E9341D8B27047C04693
:1036800000E100E001238340014A13607047C04617
:1036900000E200E0064B10309B688000C358054AEA
:1036A00000209B1A2F229A424041C0B27047C04668
:1036B00000ED00E0B414002070B50D00EFF31086AB
:1036C00072B60F4A1368002BFCD0BFF35F8F0D4B0F
:1036D00010309B6884001B590B4A934203D09D42D3
:1036E00001D001F0FDFA074B9B681D51BFF35F8FBE
:1036F000BFF35F8F0022024B1A6086F3108870BD03
:10370000240100D000ED00E0C1010010F0B55746E3
:103710004E46DE464546E0B585B0060000911700EE
:10372000EFF3108B72B66A4A1368002BFCD0BFF31C
:103730005F8F0025674B5D579A46002D00DAA9E0A0
:103740006B00654C01935B199B009846A146C144F0
:103750004B4652469B7910361370604BB6009B68FF
:1037600099590B1B2F2B33D95D4B994200D0ACE0FC
:10377000019B42469C465B4B6544AD0063535A4BEC
:103780000232A218043B9B1A1B05584A5B0D6519AF
:1037900013436B80564B0121AB80FF23AB71009B21
:1037A000EF71AB604B460B4319004C4B9B68995132
:1037B000BFF35F8FBFF35F8F0022454B1A608BF31F
:1037C000108805B0F0BCBB46B246A946A046F0BD85
:1037D00001200A008243D3798C46BB4231D845464A
:1037E000130044491B1B5B415943090D3D4B635377
:1037F0003D4B02356519043B5B1B1B053B4D5B0DC7
:103800002B43AA464D466B800425AC465546E04402
:10381000131F44441B1B1B055B0D1D434B46997135
:1038200000999D8099604946DF71334B01431360D5
:10383000BBE75800C01880002018C179B9422FD9C1
:1038400002000623D356002BF3DA02932B4B61467A
:103850000393131D9A4604235B429C46E144504661
:103860004B461B1A1B055B0D9C46204B95719846D9
:103870006346404603439380019B5A199200039B81
:10388000A418A380029B1C4AA371009B2260E771CD
:10389000A3608AE701F024FA002553465D574FE7FD
:1038A000908802934005131D9A46031561469C4675
:1038B0004046D444634604302018181AE02300051B
:1038C000400D1B0218430390C5E701F009FA4FE7CA
:1038D000240100D06BF80220B414002000ED00E0B9
:1038E000C101001000A1FFFFE414002000E0FFFF71
:1038F00001BDFFFFAAAA00000148804701BD0000EA
:10390000F0B5DE4657464E464546E0B50C0083B05E
:10391000EFF3108872B6634A1368002BFCD0BFF334
:103920005F8F614B61499A68030010339F00D5593E
:1039300001938D4243D0A54254D05D4EAA1B2F2A3D
:103940003DD85C4B9B461B68994601231A009C4658
:1039500082404B4613401F229946634602409340E3
:103960009A4680225B4650469850BFF35F8FEFF334
:1039700005839B46002B37D0019B5B4501D001F0AE
:10398000AFF901232A009A439068844208D176E077
:103990004B005B189B00F3189868844236D01A00DD
:1039A000062151560029F3DA844254D04B46002BAD
:1039B00027D0C02251463F4B5200995019603A4BD4
:1039C0009B68DD51BFF35F8FBFF35F8F0022354BE4
:1039D0001A6088F3108803B0F0BCBB46B246A94613
:1039E000A046F0BD0D00EAE72A0063469A439068BE
:1039F0008442D5D106201056130000280ADA0D00A3
:103A000031E0802351462B4AD150D8E70620185682
:103A1000002821DB42001118890074188B46A16828
:103A20009960E179D971062161569971002924DBE9
:103A3000A488F11A640524155C44091909051E4C73
:103A4000490D2143998013181C4A9B001178F318E3
:103A500099711070AAE713005946002914D1FF315B
:103A600091711749918015490A789A71154A9B1BE3
:103A70005B415A43120D0A7098E71149E2E70620AC
:103A8000105613000028C5DA0F4A1049D21A083A16
:103A90005002400D014399800D4952080A43DA80D3
:103AA00084E7C046240100D000ED00E0C101001011
:103AB000B414002000E100E000E0FFFF6BF80220FA
:103AC00001BDFFFFAAAA0000EE14002000F0FFFFD6
:103AD00000F8FFFF10B58308040003202040FF24F6
:103AE000054AC0009446844081409B0063441A68A4
:103AF000A2430A431A6010BD00E400E070B501243F
:103B00000443EFF30581EFF3108C72B6214A13687A
:103B1000002BFCD0BFF35F8F1F4B05001F4AED1A2F
:103B20006D416A43120D1E4D8900AE6852B276583F
:103B3000A6421CD00621595691421CD0122159563A
:103B4000914222D01E215956914220D02A21595605
:103B50000324914210D0134B19781A708171BFF36E
:103B60005F8F00220B4B1A608CF3108870BDAB681E
:103B70000D4C5C50EFE700246100091989005B18C7
:103B8000FF21997109499980E5E70124F4E70224AE
:103B9000F2E7C046240100D0B4140020AAAA000015
:103BA00000ED00E06BF80220C101001001BDFFFF35
:103BB0001F2110B5091A0248FFF72CFC10BDC046A2
:103BC0008BF8022010B5084B084C82B0010000931E
:103BD000002205232000FFF7D9FB002801DB1F236B
:103BE000181A02B010BDC0465C6403108BF80220A6
:103BF00070B504000E001500FFF728FC010020003E
:103C000000F006F8A680E580BFF35F8F70BDC04668
:103C1000024B9C46614489000160704740000034BB
:103C2000F8B5124C124DAC4212D201260027764252
:103C30002368002B0DD0FFF709FC01002000FFF7DF
:103C4000E7FF66602772BFF35F8F0C34AC42EFD39F
:103C5000F8BDFFF7FBFB01002000FFF7D9FF66600E
:103C6000BFF35F8F0834AC42E2D3F1E7681B00205A
:103C7000781B002010B50400FFF7E8FB01002000CE
:103C8000FFF7C6FF01235B426360BFF35F8F10BD88
:103C900010B50400FFF7DAFB01002000FFF7B8FFC2
:103CA00001235B42636000232372BFF35F8F10BD6B
:103CB00010B504000120FFF7D5FB034BC3189B0090
:103CC0002360BFF35F8F10BD40000034034B9C4660
:103CD000614489000160BFF35F8F7047400000348A
:103CE000F0B5DE4657464E464546E0B587B0EFF3A1
:103CF0000583032201251A40954091008846A94674
:103D0000B34B03925C58B34B1D60B34B04934B46CB
:103D1000B24843630823E55E002D37DAA3881BB25F
:103D2000002B00DBADE0A379002B00D0EEE00823F0
:103D3000E05E002820DB430062691B18DB00D3181B
:103D40009E68DD68731C00D111E1A4480100414464
:103D5000826A0B69B71A9B1A9F4215D30123026A24
:103D6000039883401A420FD09C4800F04DFC8D42CE
:103D700002DCCCD18642CAD940BF07B0F0BCBB46FA
:103D8000B246A946A046F0BD0E61EDE762696B0040
:103D900092465B19DB009A4453469E68DF6800F048
:103DA00033FC8F42BADC00D103E1002F00DAE8E0F7
:103DB0005246534652691B699346049A934200D176
:103DC000D9E052460821605E5288000459461043EB
:103DD0009847009001910099019A0B00100013433D
:103DE00000D1CEE013000A00B61A9F41002806DB7E
:103DF0007A4800F009FC009E019F36184F41534657
:103E00009E60DF6000229A5E002A00DA86E7530097
:103E100099186069C900411802938B68C9689B466C
:103E2000B94200DD7AE702D1B34200D976E7082330
:103E30009C46A444059565462281A446029B2C001D
:103E400006E053009918C90041188D68C968AB464F
:103E50009B18DB00C318B94206DC00D1B3E01C009C
:103E60000023E25E002AECDA230064469C465346B7
:103E70001A806346059D1D80A3881BB2002B00DAC3
:103E800051E72269EFF3108172B61368002BFCD062
:103E9000BFF35F8F0123A7885B42A3803FB22369F2
:103EA000BFF35F8F00221A6081F31088002F00DAC1
:103EB00039E72300083322009A4666697B00DB1944
:103EC000DB00F318996850468C460824115FDD68C2
:103ED000002910DB029306E0AB4244D00023E15EF0
:103EE0002000002906DB4C006418E4003419E36864
:103EF000AB42F1DD029B078000201F5E1980002F7E
:103F0000DCDA1400A379002B00D110E70023A371A1
:103F100026000823E15E08364B1C00D12CE7080080
:103F2000A246656902E03E004B1C1AD04B005B18AC
:103F3000DB00EF180A008C46E95E7B881BB2002B81
:103F4000F1DA01235B42DC17BB60FC60824205D0E2
:103F5000534631801B893B8053461A8160464B1C77
:103F6000E4D15446E5E6A3686345B7D9C2E76B1CC4
:103F700000D0EAE6F8E65B4658461B6998470028F9
:103F80001BD153461B8822692381EFF3108372B63D
:103F900011680029FCD0BFF35F8F514662880A8008
:103FA00022696580BFF35F8F0021116083F3108861
:103FB000B4E6864200D8F8E6B0E65B461A685B686D
:103FC0000092019307E7B34500D848E74CE7C046A5
:103FD0000CDE00203C700540E13C00100040054034
:103FE000074810B50268EFF3108172B61368002B12
:103FF000FCD0BFF35F8FFDF7ADF90020002110BDAD
:10400000D8F1002070B52E4C2569002D04D00A216E
:104010002C48FFF7FDFD70BD2B4E0321300000F052
:10402000D1FAE660FFF712FA284B03229C46D02310
:1040300022701B061B6801216370254B6044A3603E
:104040000F23800020610220638063694942A180C0
:1040500019800231198647311D83585218315A523E
:1040600075325C3999521832013199521832013146
:104070009952183201319952083518329D52023145
:10408000183299521832013199521832013199522D
:1040900018320131995218320131995218320131D6
:1040A00099520C4B0C49DC6001303562FFF704FB80
:1040B00001210320FFF7C8FA084B1D60A7E7C0469F
:1040C000FC140020D8F100200040054040000034DE
:1040D000FFFF10000CDE0020E13C001038600540BE
:1040E00000487047FC140020F8B5050018200F00A8
:1040F00001F01CFB041E3ED01821380001F034FBF7
:1041000001216061280000F06FFAE5600600FFF70A
:104110009DF9D022267012061268184B62709C46D8
:104120000122BBB252426044800063819B1820612F
:104130002281A2806380002F0BD079006269C919A7
:10414000C9000F4B89181380013318329BB28A4281
:10415000F9D10127B7400B4BB20030000A492F625A
:10416000D450FFF7A9FA01213000FFF76DFA074B91
:104170009C4665442F602000F8BDC04640000034D6
:10418000FFFF00000CDE0020E13C001038200000A2
:10419000124B70B5040098421ED001230578C66802
:1041A000AB400F4A3362B218136001212800FFF7B9
:1041B0004BFA28000B49FFF7A3FB2900300000F061
:1041C0000BFA00212278084B60699200D15001F06F
:1041D000EDFA200001F0EAFA70BDC046FC140020A0
:1041E00038300000E13C00100CDE0020F8B51F0064
:1041F00008AB1B7804001600002B08D100F00CFA65
:1042000032003B00121A8B41002B00DA52E0226987
:10421000EFF3108072B61368002BFCD0BFF35F8FF2
:104220000223E15E63694A005218D2009B1822699A
:10423000002936DB1D886580BFF35F8F0025156080
:1042400080F31088069A9E60DF601A61079A5A61AF
:104250005A8801325204520C101C002A1FD082B21C
:104260005880080410432669EFF3108772B632684D
:10427000002AFCD0BFF35F8FA2881A80A180236937
:10428000BFF35F8F00221A6087F310880A492378F2
:104290008C4601329A40E36863441A60F8BD0120FD
:1042A000DDE7BFF35F8F0023136080F310880120E8
:1042B0004042F3E70020F1E73C20000070B5010028
:1042C0000469EFF3108C72B620680028FCD0BFF3AD
:1042D0005F8F02200D5E4C6968004019C0002418F1
:1042E0000869002D36DB26884E80BFF35F8F0026DD
:1042F00006608CF31088E3606388049801332061C2
:104300005B0405985B0CA26060611A1C002B1FD037
:1043100093B22804628018430A69EFF3108C72B6D6
:104320001368002BFCD0BFF35F8F8B8823808D80B8
:104330000B69BFF35F8F00221A608CF310880B7833
:1043400001329A40CB6808498C4663441A6070BDBC
:104350000122DDE7BFF35F8F002303608CF3108839
:1043600001204042F3E7C0463C20000010B54389DD
:104370000A1493421ADD53009B184269DB00D318DC
:104380000469EFF3108C72B62268002AFCD0BFF3E8
:104390005F8F5A88090494B2090C8A4208D00369D5
:1043A000BFF35F8F00221A608CF31088002010BDCD
:1043B0008022120214435C80012302698371BFF3DF
:1043C0005F8F002111608CF31088044902788C46BD
:1043D0009340C268012062441360E8E73C2000007B
:1043E00040787047F0B54746CE46060080B5962423
:1043F0006442E5170F00A4197D4183B08D4215D8A2
:1044000012D000F009F922002B00121A8B41002B68
:1044100016DC002B40D03000390000F03BF903B02F
:10442000C0BCB946B046F0BD8442EAD9002400259C
:1044300000F0F2F822002B00121A8B41002BE8DD6D
:1044400000F0EAF822002B00121A8B41002B0ADB45
:1044500000230193124B2200009312482B00FFF718
:104460002DFF0130D7D0A846A1460F4D0F4C6B6AE7
:10447000984504D8AA6A4A45CDD29845CBD122683E
:10448000EFF3108172B61368002BFCD0BFF35F8F7F
:104490002000FCF72BFFEAE7002ABCD0D0E7C0469B
:1044A000E13F0010FC14002000400540D8F100203E
:1044B000F0B557464E46DE464546E0B506000F00CD
:1044C00085B0EFF3058399468B46002B12D038490F
:1044D00000204B6ABB4206D38A6ADB1B591E8B4104
:1044E000B2424041184305B0F0BCBB46B246A946B3
:1044F000A046F0BD2F4B9A46DB68984653461B7882
:104500004046039300F080F84246039B04000433C6
:104510009B009B580D001B1A39003000001BA9415D
:10452000894510DC0DD020BF214A0020536A5B452D
:10453000D9D3926ADB1B591E8B41B24240411843CA
:10454000D1E78342EFD900F067F832003B00121A3E
:104550008B41002B1ADB00230193174B3200009391
:1045600050463B00FFF7AAFE011E0FDD104B5A6AB2
:104570005A451BD39B6AB34216D35046FFF7F6FE4B
:104580000B4A0020536A5B45ADD3D2E7084A0020AE
:10459000536A5B45A7D30020926ADB1BB2424041BD
:1045A0005A1E934118439EE75A45E6D120BFE4E7DF
:1045B00000400540FC140020E13F00100048704717
:1045C0000040054010B5024A0248FEF7BDFE10BD8E
:1045D000786403106829002010B50248FEF71AFF1E
:1045E00010BDC0466829002000B5054B83B000937C
:1045F000002203230348FEF7C9FE03B000BDC046F6
:104600009C640310682900200300416A0A00986A2C
:10461000596A8A42FAD17047034B596A0A00986A6C
:10462000596A9142FAD170470040054070B50400C4
:104630000D00174A536A1900966A536A8B42FAD1E1
:104640003000190024184D41AB4216D813D0104B3E
:104650002A005B6A9D4203D90D494B6A9342FCD301
:10466000934207D10A4A02E0516A994202D1916A03
:10467000A142F9D370BDA642E9D9054B5B6A1C0083
:104680005A1CEFD0012201246442E5175242E3E7AD
:1046900000400540064A536A9942FCD807D1044BB2
:1046A00002E05A6A914202D19A6A9042F9D8704760
:1046B00000400540F8B5040021481E0017000D0019
:1046C00000F066FC0100380000F062FC069B360436
:1046D0001B031E432368002B20DB1A4B1A49E318E7
:1046E0005A1E93418022920194465B421B0B174A4B
:1046F0001B0363441360164A13601F000A68974344
:10470000FBD1144B2560E2182123A06013602368BD
:10471000002BFCDA0823E6601360F8BD3F23226813
:104720001340AB42D9D1A3681B051B0D8342D4D1E2
:10473000EE22E368D2021340B342CED1EDE7C04689
:10474000001BB7000040FDBF08C0004000E0004073
:1047500000F000400430000010B580241C4BE4053C
:104760001C6000281AD001231A4C18431A4BDC6134
:104770001A4C44401C62596298628021144BC9054E
:104780001960174817490860E021C9041960002A18
:1047900007D18022144B12061A6010BD0E4BD8614F
:1047A000EBE753019B1A9B009A18802312015B04CC
:1047B0009A4209D213000D490B60074B5A608022C0
:1047C000094BD2051A60E8E7094B1A00F3E7C04627
:1047D00000B00540D3C007B0008005402D3FF84F22
:1047E000FCFF01000820014000A0054028440020F3
:1047F000FFFFFF008023024A9B000B43D3627047F8
:1048000000800540002310B50100988A1B8B984753
:1048100010BDC046162310B50100188802331B884E
:10482000984710BDF8B54746CE4680B50F1E18D044
:1048300014239946043304000025012698464B466C
:104840001888434621681B88984701C4431E984135
:1048500001350640AF42F2D13000C0BCB946B04687
:10486000F8BD0126F8E7C046002370B504000D002E
:10487000988A05491B8B984703000020002C01DB18
:104880000130A040290098475542000004204042D2
:104890007047C04610B5002383F31088FA22002326
:1048A0009200002100F0EEFE00F086F843425841ED
:1048B00001234042984310BD10B5041E01D000F002
:1048C00055F8200010BDC046004870471415002060
:1048D000F8B506000F001500FFF7F6FF041E0AD01A
:1048E000436828009847002804D13800B0472800C2
:1048F000A3689847F8BD04204042FBE7AA23064A74
:104900001B0113608D235B00D3600449044B1960C5
:104910005368002BFCDA70470040024000B0FA00F8
:1049200000600240F8B50E00EFF3108772B60C4B32
:1049300084009B681D59A94204D00A4B9D420AD2AB
:1049400000F0CEF9064B9B681E51BFF35F8F87F3D3
:1049500010882800F8BD044B9D42F3D3F0E7C04611
:1049600000ED00E0C0010010D401001070B5FEF7AA
:10497000D5FC04000D480368002B13D02000FEF77F
:10498000D9FCD0231B061C68094925000F352800D7
:10499000FEF792FE28000121FEF756FE0122054B8C
:1049A0001A5570BDFFF766F9E8E7C0462C440020B1
:1049B000850400203444002070B504000D00FFF78A
:1049C0002BFE22002B0012184B41002B02DA012291
:1049D000084B5242084D280031F092FA041E07D0CD
:1049E000064A13680133136040BF280031F030FAE3
:1049F000200070BDFFFFFF7F2C4400202015002009
:104A0000F0B5C646431E00B50A3314D80723040088
:104A10001A000834224023426CD01300093BA34201
:104A200009D31030841AFDF761FD374A2700156855
:104A3000002D28D10EE0FDF759FD334A1368002BF5
:104A400006D00025FDF75AFD280080BCB846F0BD11
:104A50000027002407202D4D2B002900284245D196
:104A600000202B4E706031602A4EB4460726654404
:104A7000B5431560284AEB1A1360284A686028601D
:104A800013604B600D60002FDBDD244F3E68A642B3
:104A9000D7D31F48036804E01A68002A04D018001E
:104AA00013005968A142F7D3AB42CAD01D001A685F
:104AB0000835904602600A1B102A05D919194A6068
:104AC00042460A6001602100134A761A10683E606F
:104AD000864200D21660802212060A435A600022E3
:104AE0001A600F4A136801331360ABE7EB1D834371
:104AF0001900B5E7FDF7FAFC034A27001568002DF9
:104B0000A8D0002CC1DA9CE72CDE002000F60020A3
:104B1000F0F70220F8FF0100C0F70220B4F70220EE
:104B2000CCF7022070B5002804D008384368040090
:104B3000002B00DB70BD0268002AFBD15B005B0824
:104B400043600500FDF7D2FC184A616813685B18E2
:104B50001360174B1A001B689C42FBD8506816184C
:104B6000B4420DD0601883421AD02360AA4200D00C
:104B70001560104A136801331360FDF7BFFCD9E7D5
:104B80000918501851608342F3D10B481500006892
:104B90009842EED058681B68411869602B60E5E7C1
:104BA000054800688342F5D1DFE7C046B4F702202C
:104BB000F0F70220D0F702202CDE0020F8B5040028
:104BC00006200D00FEF780FB002844D0374B384903
:104BD000E3185A1E93418022120494465B429B0DB7
:104BE000344A9B0563441360334A136018000A6813
:104BF0009043FBD12D4B314AE31859424B41802160
:104C00005B00490006209952FEF75EFB2900C000B8
:104C100000F0BEF90130C3091ED1402701226262B3
:104C2000A362266BF30722D4E36A254B0620E5181E
:104C300000232B602663FEF747FB3900800000F05D
:104C4000A7F97023E26A5A400E3313402B601D4BC4
:104C500023630323A364F8BD1B4A93421ED9002398
:104C60001A4A1B4F6262A362266BF307DCD5194B0D
:104C7000144AE3181A60656AA36A0620AD01ED18AC
:104C8000FEF722FB144900F083F9AD020100280071
:104C900000F07EF90021FFF7C9FCC5E74006800E51
:104CA0009F011A003F180300B9E7C0460080FCBF0F
:104CB00008C0004000E0004000F00040F8F500208F
:104CC0002C10000001030000FEFF0000FFFF0000A9
:104CD000C0FF3F00303000004E0E00007047C0465D
:104CE00010B50148FEF7FCFAB064031070B5074D2B
:104CF000074EB54209D20024013E761BB60808CD06
:104D0000984723000134B342F9D170BD805F03108E
:104D1000BC5F0310054B064A06491A60064A074B5A
:104D20001A6010000B689843FBD1704700E0004008
:104D3000BFCDFBFE08C00040FE7F3C0000F00040FD
:104D4000044BDB6C002B03D18022034BD2021A6090
:104D50007047C046000011504C201150044A054BCA
:104D60001A60054A1368DB018033FBD17047C046E7
:104D7000FFFFFF0100F0004008C000404022034B4D
:104D80009A675A671A67DA667047C04600F00140B2
:104D900010B5FEF779FB10BDF8B52749274C284D13
:104DA000641AA6103200302E00D93022280092005A
:104DB00000F01AFDBC2C3BD830202F232C1964079F
:104DC000204A801BE40F9B1B052B16D93700002CB3
:104DD00002D0B300771CEA50001B33199B00410836
:104DE000EB18C900C9181A605A6008339942FAD101
:104DF000012303421CD09843C619B300EA50731C28
:104E00002F2E15D09B00EA50B31C2E2E10D09B00E5
:104E1000EA50F31C2D2E0BD09B00EA50331D2C2E94
:104E200006D09B00EA50731D2B2E01D09B00EA5048
:104E3000054B9D60F8BDC04600010010C001001088
:104E400000000020C101001000ED00E0002310B5BB
:104E5000294C82B0A367FFF751FD0122274B1A604E
:104E6000636C012BFCD10322254B1A60224A936B01
:104E7000012BFCD1013300930121224A2248043343
:104E8000FFF718FC052301210093204A2048FFF773
:104E900011FC0022022104201E4BFEF7A1F9002282
:104EA000012105201C4BFEF79BF900220021072061
:104EB0001A4BFEF795F9002200210820174BFEF748
:104EC0008FF98023DB000093002200210920134B7F
:104ED000FEF70CF90022104B00210620FEF780F9A6
:104EE0000420FEF7F1F90E4900F052F8010000200D
:104EF000FFF780FC02B010BD008000403CB00040D5
:104F000030B00040002F685900800240008C864776
:104F100000C00240001BB70040597307006CDC0260
:104F200040420F0001480421014B18473015002072
:104F300025480010014B9B681847000030150020E1
:104F4000124A936F9B0815D29066D166002905D04E
:104F5000FFE7FFE7FFE7516F106F704704B580214F
:104F60000906C2175140002800D0C84330F090FF16
:104F7000002104BDF0B5146E556E576F166FFFF724
:104F8000E3FF1466556657671667F0BD000000D052
:104F9000114A936F9B0813D210665166002905D001
:104FA000FFE7FFE7FFE7516F106F704704B5002878
:104FB00001D00020C04330F06BFF002104BDC0468B
:104FC000F0B5146E556E576F166FFFF7E5FF146658
:104FD000556657671667F0BD000000D094464A4AF0
:104FE000926F9208624601D228E0C046F0B5464E64
:104FF000346E756E776F366F00F020F89446424A33
:1050000014665566576716676246F0BD94463E4A79
:10501000926F9208624601D254E0C046F0B53A4E13
:10502000346E756E776F366F00F04CF89446364AE2
:1050300014665566576716676246F0BD002B24DB81
:1050400011D000293EDA00B5C943404200D10131F8
:1050500000F038F8C943404200D10131DB435242ED
:1050600000D1013300BD002AEBD1002801D1002975
:1050700005D00020C90FC90701D1C043410800B5C0
:1050800030F0EEFE0022002300BD00B500290ADB4F
:10509000DB43524200D1013300F014F8C9434042CF
:1050A00000D1013100BDC943404200D10131DB4391
:1050B000524200D1013300F005F8DB43524200D1E7
:1050C000013300BD002923D1002B18D1002A0CD0B8
:1050D000BC460D4F38667A6600210023FFE7FFE7E4
:1050E000FFE77A6F386F67467047002801D007489E
:1050F000010000B530F0B4FE0022002300BD020024
:105100000B00002000217047000000D0FFFFFFFFD0
:10511000002B00D0BFE0130C28D1002AE7D080B4C8
:10512000114F39667A66FFE7FFE730B4040C7B6FF6
:10513000396F1B0423433B667A66FFE7FFE7FFE70F
:10514000C04684B27B6F3D6F1B0423433B667A6687
:10515000FFE7FFE7C04600232C042D0C7A6F386F61
:1051600000196941B0BC7047000000D0F0B594460A
:105170000025140E01D112020835140F01D11201BD
:105180000435940F01D192000235D40F01D15200A1
:105190000135D40B0134254F7C66254C3C660E0C42
:1051A00093B2FFE7FFE7FFE73C6F6643360C7703F8
:1051B000BE467343DF0B5B04C01AB941130C734343
:1051C000DB18C91ACE086643360CB64493B2734353
:1051D0001F0F1B01C01AB941130C73431F0B1B0592
:1051E000C01AB941860D8F023E436643360C092D25
:1051F00024DB520A7243801A7703460A6643360C50
:1052000016235B1BDE40DF40BF1964466643821BEA
:105210007046043506330100D940A840C01900D3B8
:105220000131A24206D20023F0BD0000000000D0F0
:10523000FFFFFFFF121B0130F3D3F1E709277F1BAC
:10524000FE406446A2B27243801A00D20139220C99
:105250007243130C1204821A99410B0070460435F4
:1052600013370100F940A840801900D30131002B09
:1052700002D1A2420AD2F0BD013000D30131121B8B
:10528000FAD2013BF8D1A24200D2F0BD013000D3E6
:105290000131121BF7E7F0B51C0C00D080E00CB414
:1052A00000251C0A04D11B02160E334312020835D6
:1052B0001C0B04D11B01160F3343120104359C0B48
:1052C00004D19B00960F334392000235DC0B02D1D0
:1052D00092185B4101351C00971864410134464F18
:1052E0007C66464C3C660E0CFFE7FFE7FFE7C046D6
:1052F0003C6F6643360C7703BE4697B27743C01BBC
:1053000000D20139C01B00D201399FB27743C91BBB
:10531000C91B170C77437E04FF0B801BB941CE08D5
:105320006643360C0C2D33DBB644120B1F053A4393
:105330001B0B97B27743C01B00D201399FB2774352
:10534000C91B170C77433E043F0C801BB941860DE7
:105350008F023E43664329277F1BFE400C3D774664
:10536000AF40BF1930BCA2B2ABB272437343801AD4
:105370009941220C7243130C1204801A99410200C5
:105380000B000137001BA941F9D2781E0021F0BDA6
:105390000C277F1BFE4077467F0BAF40FF19E0E7ED
:1053A00000245D1C07D0144F7D663966FFE7FFE7D8
:1053B000FFE7FFE73C6F95B29EB265436643401B33
:1053C000B141150C1E0C6543664336042F0C3E4359
:1053D0002D04401BB141994204D202000B00200071
:1053E0000021F0BD01D19042F7D3801A99410134D8
:1053F0009942F2D3F6E70000000000D0FFFFFFFF64
:1054000048404140484018B4134B5B68019308BDC5
:1054100018B4114B1B68019308BD94460F4A926F54
:10542000920805D2624618B40B4BDB68019308BDA5
:105430000A4AF0B5146E556E576F166F6246FFF745
:10544000F2FF064A1466556657671667F0BD18B432
:10545000014B9B68019308BDA01D0020000000D0F7
:10546000FFB550404240504059404B40594000E049
:10547000FFB5154F4C00640D03D0BC4204D10C03A2
:1054800014D80020090D09055C00640D03D0BC424E
:1054900004D11C030AD800221B0D1B0501264B401A
:1054A00009D44B4003D58B4200D18242FFBD9942C3
:1054B000FCD19042FFBD0B43DB1803431343F5D0EF
:1054C000C9434918FFBD0000FF07000000B5FFF702
:1054D000CFFF804100BDC04600B5FFF7C9FF01D92D
:1054E000002000BD012000BD00B5FFF7B9FF01D9C4
:1054F000002000BD012000BD00B5FFF7B1FF8041D5
:1055000000BD012040054A00121804D85A001218A4
:1055100001D80020704701207047000000210028BA
:1055200005D17047C1174840401AFAD0C90713B5D2
:10553000064B1B6898470CBC441CA2401005120B7C
:105540000349091B09051943114310BDD4F000207C
:105550001F04000010B54C00620D8023D218DB0040
:10556000D21A5B057E2A10DD9E3A13DACC170903A6
:10557000490819435242D140640001341532202AAF
:1055800005DAD0400843604310BD002010BD084636
:10559000604310BDC80FC018013810BD18B4024BCD
:1055A0005B6A019308BD0000A01D002010B50148F2
:1055B000FDF796FEBC640310132370B51D78012D12
:1055C00019D014DD1D48FFF725F906001C48FFF728
:1055D00021F91C4C80223100200000F005F9022D39
:1055E00006D01948FFF70EF9184B186070BD154C1E
:1055F000174BA364F5E7174B124C23606360A3605D
:10560000E36023616361A361E36123626362A36278
:10561000E36223636363A363E36323646364A36458
:10562000E36423656365A365E36523666366A36638
:10563000E36623676367A367E367D9E75344000022
:1056400053460000A01D00204C330000D4F0002081
:1056500059560010AD55001007B5604601880A0A7A
:105660000230DF2AFAD1C9B2820804D30288408806
:105670000004104300E00068014A5050039007BD49
:10568000A01D002051434343C9188C46110C83B21E
:105690004B4310B4040C614392B280B25043624356
:1056A0001C041B0C001910BC59411304120CC01827
:1056B0005141614470470000014BDB6F1847000007
:1056C000D8F0002010B50148FDF70AFEF05F031086
:1056D000132310B510481C78FFF79CF80100012C2B
:1056E0000AD003DD80220D4800F07EF80C48FFF759
:1056F00089F80C4B186010BD084C5422200000F0B3
:1057000073F82200084980322368002B00D1216001
:1057100004349442F8D1E9E753460000D8F0002061
:105720004C330000D4F00020C556001070B50400C2
:105730000A4E300030F014FC20002FF0A3FC0500CE
:10574000300030F085FB002D05D0054B2C199C4214
:1057500001D8280070BD0348FDF7C2FD681B00207A
:1057600000000420D4640310F8B506000C000C4FB0
:10577000380030F0F5FB210030002FF023FC05004D
:10578000380030F065FB7443002D05D0054B2C1913
:105790009C4201D82800F8BD0348FDF7A1FDC04692
:1057A000681B002000000420D464031070B50400BE
:1057B000054D280030F0D4FB20002FF06DFC2800B0
:1057C00030F046FB70BDC046681B00200148042134
:1057D000014B18474015002025480010014B1B685D
:1057E0001847000040150020014B5B681847000077
:1057F000401500209A4200D2885470477047C04636
:10580000F8B55746DE464E464546E0B599460A9BF2
:1058100007009A460D9B884693460B9C9B073BD1FD
:105820000C9B9C423DD21E1B0B9415000C005E4449
:105830002A004B46013521002020B847B542F7D158
:10584000A0460B9C002C20D0454636195346321BEF
:10585000013C185D29004B46B847002CF6D12B00BF
:10586000350098460D9B9B070FD55B46EC1A0C9BA9
:10587000A3420AD9464698462A004B4631002020CA
:105880000134B84701354445F6D32800F0BCBB4687
:10589000B246A946A046F8BD16001500002CD3D18B
:1058A000E0E716001500002CCED1EEE7F0B5454636
:1058B000DE4657464E46E0B585B09C4610AB1B7899
:1058C000149F934698460F9C129E139DBB074CD481
:1058D000002D42D1B44248D201233B4099460E9B51
:1058E000013B9A46302304E0524601341355A64248
:1058F00001D9202CF8D14B46002B00D183E00E9B20
:10590000013B99463023A54205D82EE04A46013492
:105910001355AC4229D0202CF8D1FB060CD57B05C1
:1059200054D4A64263D0A54261D0119B102B50D015
:10593000022B57D0202C32D1202301930E9B5A46A4
:105940000093039763460295FFF75AFF05B0F0BC3A
:10595000BB46B246A946A046F0BD01233B4099464E
:1059600001233B422AD1B442B9D3FB061CD57B05A7
:10597000DBD4002CD5D1119B102B5BD0119B022BBB
:105980006BD0302301240E9A13704346002B10D1A4
:105990007B073ED52B260E9A631C1655CDE72300B8
:1059A000013430260E9AD654202CC5D04346002B05
:1059B000EED02D260E9A631C1655BEE74346002BEB
:1059C0002FD0013DB44200D289E798E7119B102BFC
:1059D000B2D1BB0637D5202CAED058230E9A135522
:1059E0000134A7E7202CA7D02300013407E0631E71
:1059F000012CC0D0119A102A31D0022AD1D16226AE
:105A00000E9AD65496E7FB06CED57B0500D488E7E0
:105A10008BE723003E0790D520260E9A01331655BA
:105A20008BE70C233B405A1E9341ED1AB44200D23F
:105A300055E764E7BB060ED478230E9A0224137050
:105A400030235370A1E7202C00D175E778230E9AFC
:105A5000135501346EE75823EFE76033EDE70E9AF4
:105A6000A61E91464E44BA0602D55822327098E7D7
:105A70007822327095E7C04610B5002800D110BDDD
:105A800001F0B0FCFBE7C0460B0010B5002802D0C7
:105A900049681B68984710BDF0B55746DE464E462C
:105AA0004546E0B595B083460F00924698461E9A4B
:105AB0001F9B10001900209EFFF723FD002800D037
:105AC000EAE11E981F990122C54B5242FFF7FEFCE6
:105AD000002800D014E11E981F990122C14B5242A8
