:020000041000EA
:1000000000B5324B212058609868022188439860DF
:10001000D860186158612E4B002199600221596106
:100020000121F02299502B49196001219960352056
:1000300000F044F80222904214D00621196600F024
:1000400034F8196E01211966002018661A6600F04E
:100050002CF8196E196E196E052000F02FF8012189
:100060000842F9D1002199601B49196000215960AB
:100070001A491B48016001219960EB211966A021F2
:10008000196600F012F800219960164914480160C1
:100090000121996001BC002800D000471248134993
:1000A000086003C880F30888084703B5996A0420EC
:1000B0000142FBD001200142F8D103BD02B5186610
:1000C0001866FFF7F2FF186E186E02BD00000240BE
:1000D000000000180000070000035F00212200005C
:1000E000F4000018222000A00001001008ED00E03C
:1000F00000000000000000000000000074B24E7A12
:1001000000200420F7010010CB010010CD010010E9
:10011000C9010010C9010010C9010010C901001077
:10012000C9010010C9010010C9010010CF01001061
:10013000C9010010C9010010D1010010D301001045
:10014000C1010010C1010010C1010010C101001067
:10015000C1010010C1010010C1010010C101001057
:10016000C1010010C1010010C1010010C101001047
:10017000C1010010C1010010C1010010C101001037
:10018000C1010010C1010010C1010010C101001027
:10019000C1010010C1010010C1010010C101001017
:1001A000C1010010C1010010C1010010C101001007
:1001B000C1010010C1010010C1010010C1010010F7
:1001C000EFF30580103800BE00BE00BE00BE00BECA
:1001D00000BE00BEF2EB8871CC030610FC030610D3
:1001E0003802001090A31AE71E481F49086006C88D
:1001F00081F3088810471D480068002801D019487D
:10020000F3E70DA40ECC002902D000F012F8F9E7B4
:100210001749184A002000E001C19142FCD116495B
:100220008847164988471649884700BEFDE701C937
:1002300001C29A42FBD37047FC030610E000002085
:10024000801A00209C1D06100000042000000420DD
:100250009C1D061000100420001004200000000067
:10026000704700000000000008ED00E0000000D032
:10027000801A0020A0F10220996500102D030010C3
:1002800091650010F8B5C04606480749091A8B1059
:10029000C90FC91810B5491003D0044B002B00D06A
:1002A000984710BD801A0020801A0020000000002E
:1002B000054B10B5002B03D00449054800E000BFF2
:1002C000FFF7E2FF10BDC0460000000070DB002019
:1002D0000815021070B5114984B0114800F038F9C2
:1002E000040000F081F90F4D00F0A2F9002810D0B1
:1002F0000D4AA06B9446066843690269C16802967C
:10030000466863440196806801320090280006F038
:1003100057FBFA20400001F0F3FBE5E7D0D5FFFFE3
:1003200008150210181502106C07000000B583B004
:1003300006F070FA0F49104800F080F9002813DB2E
:1003400002D10E4806F0B8FA00238022019301334F
:100350000B490093520000230A4801F0B9FA01F05A
:10036000C9FA002003B000BD0230EDDB064806F0FC
:10037000A3FAE9E74C150210581502106015021097
:1003800090150210D50200107C1502107047C0466F
:10039000F0B5C64600B584B01E006B461B8D050047
:1003A000002110001400984617F00AFB01210700F5
:1003B000200017F005FB32682B689A4202D14346B1
:1003C0007B2B09D0164806F077FA200017F0C8F802
:1003D00004B080BCB846F0BD2389302BF2D1293B54
:1003E0003B40042BEED10028ECD00026042224331D
:1003F00001A92000019617F0F7F90A490A4B8C462B
:10040000019A1B6812BA63449B1802A802930396D0
:1004100020F010FD0122054BA8631A70D5E7C046F5
:100420009C1502108081557CE81D002085F102207A
:1004300070B508001400002928D00B6813601FF065
:1004400051FC144B0100180006F0BAFA0022124BBE
:100450001A7014F015FDA02230219200362016F0FB
:1004600027FF466805002F220021701C04F0EEFBD8
:100470001B23337022002900603360681BF03EFFAD
:10048000280017F06DF814F005FD70BD034806F064
:1004900013FAFAE7B415021085F10220C415021010
:1004A00070B50C690EF006FE050003F0F3FA0023A8
:1004B000214A8018594102000B1E02DA01221F4B0B
:1004C00052422100E3622B6828005B69A26220315E
:1004D000984700282DD023002100194A194816F00A
:1004E00011F9002806D0053000D170BD164806F07D
:1004F000E3F9FAE7154B187014F0C2FCA022302182
:100500009200362016F0D4FE466805002F22002106
:10051000701C04F09BFB1B23337022002900603306
:1005200060681BF0EBFE280017F01AF814F0B2FC1C
:10053000DBE703F013FECEE780969800FFFFFF7F16
:10054000310400103CDB0020C815021085F10220A8
:1005500070B50C001E4B01002D22180004F07CFB2E
:100560001C4B402101201C6004F036FB041E2DD0E2
:100570002E201BF05FFF6060002824D02200164967
:100580001BF026FF154BA461E360154B24636362E7
:100590000EF090FD050003F07DFA030000290BDB4F
:1005A0006161210023612B6828005B69083198474D
:1005B000002805D0200070BD01230A495B42EFE707
:1005C00003F0CCFDF6E7200004F028FB0024F1E75F
:1005D0003CDB0020E81D002091030010A104001066
:1005E0008D030010FFFFFF7F0022104B70B5050048
:1005F0001A7014F045FCA02230219200362016F02B
:1006000057FE466804002F22701C002104F01EFBD8
:100610001B2333702A002100603368681BF06EFED4
:10062000200016F09DFF14F035FC70BD85F102200E
:10063000014B18787047C04685F1022070B5040060
:100640000D000EF03DFD00280DD10EF0D9FC074B3A
:1006500029002000064A0EF0E1FC431E98410123C8
:100660004042984370BD01204042FBE730750000D6
:100670000400400000000000000000000000000036
:100680000B4A13681868203080F30988022080F331
:100690001488BFF36F8F3FBCAE4608BC04BC62B683
:1006A0001847C046C046C046C046C046C046C046C1
:1006B000A4DB00200000000000000000000000009B
:1006C000EFF30980164B1A6820381060F0C04446DA
:1006D0004D4656465F46F0C00D221207146E556E09
:1006E000566F176F3038F0C008B572B601F068FA6F
:1006F00062B60CBC116808681030F0C8A046A94664
:10070000B246BB4680F309880D2212073038F0C884
:100710001466556656671767F0C81847C046C04646
:10072000A4DB002010B502F031F8C046D02300B59C
:100730001B061A6D83B0D20704D501219A6D1A6D7C
:100740001142FBD1D023FF221B061A650023114A58
:1007500001931168EFF3108C72B60B68002BFCD07C
:10076000BFF35F8F00230C48126801680360BFF37A
:100770005F8F13608CF31088084B01AA186800F093
:1007800001FB019B002B03D08022054B52051A6010
:1007900003B000BDA0DB0020BCEF0220ECF0022083
:1007A00004ED00E07047C04610B58024031F6404C8
:1007B0001C60043B19600349043B1960143B40383A
:1007C0001A6010BD250700108022044B52051A60E4
:1007D000BFF34F8FBFF36F8F7047C04604ED00E04B
:1007E00072B6044A136801331360BFF34F8FBFF32F
:1007F0006F8F7047B8EF0220034A1368013B136004
:10080000002B00D162B67047B8EF0220EFF31080E2
:1008100072B6704780F310887047C04610B5FFF776
:10082000F5FF040001F0BAF9002803D08022034B41
:1008300052051A602000FFF7EDFF10BD04ED00E047
:10084000002310B5084A094C05202360136001F00D
:1008500079FFFA21890003F0D9FD054B01381860B2
:100860000723236010BDC04618E000E010E000E060
:1008700014E000E0FF221F4B1204196810B50A4370
:100880001A60FF22196812060A431A601A490E20DC
:1008900003F086FA19490F2003F082FA18490B2059
:1008A00003F07EFAFFF7CCFF0022164B1A60D0232C
:1008B0001B06154A1C681470FF221A651A6DD207B0
:1008C00004D501219A6D1A6D1142FBD10F34FF211D
:1008D000200002F03DFB20000C4902F02BF9012121
:1008E000200002F0EFF8FFF7CBFE01F069F901F00C
:1008F0004DFFC04620ED00E0C10600101D080010AD
:10090000A5070010B8EF0220C81300202D07001023
:10091000D02310B51B061868074B1B78834200D004
:1009200010BDEFF30583002B02D05B00C018F7E782
:1009300001F0ACFBF4E7C046C813002010B503007B
:100940000268154882B00478D0200006006884420E
:1009500008D0BFF35F8F0023136081F3108820BF9E
:1009600002B010BDBFF35F8F0020106081F31088CC
:100970000A4A1B6810680A4A944663449A105C2B22
:1009800000D9183A012301215B42914000930122D2
:10099000002300F04DF9E3E7C8130020ECF002203B
:1009A00000FFFF2F0A002B4930B58C46036883B047
:1009B00063449C105C2B00D9183C0121264BA140BC
:1009C0001C78D0231B061B689C421FD040BF234DC0
:1009D00003682C68A34234D02368002BFCD0BFF3FB
:1009E0005F8F1F4C23680B4323602B68BFF35F8F1F
:1009F000002119600368D020002100064165BFF383
:100A00005F8F196082F3108803B030BD40BF036868
:100A1000BFF35F8F00241C6082F31088EFF305831F
:100A2000104ADBB21068002B10D001AA019400F02C
:100A3000A9F9019B002BE7D080220B4B52051A60CD
:100A4000E2E7074C206808432060D4E700F04CF947
:100A5000DAE7C04600FFFF2FC8130020A0DB00200C
:100A6000BCEF0220ECF0022004ED00E0F0B5CE4631
:100A7000474680B51D00344B14001A78D0231B065E
:100A80001B688046894683B09A420FD00368BFF343
:100A90005F8F00221A6081F310882000290002F085
:100AA00045FF03B0C0BCB946B046F0BD02F0F2FF4E
:100AB00026002F00361A8F4101212448494280190F
:100AC000794143461E6800291EDC19D0BFF35F8FB1
:100AD0000023336089F310881D4B5A6A954205D86C
:100AE0009B6A0120A342DCD29542DAD18022194BC5
:100AF00052051A60BFF34F8FBFF36F8F0020D0E70E
:100B0000FA239B009842E1D3FA220023920003F0DB
:100B1000A3FC031EDAD0BFF35F8F0022326089F39B
:100B200010880D4A0D49106842468C46126862448E
:100B300096105C2A00D9183E01210093B140002391
:100B4000012200F075F8C7E7C813002018FCFFFF6A
:100B50000040054004ED00E0ECF0022000FFFF2F14
:100B600010B501F0B1FE054A054B94466044800083
:100B7000186000F051F8034B186010BD40000034BD
:100B8000A0DB0020ECF00220F8B5DE4657464E46CA
:100B90004546E0B505000F00060000F0E5FE2968B7
:100BA0002C6939430C362960A6422CD00023984684
:100BB0008023DB049B4680235B049A4680239B04AE
:100BC00099460FE06746002F0AD057463A4202D0B6
:100BD00042461A4390464B46194301F0C1F9296831
:100BE000A6420ED020000F000268646813021B0AA0
:100BF0001F40BC465F463A42E4D06345E5D0A6427A
:100C0000F0D143469943296000F0B6FEF0BCBB46E4
:100C1000B246A946A046F8BD10B51C2003F02EF937
:100C2000041E03D0002308C000F0B8F8200010BD57
:100C3000F0B5C6460D00060000B51F00904600F056
:100C400093FE2B0034682340002F0DD1002B28D0B9
:100C50004346002B28D02300AB43336000F08CFECA
:100C6000200080BCB846F0BD9D42F1D0069B002B11
:100C70001AD0434680215A1E9341C9041B061943CA
:100C8000069A2943301D01F029F800F075FE00286E
:100C900024D001F033FA040083010DD52402240A84
:100CA000DEE7069B002B02D100F066FED8E7414646
:100CB0004B1E99410906E3E7FFF792FD34682300D4
:100CC0002B40002F0DD1002B05D04346002B02D026
:100CD0002300AB433360FFF78FFDDFE7FFF774FDC1
:100CE000D7E7AB42F7D1F0E7F0B5DE4657464E46C0
:100CF00045460400E0B583B00D000600019000F009
:100D000033FE2200136824690C361D43370015603A
:100D1000A6422BD0002399468023DB0498468023EB
:100D20005B049B4680239B049A460FE000290BD06E
:100D300059460A4202D04A461A439146514629432F
:100D400001F00EF9019B1D68A7420DD0200029007B
:100D500046460268646813021B0A19403242E5D015
:100D60008B42E5D0A742F1D14B469D43019B1D60CC
:100D700000F002FE280003B0F0BCBB46B246A94614
:100D8000A046F0BD10B5044C13000A00010020007D
:100D900001F0D4FB10BDC046890B001003000833DE
:100DA00001224360C36003610023524282600360FA
:100DB0007047C046002303617047C046030030B54A
:100DC0000D6808336A1C0DD01C005B681A68AA42C3
:100DD000FAD94B60996003688C60013361600861E7
:100DE000036030BD04696368F3E7C0460369416886
:100DF00082688A6051605968814205D00022026190
:100E000018680138186070475A60F7E7F0B5DE4699
:100E10004E4657464546E0B585B00600FFF7E0FC74
:100E20004523F45C64B2002C21DD213B994621333B
:100E30009A46B14409E0AA6BEB6B03969A4245D3FC
:100E4000013CE3B264B2002B11D0B56C002DF2D19D
:100E5000736A002B0BD0484601F01CF80028EFD035
:100E600001F00EF9013CE3B264B2002BEDD1452351
:100E7000FF22F254FFF7C0FCFFF7B2FC4423350019
:100E8000F45C103564B2002C05DC13E0013CE2B2E6
:100E900064B2002A0ED03369002B0BD0280000F07A
:100EA000F9FF0028F2D0013C01F0EAF8E2B264B2A6
:100EB000002AF0D14423FF22F254FFF79DFC05B035
:100EC000F0BCBB46B246A946A046F0BD5346EF5C17
:100ED000AB6B2A6C013398467FB2002A13D12B6882
:100EE0009B46002B2AD04346AB637B1C1CD16B6A0C
:100EF000002BA5D02800243000F0CCFF00289FD084
:100F000001F0BEF8AEE7686803A903F0A5FE6B68C0
:100F10002A6C9B18AA686B609342E4D32B686B60C1
:100F20004346AB637B1CE2D000F032FEB84200D8EF
:100F300086E7534601377FB2EF5481E7A86801F096
:100F4000ABF85B46AB6043460190AB637B1C09D1B9
:100F50006B6A002B0FD1019B002B00D170E701F0D1
:100F60008FF87FE700F014FEB842F4D953460137FA
:100F70007FB2EF54EFE72800243000F08BFF002809
:100F800000D06DE7E7E7C046F0B5C64600B5846C13
:100F900082B0A26BE36B002501909A4204D3280033
:100FA00002B080BCB846F0BD4523226CE65CA76B5E
:100FB00076B2002A1CD0606801A903F04DFE636878
:100FC000226C9B18A2686360934201D3236863601C
:100FD00000250137A763731C15D1636A002BDED08F
:100FE0002000243000F056FF0028D8D00125D6E795
:100FF00023689846002BEBD1A06801F04DF84346DA
:101000000500A360E5E700F0C3FD8642C7D2452393
:10101000013676B2E654C2E7F8B505000E001700B7
:10102000002841D0030C0A0C002B42D1002A30D1F9
:10103000300068430300553336D8543002F01EFFA9
:10104000041E31D00300002E31D12360E5632664F5
:10105000FFF7C6FB216CE36B22684B43D0185B1A89
:101060006260D218E260FF2300254422A0602000C5
:10107000A563A3540132A3541030FFF78FFE200064
:101080002430FFF78BFEFFF7B7FB5023E754A5642E
:101090000BE0131CA9B2B2B24A4380B29BB24343E5
:1010A000120C9B181B0CC3D000242000F8BD543335
:1010B000CBE7002AF8D1081CECE7C046F8B5574644
:1010C000DE464E4645460400E0B592461D000F0040
:1010D000FFF79CFBA26BE36B06009A423BD3002315
:1010E0009846022D09D03000FFF794FB4046F0BC33
:1010F000BB46B246A946A046F8BD4533E35C226C28
:101100005BB29846A36B9B46A36B9946002A2DD0F1
:101110003900E06803F0A0FD226CE36851429B1A9D
:101120002268E360934202D2A3685B18E3604B46F7
:10113000022D51D00133A363434601333DD000F06B
:1011400027FD804504D24346452201335BB2A354B8
:1011500001239846C7E74523E35C226C5BB29846BF
:10116000A36B9B46A36B9946002A11D12768002FD9
:1011700046D04B460133A36343460133DFD1A36C12
:10118000002B33D0022D1BD15B46002B18D0DFE79C
:10119000002DBDD13900606803F05EFD49466368EB
:1011A000226C01319B18A2686360934201D32368CB
:1011B00063604346A1630133C1D1A36C002B15D0FA
:1011C0002000FFF7E1FE0028C2D05346002BBFD01D
:1011D000012352461360BBE7002B00D10123A36318
:1011E00043460133ABD1A36C002BCDD1636A002BF6
:1011F000AED02000243000F04DFE0028E5D1A7E756
:10120000A06800F049FFA760B3E7C046F0B54746C5
:10121000CE46040080B585B088460192FFF7E0FA1B
:10122000A76B002F5ED1019B002B3BD002A800F0E2
:10123000E1FE0023442699464525FFF7DDFA00F03C
:1012400093FBFFF7CDFAA35D5BB2013301D14B46AF
:10125000A355635D5BB2013301D14B466355FFF784
:10126000CBFA01A902A800F0D1FE002822D1FFF795
:10127000B7FAA36B002B2AD1FFF7BEFA2000019921
:10128000243000F0DBFC2000FFF7C0FD00F074FB11
:10129000002824D0FFF7A4FAA76B002F22D1019BCE
:1012A000002BCAD1FFF7A8FA002005B0C0BCB94690
:1012B000B046F0BD2000FFF7A9FD00F05DFBFFF791
:1012C0008FFAA36B002BEDD0FFF796FAE2E7FFF75A
:1012D00093FA2000FFF79AFD00F04EFBDAE7FFF7E4
:1012E00073FAD7E7226C002A08D0E168A36889184E
:1012F000E16099420BD2404603F0AEFC7B1EA36333
:101300002369002B06D1FFF777FA0120CDE721688A
:10131000E160F0E72000103000F0BCFD0028F2D0C2
:10132000FFF752FAEFE7C04610B5002933D0424B21
:101330005A68904200D173E01A68002A2CD0DA680B
:10134000904200D176E09A68002A3ED05A699042D5
:1013500000D16DE01A69002A3DD0DA69904261D06F
:101360009A69002A3DD05A6A904242D01A6A002AED
:1013700043D0DA6A904257D09A6A002A43D05A6B17
:10138000904253D01A6B002A43D0DA6B904245D07A
:101390009A6B002A2AD010BDDA6890424AD05A6966
:1013A000904245D01A00DC69A0423BD05C6AA04262
:1013B0001FD0DC6AA04237D05C6BA04236D0DC6B19
:1013C000A0422BD011605060E5E75A6990422FD0BF
:1013D0001A000832E7E7DA69904223D01A00103287
:1013E000E4E75A6A904204D0144AE2E738331A001C
:1013F000E8E70422D2009A18E4E7DA6A904213D0B0
:101400001A002032D8E75A6B90420FD01A002832C7
:10141000D5E71A00DC6B3032A042D3D10722E9E7CE
:101420000022E7E70322E5E70522E3E70622E1E7FA
:101430000222DFE70122DDE7A81D0020C01D0020F9
:1014400070B5040016000D00FFF7CAF94422A35C32
:101450005BB2013301D10023A3544522A35C5BB2EC
:10146000013301D10023A354FFF7C6F9A36B002B6E
:1014700003D02000FFF7CAFC70BD20003200290015
:10148000243000F08DFCF4E7F0B5C64600B504004A
:10149000FFF7A6F9384A394F1368013313603B68E8
:1014A000002B35D0364BE26A98461B68002B29D0BA
:1014B000344E35490B6801330B606364334B196854
:1014C000914200D21A6093009B189B00F1184A6861
:1014D0009068A26084466546E060201D6860906068
:1014E000F25861610132F250FFF786F943461B68FA
:1014F000002B04D03B68DA6AE36A9A4211D380BCBD
:10150000B846F0BD3B68DB6A9342D1D83C60CFE778
:101510003C601368012B07D0194BE26A9846194EBC
:10152000C7E7FFF751F9EAE7A023164E9B0098465C
:101530003500B04428001435FFF730FC4545F9D19B
:10154000134B98461800FFF729FC124D2800FFF7AF
:1015500025FC1148FFF722FC1048FFF71FFC10483C
:10156000FFF71CFC42460F4B1A600F4BE26A1D60EE
:10157000034B98469DE7C046C0EF0220A4DB002045
:1015800028F10220BCDB0020CCEF0220D0EF0220AB
:10159000C4F00220D8F0022014F1022048F1022009
:1015A00034F10220ACDB0020B4DB0020F8B5CE46DD
:1015B0004746960080B5804630000D00994602F0FF
:1015C0005DFC071E00D187E0702002F057FC041E6E
:1015D00000D17EE07022002103F038FB3200A5210B
:1015E0003800276303F032FB236B043E9E19072368
:1015F0009E43002D4BD034222B78A354002B43D094
:101600006B780132A354002B3ED0AB780132A35447
:10161000002B39D0EB780132A354002B34D02B7936
:101620000132A354002B2FD06B790132A354002B2D
:101630002AD0AB790132A354002B25D0EB790132AB
:10164000A354002B20D02B7A0132A354002B1BD0A3
:101650006B7A0132A354002B16D0AB7A0132A3541B
:10166000002B11D0EB7A0132A354002B0CD02B7B32
:101670000132A354002B07D06B7B0132A354002B03
:1016800002D04223AA7BE25443230022E254089D65
:101690001F2D1CD8201DE562E564FFF78BFB2000A1
:1016A0001830FFF787FB20235B1BA3614A464146A6
:1016B000300024616462FFF777F8099B2060002BFB
:1016C00000D01C602000C0BCB946B046F8BD1F2544
:1016D000E0E7380002F064FC0024F3E7F0B5C6460A
:1016E000124B00B59846124D124F134E14E0FFF7FF
:1016F00077F8FB68DC68201DFFF778FB3368013B57
:1017000033602B68013B2B60FFF776F8206B02F00B
:1017100047FC200002F044FC2B68002BE7D1434635
:101720001B68012BF8D9FFF74FF8F5E7BCDB002069
:10173000C4EF022048F10220C0EF0220F0B5DE46DF
:1017400057464E464546594BE0B51A6883B00132BC
:1017500094461A60002A5FD055490B689C4570D3A7
:10176000544B99461B681B68002B00D198E000235E
:101770009846514B514E9B46514B01919A4639E048
:10178000002159611168013911609A6A002A0ED04E
:10179000D969186A556888604160190018318D420E
:1017A00000D173E00021996211680139116052463D
:1017B000D96A1268914201D9524611608A005218C2
:1017C0009200B518686887689860DF607C60846004
:1017D0005D61B3580133B3505B461B684246DB6A18
:1017E0008B429B415B421A434B461B6890461B68E9
:1017F000002B50D04B461B68DB68DB685A68944569
:1018000046D35A699868D9681C1D81604860506841
:10181000A042B5D15160B3E7264B2A4A1968106837
:101820001860116028490A6801320A601A68126853
:10183000002A25D101231E495B420B600B689C45A1
:101840008ED2002398461C4B1C4E9B465B460120C3
:101850001B681E4AD96A12688B005B189B00F358FC
:101860009842804113005A1E934140421843434618
:10187000184303B0F0BCBB46B246A946A046F0BD33
:101880001B680B49DB681B680B6066E7506089E7E3
:1018900001990A60DAE7019901235B420B60D5E701
:1018A0009846054B054E9B46F6E7C0465CF1022084
:1018B00000F10220ACDB0020A4DB0020BCDB002018
:1018C000D0EF0220B4DB002004F1022068F10220F6
:1018D00010B582B0059C0194049C0094FFF766FE4D
:1018E000002804D0FFF7D0FD012002B010BD012078
:1018F0004042FAE710B586B01022002102A803F09A
:10190000A5F900248022114B11480293114B009439
:1019100001935200002302A9FFF748FE002805D0DA
:10192000FFF7B2FD00F0C4FD012803D00A4B1B688D
:1019300006B010BD72B60122084B52421A60084B25
:101940001860084B1C60FEF795FFEFE749444C45D3
:10195000DD160010F4F002205847021000F10220BA
:1019600028F102205CF10220024A1368013313605F
:101970007047C046C8EF0220F0B5DE4657464E46D7
:101980004546E0B583B0FEF72BFF534C2368013B7F
:1019900023602368002B00D081E0504B1B68002B94
:1019A0007DD04F4B9C461B68002B00D190E04D4BE7
:1019B0004D4D98464D4B019499464D4B9A46002308
:1019C0009B466346DB68DB68D869196A9A6A81605E
:1019D0004860180056681830864200D172E05946B7
:1019E00099621168013911605A699868D968566816
:1019F00081604860181D864262D01168013911600B
:101A00004146DA6A09688A4201D941460A60910072
:101A100089188C002E1971688F689960DF60786072
:101A200088605E612B5901332B514B461B68DB6A82
:101A30009A423FD9534601221A6063461B68002B25
:101A4000BFD12C4B019C1A681268002A3CD01B683D
:101A5000DB681A68284B1A60284E3568002D14D0B0
:101A6000012708E0FFF76AFE002801D053461F60F7
:101A7000013D002D08D02368002BF3D03368013DD1
:101A800001333360002DF6D1356053461B68002BBF
:101A900005D0164B01241B68FEF796FE00E00024DB
:101AA000FEF7AAFE200003B0F0BCBB46B246A94632
:101AB000A046F0BD63461B68002B00D081E7C0E75D
:101AC00051609AE751608AE70B4B013A1A60C3E70D
:101AD000074B9A46C0E7C046C8EF0220C0EF02207D
:101AE00014F10220D0EF0220BCDB0020A4DB002098
:101AF00068F10220ACDB002000F1022010F102208E
:101B0000F0B5C646040000B5002821D0174A136876
:101B100001331360164B00211E68164B164D1F68CB
:101B2000164BA4191B682A6898466D232868D1545F
:101B30000430FFF75BF92B6829685C600431A6422A
:101B40000BD94046FFF73AF9FFF716FF002801D1FD
:101B5000FEF73AFE80BCB846F0BD3800FFF72EF91C
:101B6000074B1A689442EFD21C60EDE7C8EF0220E1
:101B70005CF10220ACDB0020A4DB0020B4DB002001
:101B800000F10220014B18687047C0465CF102204A
:101B9000014B18687047C046C0EF0220064B10B5D5
:101BA0001B68002B02D1FFF7C9FD10BD034A0020BE
:101BB000136801331360F8E7C8EF022010F1022028
:101BC000194B30B51B68002B03D00122174B1A604C
:101BD00030BD164A164C13602268164891008B18C7
:101BE0009B00C558002D07D1143BC3181968143B3E
:101BF000013A0029FAD091008918890045186B68CC
:101C000008315B6840186B60834205D0D9680A4B85
:101C1000196022601B68DBE7EB68D9686B60064BD4
:101C2000196022601B68D3E7C8EF022068F1022028
:101C3000D0EF0220BCDB0020A4DB0020F0B5C646BC
:101C4000204D0C00296800B51831FFF7B7F81E4B7E
:101C500000211E681D4B1F681D4B1B682A68984693
:101C60006D232868D1540430FFF7C0F8631C15D0E9
:101C70002B682968A4195C600431A64205D9404646
:101C8000FFF79CF880BCB846F0BD3800FFF796F827
:101C9000104B1A689442F5D21C60F3E70E4B29688A
:101CA0005A688A6090682968C86029680431416070
:101CB0002968043191602A6853611A6801321A60F8
:101CC000E0E7C046A4DB00205CF10220ACDB002092
:101CD000B4DB002000F1022034F102208023F0B5B3
:101CE000C646294C15001B0622680B4300B59361BC
:101CF000226843689968D3612268116222681832A9
:101D00004A602268002118329A602368986203684A
:101D1000013303601D4B1E681D4B1F681D4B1B6864
:101D2000226898466D232068D1540430FFF75EF88E
:101D30006B1C15D023682168AD195D600431AE427B
:101D400005D94046FFF73AF880BCB846F0BD3800E8
:101D5000FFF734F8104B1A689542F5D21D60F3E78F
:101D60000E4B21685A688A6090682168C8602168B3
:101D700004314160216804319160226853611A681E
:101D800001321A60E0E7C046A4DB00205CF10220CB
:101D9000ACDB0020B4DB002000F1022034F1022093
:101DA000F0B5C646354C43680D00216800B59E6805
:101DB000CB6121680E622168183171602168183189
:101DC0009960236898620368013303602C4B002AF2
:101DD00021D01B682B4B00211B682B4B1B686D23EC
:101DE00022682068D1540430FFF700F8274B21689F
:101DF0005A688A6090682168C8602168043141602F
:101E0000216804319160226853611A6801321A60B6
:101E100080BCB846F0BD1E681A4B1F681A4B1B6881
:101E2000216898466D232068CA540430FEF7DEFF0F
:101E30006B1C15D02368AD195D60AE420AD82168CD
:101E400038000431FEF7BAFF114B1A689542DFD211
:101E50001D60DDE7216840460431FEF7AFFFD7E79C
:101E60002268731E53609E42F4D821683800043102
:101E7000FEF7A4FF064B1B68CAE7C046A4DB0020A0
:101E80005CF10220ACDB0020B4DB002034F1022046
:101E900000F10220C368F0B5DB68D869196A9A6A54
:101EA00081604860180054681830844241D0002195
:101EB0009962116801391160234AD96A1268002AAF
:101EC00029D15A699C68D8681D1DA0604460546877
:101ED000AC4230D01068013810601C4A106888424B
:101EE00025D38A001A485218920086187468A76889
:101EF0009C60DF607D60A5605E6183580133835024
:101F0000144B00201B68DB6A8B4203D20122124B68
:101F100001301A60F0BD114A5468A568DC611D6289
:101F20006860A0609A62136801331360E8E711608B
:101F3000D7E75160BBE75060106801381060034A72
:101F400010688842CDD2F2E7C8EF0220D0EF02201D
:101F5000BCDB0020A4DB002068F1022014F1022089
:101F600080231B06F0B5026944680B438168036057
:101F7000C368A1604C60546884422ED00021016186
:101F800011689868013911605A69D9681D1D81600E
:101F900048605068A84222D0116801391160114A86
:101FA000D96A1068814200D911608A000E4852181F
:101FB000920086187468A7689C60DF607D60A560E9
:101FC0005E61835801338350084B1B68DB6A99427A
:101FD00002D90122064B1A60F0BD5160CEE7516074
:101FE000DAE7C046D0EF0220BCDB0020A4DB0020F3
:101FF00068F10220034B1B680360034B1B684360BE
:102000007047C04604F102205CF10220F0B5C646DC
:1020100000B50E000700FEF7E3FB6D23154C164AD2
:1020200021681568ED5C002D09D000211268D1549B
:102030000124FEF7E1FB200080BCB846F0BD336808
:102040005A1C15D00D487A680568A8463D68454574
:1020500004D08A4202D800233360E9E78D1AAB42EC
:10206000F9D95B1A9B18336003683B6023687B6077
:102070000024DEE75CF10220A4DB002004F1022052
:102080000122014B1A60704768F10220014B186869
:102090007047C046A4DB002070B5041E08D0036D55
:1020A000C16AC26C013B0365914201D0002B01D093
:1020B000002070BD051D2800FEF798FE2023E26C6D
:1020C0009B1AA3610B4BE26219688A4200D91A601D
:1020D000930009499B189B00C81842689668A26043
:1020E000E66075609560CA58606101320120CA508F
:1020F000DFE7C046D0EF0220BCDB0020044B1A68AB
:10210000196890691A682023C96A5B1A936170473D
:10211000A4DB0020F0B55746DE464E464546E0B506
:10212000CE4B8BB09846CE4B06AF0193CD4B9B4622
:10213000CD4B9946CD4B4C4602932823D9469A461F
:10214000C3465B461B681D68002D00D0E1E0FFF729
:102150000BFCFFF717FD019A80461368834200D9F4
:10216000E7E04B461B6810601A6853425A414346E9
:102170002068E91AFFF764F9FFF7FEFB002800D199
:102180002BE110220021380002F060FD002239000E
:102190002068FFF73BF80028D3D03B68002B5ADBC0
:1021A000BD68002DF2D06B69002B02D0281DFEF710
:1021B0001DFEFFF7E7FC019B06001B68984252D307
:1021C000019B1E603B68092BE0D8029A9B00D35804
:1021D0009F465346E85C012352460343AB5479685B
:1021E000AA692D618B186B60B34200D986E0711A21
:1021F0008A4219D8410700D5F2E00123984353469B
:10220000E85428002B6A9847C0E753460122EB5C4C
:1022100013435246AB547B682D619A19AB616A60D7
:10222000B24270D8002BB1D04B46291D1868FEF77A
:10223000C5FDABE753460122EB5C93435246AB54DA
:10224000A4E75346EB5C9A0700D4C2E00122934313
:102250005246AB549AE77B68F968B86898473B6880
:10226000002B93DB9CE75B461B681A68002A3ED074
:102270000395049005940BE0012293435246A35426
:10228000236A200098475B461B681A68002A2BD0F7
:10229000DB68DC681E68231D18009846FEF7A6FD63
:1022A00053460422E35C1A42E6D0A3692461F51880
:1022B000F64365609E420AD32E00F643236A20004F
:1022C0009847A3692461ED186560B342F4D94B4681
:1022D00041461868FEF772FD236A200098475B4666
:1022E0001B681A68002AD3D1039D049E059C4A46A8
:1022F000594612680A604A46136061E7B14202D942
:10230000994200D876E75B46291D1868FEF756FD0E
:102310003CE7DB681D68FFF727FBFFF733FC019AFA
:1023200080461368984204D3106085427AD900220F
:102330001DE75B461B681A68002A3ED0424604949B
:1023400003920BE0012293435246A354236A2000D8
:1023500098475B461B681A68002A2BD0DB68DC684C
:102360001E68231D18009846FEF740FD53460422C0
:10237000E35C1A42E6D0A3692461F518F643656070
:102380009E420AD32E00F643236A20009847A36991
:102390002461ED186560B342F4D94B464146186894
:1023A000FEF70CFD236A200098475B461B681A68FD
:1023B000002AD3D1039A049C90464A465946126893
:1023C0000A604A4613604246019B1A60FFF7D4FA3E
:1023D000D7E6280001F0E4FDD8E6FEF7F5F9D0E6EF
:1023E000A046340007E0E31A9A4214D82B6A28006A
:1023F00098473300AA69D6186E602D61B442F2D2B4
:102400009C4201D2B342F1D95B46291D186844466B
:10241000FEF7D4FCF5E64B46291D18684446FEF746
:10242000CDFCEEE6FFF7A8FA5B461B68DB68DE68CA
:10243000331D18000393FEF7D9FC5346F35C5A078B
:1024400007D4012293435246B3543000336A98476D
:1024500097E622002B004446904610E0A8DB0020BF
:10246000F8F00220B8DB002060F102205C47021087
:10247000E31A9A4214D8336A300098472B00B269A5
:1024800036619D187560A542F2D9A34201D9AB42CD
:10249000F1D95B46039918684446FEF78FFCD4E7F0
:1024A0004B46039918684446FEF788FCCDE7C046C2
:1024B00070B582B0FEF794F9174C2368002B12D048
:1024C000FEF79AF923680020002B0AD0134B8022D4
:1024D00001931F231249009312480023D200FFF7F3
:1024E000F7F902B070BD104E3000FEF757FC0F4DEB
:1024F0002800FEF753FC0E4B00221E600D4B1021EE
:102500000A201D60FEF788FD20600028D8D00A4907
:10251000FEF70AFFD4E7C04660F1022064F1022012
:10252000E4150210152100109CF00220B0F00220EA
:10253000A8DB0020B8DB0020DC15021030B5140049
:102540001A0002230D0085B05B420093054B0190F9
:1025500069461868002302950394FEF7AFFD05B0A5
:1025600030BDC04660F10220F8B5DE464E46574603
:102570004546E0B58B4605000A991800160001F0A3
:1025800045FF0A9B6C001F02324B64199C46A40055
:102590006444636881469F4200D967602B1FDBB2A9
:1025A0009846012B30D9C02380229B01E3181201E9
:1025B0001A60294BAD0059599A4600291BD1730165
:1025C000E026226853401E40802342465B01E31808
:1025D0001E60012A30D9802380229B01E31812015A
:1025E0001A6053464A4667605A51F0BCBB46B24631
:1025F000A946A046F8BD586901F008FF0130430024
:102600001B18033BFDD2DAE75B46012BCBD1C0237D
:1026100003229B01E3181A60023AA3681A42FCD015
:102620007301E0262268AD0053401E4080230A4A11
:102630005B019246E3181E605A462168514003220E
:102640000A401A6001225B469A40A3681A42FCD0F5
:10265000C1E7C0460080004078270020F0B546461C
:102660004F46D646C0B51F00344B44009C46241844
:10267000A4006444636888461600FF2B02D88023B8
:102680005B006360031FDBB29A46012B30D9C02385
:1026900080229B01E31812011A60294B85005959C9
:1026A000994600291BD17301E026226853401E4041
:1026B000802352465B01E3181E60012A30D9802333
:1026C00080229B01E31812011A6080235B00636083
:1026D0004B465F51E0BCBA46B146A846F0BD5869CA
:1026E00001F094FE013043001B18033BFDD2DAE7F2
:1026F0004346012BCBD1C02303229B01E3181A6070
:10270000023AA3681A42FCD07301E02622688500D1
:1027100053401E4080230A4A5B019146E3181E6025
:1027200042462168514003220A401A600123424672
:102730009340A2681342FCD0C1E7C046008000402D
:1027400078270020014B8000C05870477827002070
:102750008023DB051868000F7047C0460FB400B532
:10276000084883B004F0A8F8049B002B07D005A903
:102770001800019103F0D8FE034804F09DF80120F1
:1027800003F0EAFEEC1502106C30021010B501489F
:10279000FFF7E4FFFC150210EFF3108072B6034A56
:1027A0001368002BFCD0BFF35F8F70472C0100D063
:1027B000BFF35F8F0022024B1A6080F310887047CE
:1027C0002C0100D070B5EFF3108C72B60D4D2B6854
:1027D000002BFCD0BFF35F8F0724CB08C618C05C6A
:1027E00001230C40A3401C000440034207D11843BE
:1027F0003070BFF35F8F2C608CF3108870BD1000B9
:10280000FFF7ACFF2C0100D0F8B54746CE4688460E
:1028100080B5EFF3108C72B61C4D2C68002CFCD0E8
:10282000BFF35F8F9A4222D807210126894602E032
:102830000132934218D34D4637001540AF40D408BB
:102840000119045D2742F3D110003C430C70BFF323
:102850005F8F00220D4B1A608CF3108800280EDB6E
:10286000C0BCB946B046F8BD01204042EFE7BFF317
:102870005F8F00232B608CF3108801204042434679
:10288000002BEDD00898FFF769FFC0462C0100D05F
:1028900030B5EFF3108C72B60A4C2368002BFCD0D5
:1028A000BFF35F8F072301220B409A40CD08435DA1
:1028B00093434355BFF35F8F002323608CF310884D
:1028C00030BDC0462C0100D0044A1078431CDBB256
:1028D000172B00D9102313707047C046C91300206E
:1028E00010B5064B064C82B00100009318221F233E
:1028F0002000FFF789FF02B010BDC0460C16021081
:102900006C2700200021044B044ABFF35F8F02C3F1
:102910009342FAD17047C046000100D0800100D038
:10292000094A83009A1810B5146840225440803236
:102930002240064CC000A44663441A60044B9C46E7
:102940006044416010BDC04604C0014004D0014055
:1029500000400140074B8000C3181B68C90092006B
:102960000A435A400C231340034A944660440360D0
:102970007047C04604C0014004D0014080000029D7
:1029800005D0064B9C460223604403607047044B0D
:102990009C46022360440360F8E7C04604E001401F
:1029A00004F00140D0231B061B6830B505005842D7
:1029B00043412F205B4283430E48EC0884460720A6
:1029C00028408000814020000B4D3C306344800053
:1029D000A40041511B19002A05D08022920194467F
:1029E0006344196030BDC02292019446634419606B
:1029F000F8E7C0463041014000400140D023F0B527
:102A0000C6461B0698461B680C4F9B001600FA58DA
:102A100004000D0000B5104209D1290014430D2017
:102A20003200FC5000F0B0F880BCB846F0BD01F0B8
:102A300095FB43461B689B00FA58EEE7F8ED002033
:102A400010B504000D2000F099F9D0231B061B6877
:102A500002499B005A58A2435A5010BDF8ED00207D
:102A60000123D0228340120693629361094A8300B6
:102A70009A1811684022514080320A400649C0002D
:102A80008C4663441A60054B9C46052360444360B2
:102A90007047C04604C0014004D0014000400140DE
:102AA000054B064A1360064A136053609360D36077
:102AB00013615361936170478080808000E400E07F
:102AC00004E400E01F2318401E3B8340002905D08A
:102AD000C021044A490053501360704780220149C5
:102AE0008B50FAE700E100E001228240034B1B68B3
:102AF00013405A1E9341D8B27047C04600E100E02F
:102B000001238340014A13607047C04600E200E0A1
:102B1000064B10309B688000C358054A00209B1A62
:102B20002F229A424041C0B27047C04600ED00E0FB
:102B3000CC13002070B50D00EFF3108672B60F4A6B
:102B40001368002BFCD0BFF35F8F0D4B10309B68D8
:102B500084001B590B4A934203D09D4201D001F0DF
:102B6000FDFA074B9B681D51BFF35F8FBFF35F8F6B
:102B70000022024B1A6086F3108870BD240100D039
:102B800000ED00E0C1010010F0B557464E46DE46AC
:102B90004546E0B585B0060000911700EFF3108BB5
:102BA00072B66A4A1368002BFCD0BFF35F8F002512
:102BB000674B5D579A46002D00DAA9E06B00654C23
:102BC00001935B199B009846A146C1444B4652466F
:102BD0009B7910361370604BB6009B6899590B1B9C
:102BE0002F2B33D95D4B994200D0ACE0019B42467C
:102BF0009C465B4B6544AD0063535A4B0232A218AE
:102C0000043B9B1A1B05584A5B0D651913436B80E7
:102C1000564B0121AB80FF23AB71009BEF71AB6082
:102C20004B460B4319004C4B9B689951BFF35F8F88
:102C3000BFF35F8F0022454B1A608BF3108805B0FD
:102C4000F0BCBB46B246A946A046F0BD01200A0032
:102C50008243D3798C46BB4231D845461300444960
:102C60001B1B5B415943090D3D4B63533D4B0235E3
:102C70006519043B5B1B1B053B4D5B0D2B43AA46B3
:102C80004D466B800425AC465546E044131F444432
:102C90001B1B1B055B0D1D434B46997100999D80C5
:102CA00099604946DF71334B01431360BBE758001D
:102CB000C01880002018C179B9422FD9020006231C
:102CC000D356002BF3DA02932B4B61460393131D6B
:102CD0009A4604235B429C46E14450464B461B1AED
:102CE0001B055B0D9C46204B9571984663464046FC
:102CF00003439380019B5A199200039BA418A3805D
:102D0000029B1C4AA371009B2260E771A3608AE7C3
:102D100001F024FA002553465D574FE7908802934F
:102D20004005131D9A46031561469C464046D4440F
:102D3000634604302018181AE0230005400D1B02DA
:102D400018430390C5E701F009FA4FE7240100D0CA
:102D500090F10220CC13002000ED00E0C101001032
:102D600000A1FFFFFC13002000E0FFFF01BDFFFFFB
:102D7000AAAA00000148804701BD0000F0B5DE4668
:102D800057464E464546E0B50C0083B0EFF3108839
:102D900072B6634A1368002BFCD0BFF35F8F614BA0
:102DA00061499A68030010339F00D55901938D4201
:102DB00043D0A54254D05D4EAA1B2F2A3DD85C4B70
:102DC0009B461B68994601231A009C4682404B464D
:102DD00013401F2299466346024093409A46802240
:102DE0005B4650469850BFF35F8FEFF305839B46D9
:102DF000002B37D0019B5B4501D001F0AFF90123D7
:102E00002A009A439068844208D176E04B005B1810
:102E10009B00F3189868844236D01A000621515658
:102E20000029F3DA844254D04B46002B27D0C0222D
:102E300051463F4B5200995019603A4B9B68DD5107
:102E4000BFF35F8FBFF35F8F0022354B1A6088F3AB
:102E5000108803B0F0BCBB46B246A946A046F0BD00
:102E60000D00EAE72A0063469A4390688442D5D170
:102E700006201056130000280ADA0D0031E08023E6
:102E800051462B4AD150D8E706201856002821DB9E
:102E900042001118890074188B46A1689960E17985
:102EA000D971062161569971002924DBA488F11A91
:102EB000640524155C44091909051E4C490D21437C
:102EC000998013181C4A9B001178F318997110709F
:102ED000AAE713005946002914D1FF31917117490F
:102EE000918015490A789A71154A9B1B5B415A4398
:102EF000120D0A7098E71149E2E7062010561300F8
:102F00000028C5DA0F4A1049D21A083A5002400D7B
:102F1000014399800D4952080A43DA8084E7C0468C
:102F2000240100D000ED00E0C1010010CC1300200E
:102F300000E100E000E0FFFF90F1022001BDFFFF93
:102F4000AAAA00000614002000F0FFFF00F8FFFF0F
:102F500010B58308040003202040FF24054AC00068
:102F60009446844081409B0063441A68A2430A430C
:102F70001A6010BD00E400E070B501240443EFF3D3
:102F80000581EFF3108C72B6214A1368002BFCD038
:102F9000BFF35F8F1F4B05001F4AED1A6D416A4357
:102FA000120D1E4D8900AE6852B27658A6421CD052
:102FB0000621595691421CD012215956914222D0D5
:102FC0001E215956914220D02A215956032491425C
:102FD00010D0134B19781A708171BFF35F8F0022E4
:102FE0000B4B1A608CF3108870BDAB680D4C5C50B5
:102FF000EFE700246100091989005B18FF2199712E
:1030000009499980E5E70124F4E70224F2E7C04684
:10301000240100D0CC130020AAAA000000ED00E09B
:1030200090F10220C101001001BDFFFF1F2110B56A
:10303000091A0248FFF72CFC10BDC0469DF1022082
:1030400010B5084B084C82B0010000930022052304
:103050002000FFF7D9FB002801DB1F23181A02B05C
:1030600010BDC046281602109DF1022070B5040064
:103070000E001500FFF728FC0100200000F006F804
:10308000A680E580BFF35F8F70BDC046024B9C46B3
:10309000614489000160704740000034F8B5124C6B
:1030A000124DAC4212D20126002776422368002B33
:1030B0000DD0FFF709FC01002000FFF7E7FF666075
:1030C0002772BFF35F8F0C34AC42EFD3F8BDFFF72C
:1030D000FBFB01002000FFF7D9FF6660BFF35F8FA5
:1030E0000834AC42E2D3F1E7701A0020801A0020C5
:1030F00010B50400FFF7E8FB01002000FFF7C6FF52
:1031000001235B426360BFF35F8F10BD10B5040005
:10311000FFF7DAFB01002000FFF7B8FF01235B4255
:10312000636000232372BFF35F8F10BD10B50400EE
:103130000120FFF7D5FB034BC3189B002360BFF3AF
:103140005F8F10BD40000034034B9C4661448900F2
:103150000160BFF35F8F704740000034F0B5DE467A
:1031600057464E464546E0B587B0EFF30583032248
:1031700001251A40954091008846A946B34B039219
:103180005C58B34B1D60B34B04934B46B24843634A
:103190000823E55E002D37DAA3881BB2002B00DB85
:1031A000ADE0A379002B00D0EEE00823E05E00281C
:1031B00020DB430062691B18DB00D3189E68DD68C2
:1031C000731C00D111E1A44801004144826A0B69DB
:1031D000B71A9B1A9F4215D30123026A03988340B2
:1031E0001A420FD09C4800F04DFC8D4202DCCCD13D
:1031F0008642CAD940BF07B0F0BCBB46B246A9461A
:10320000A046F0BD0E61EDE762696B0092465B1966
:10321000DB009A4453469E68DF6800F033FC8F421F
:10322000BADC00D103E1002F00DAE8E05246534651
:1032300052691B699346049A934200D1D9E05246E1
:103240000821605E52880004594610439847009058
:1032500001910099019A0B001000134300D1CEE0B8
:1032600013000A00B61A9F41002806DB7A4800F0D6
:1032700009FC009E019F36184F4153469E60DF6057
:1032800000229A5E002A00DA86E7530099186069E6
:10329000C900411802938B68C9689B46B94200DD9A
:1032A0007AE702D1B34200D976E708239C46A444CA
:1032B000059565462281A446029B2C0006E053003A
:1032C0009918C90041188D68C968AB469B18DB0086
:1032D000C318B94206DC00D1B3E01C000023E25E53
:1032E000002AECDA230064469C4653461A80634663
:1032F000059D1D80A3881BB2002B00DA51E72269CF
:10330000EFF3108172B61368002BFCD0BFF35F8F10
:103310000123A7885B42A3803FB22369BFF35F8F7D
:1033200000221A6081F31088002F00DA39E72300A9
:10333000083322009A4666697B00DB19DB00F3182C
:10334000996850468C460824115FDD68002910DB1F
:10335000029306E0AB4244D00023E15E2000002946
:1033600006DB4C006418E4003419E368AB42F1DD7D
:10337000029B078000201F5E1980002FDCDA1400FA
:10338000A379002B00D110E70023A37126000823A6
:10339000E15E08364B1C00D12CE70800A2466569A7
:1033A00002E03E004B1C1AD04B005B18DB00EF180C
:1033B0000A008C46E95E7B881BB2002BF1DA012300
:1033C0005B42DC17BB60FC60824205D05346318013
:1033D0001B893B8053461A8160464B1CE4D15446FE
:1033E000E5E6A3686345B7D9C2E76B1C00D0EAE6FF
:1033F000F8E65B4658461B69984700281BD15346A0
:103400001B8822692381EFF3108372B611680029AB
:10341000FCD0BFF35F8F514662880A8022696580C5
:10342000BFF35F8F0021116083F31088B4E68642FA
:1034300000D8F8E6B0E65B461A685B680092019334
:1034400007E7B34500D848E74CE7C04690DB0020CB
:103450003C7005405D31001000400540074810B544
:103460000268EFF3108172B61368002BFCD0BFF333
:103470005F8FFDF797FA0020002110BD1CEF0020A0
:1034800070B52E4C2569002D04D00A212C48FFF779
:10349000FDFD70BD2B4E0321300000F0D1FAE66037
:1034A000FFF712FA284B03229C46D02322701B06FA
:1034B0001B6801216370254B6044A3600F238000CB
:1034C00020610220638063694942A1801980023132
:1034D000198647311D83585218315A5275325C395A
:1034E00099521832013199521832013199521832D9
:1034F00001319952083518329D52023118329952D1
:103500001832013199521832013199521832013171
:1035100099521832013199521832013199520C4B9B
:103520000C49DC6001303562FFF704FB0121032008
:10353000FFF7C8FA084B1D60A7E7C0461414002027
:103540001CEF00200040054040000034FFFF100049
:1035500090DB00205D310010386005400048704766
:1035600014140020F8B5050018200F0001F016FB18
:10357000041E3ED01821380001F02EFB01216061AD
:10358000280000F06FFAE5600600FFF79DF9D022F1
:10359000267012061268184B62709C460122BBB25C
:1035A00052426044800063819B1820612281A28086
:1035B0006380002F0BD079006269C919C9000F4BD5
:1035C00089181380013318329BB28A42F9D101273E
:1035D000B7400B4BB20030000A492F62D450FFF7BE
:1035E000A9FA01213000FFF76DFA074B9C466544AC
:1035F0002F602000F8BDC04640000034FFFF0000EF
:1036000090DB00205D31001038200000124B70B5B7
:10361000040098421ED001230578C668AB400F4ACB
:103620003362B218136001212800FFF74BFA28001B
:103630000B49FFF7A3FB2900300000F00BFA002133
:103640002278084B60699200D15001F0E7FA20001F
:1036500001F0E4FA70BDC0461414002038300000B8
:103660005D31001090DB0020F8B51F0008AB1B781F
:1036700004001600002B08D100F00CFA32003B00C9
:10368000121A8B41002B00DA52E02269EFF310800E
:1036900072B61368002BFCD0BFF35F8F0223E15E8C
:1036A00063694A005218D2009B182269002936DB50
:1036B0001D886580BFF35F8F0025156080F310883B
:1036C000069A9E60DF601A61079A5A615A88013231
:1036D0005204520C101C002A1FD082B258800804D9
:1036E00010432669EFF3108772B63268002AFCD0C7
:1036F000BFF35F8FA2881A80A1802369BFF35F8F19
:1037000000221A6087F310880A4923788C46013218
:103710009A40E36863441A60F8BD0120DDE7BFF317
:103720005F8F0023136080F3108801204042F3E78D
:103730000020F1E73C20000070B501000469EFF3C0
:10374000108C72B620680028FCD0BFF35F8F022077
:103750000D5E4C6968004019C00024180869002DEE
:1037600036DB26884E80BFF35F8F002606608CF321
:103770001088E36063880498013320615B04059836
:103780005B0CA26060611A1C002B1FD093B228044E
:10379000628018430A69EFF3108C72B61368002B2D
:1037A000FCD0BFF35F8F8B8823808D800B69BFF3C4
:1037B0005F8F00221A608CF310880B7801329A40D8
:1037C000CB6808498C4663441A6070BD0122DDE76E
:1037D000BFF35F8F002303608CF310880120404209
:1037E000F3E7C0463C20000010B543890A14934219
:1037F0001ADD53009B184269DB00D3180469EFF30C
:10380000108C72B62268002AFCD0BFF35F8F5A88F2
:10381000090494B2090C8A4208D00369BFF35F8F90
:1038200000221A608CF31088002010BD8022120242
:1038300014435C80012302698371BFF35F8F002111
:1038400011608CF31088044902788C469340C2685A
:10385000012062441360E8E73C2000004078704794
:10386000F0B54746CE46060080B596246442E5177B
:103870000F00A4197D4183B08D4215D812D000F0FD
:1038800009F922002B00121A8B41002B16DC002BA9
:1038900040D03000390000F03BF903B0C0BCB9465D
:1038A000B046F0BD8442EAD90024002500F0F2F8C9
:1038B00022002B00121A8B41002BE8DD00F0EAF801
:1038C00022002B00121A8B41002B0ADB00230193EC
:1038D000124B2200009312482B00FFF72DFF0130FE
:1038E000D7D0A846A1460F4D0F4C6B6A984504D817
:1038F000AA6A4A45CDD29845CBD12268EFF3108110
:1039000072B61368002BFCD0BFF35F8F2000FDF769
:1039100015F8EAE7002ABCD0D0E7C0465D340010B5
:1039200014140020004005401CEF0020F0B557465D
:103930004E46DE464546E0B506000F0085B0EFF383
:10394000058399468B46002B12D0384900204B6ADC
:10395000BB4206D38A6ADB1B591E8B41B2424041EF
:10396000184305B0F0BCBB46B246A946A046F0BD20
:103970002F4B9A46DB68984653461B784046039384
:1039800000F080F84246039B040004339B009B58E0
:103990000D001B1A39003000001BA941894510DCBD
:1039A0000DD020BF214A0020536A5B45D9D3926ACB
:1039B000DB1B591E8B41B24240411843D1E7834281
:1039C000EFD900F067F832003B00121A8B41002B50
:1039D0001ADB00230193174B3200009350463B0043
:1039E000FFF7AAFE011E0FDD104B5A6A5A451BD382
:1039F0009B6AB34216D35046FFF7F6FE0B4A0020EF
:103A0000536A5B45ADD3D2E7084A0020536A5B4551
:103A1000A7D30020926ADB1BB24240415A1E934159
:103A200018439EE75A45E6D120BFE4E70040054031
:103A3000141400205D340010004870470040054019
:103A400010B5024A0248FEF7BDFE10BD4416021032
:103A50007027002010B50248FEF71AFF10BDC046BF
:103A60007027002000B5054B83B00093002203238C
:103A70000348FEF7C9FE03B000BDC0466816021039
:103A8000702700200300416A0A00986A596A8A4236
:103A9000FAD17047034B596A0A00986A596A9142F1
:103AA000FAD170470040054070B504000D00174A78
:103AB000536A1900966A536A8B42FAD13000190092
:103AC00024184D41AB4216D813D0104B2A005B6A24
:103AD0009D4203D90D494B6A9342FCD3934207D1CF
:103AE0000A4A02E0516A994202D1916AA142F9D38D
:103AF00070BDA642E9D9054B5B6A1C005A1CEFD089
:103B0000012201246442E5175242E3E700400540E8
:103B1000064A536A9942FCD807D1044B02E05A6A1C
:103B2000914202D19A6A9042F9D87047004005400C
:103B3000F8B5040021481E0017000D0000F066FCD7
:103B40000100380000F062FC069B36041B031E4394
:103B50002368002B20DB1A4B1A49E3185A1E9341A5
:103B60008022920194465B421B0B174A1B0363445D
:103B70001360164A13601F000A689743FBD1144B69
:103B80002560E2182123A06013602368002BFCDA73
:103B90000823E6601360F8BD3F2322681340AB4260
:103BA000D9D1A3681B051B0D8342D4D1EE22E36853
:103BB000D2021340B342CED1EDE7C046001BB7009E
:103BC0000040FDBF08C0004000E0004000F00040A1
:103BD0000430000010B580241C4BE4051C60002854
:103BE0001AD001231A4C18431A4BDC611A4C44407A
:103BF0001C62596298628021144BC90519601748EC
:103C000017490860E021C9041960002A07D1802201
:103C1000144B12061A6010BD0E4BD861EBE753012E
:103C20009B1A9B009A18802312015B049A4209D2C6
:103C300013000D490B60074B5A608022094BD205D7
:103C40001A60E8E7094B1A00F3E7C04600B00540E8
:103C5000D3C007B0008005402D3FF84FFCFF0100A6
:103C60000820014000A0054088410020FFFFFF0020
:103C70008023024A9B000B43D362704700800540BB
:103C8000002310B50100988A1B8B984710BDC046D1
:103C9000162310B50100188802331B88984710BD01
:103CA000F8B54746CE4680B50F1E18D01423994666
:103CB000043304000025012698464B4618884346E5
:103CC00021681B88984701C4431E9841013506406E
:103CD000AF42F2D13000C0BCB946B046F8BD0126B3
:103CE000F8E7C046002370B504000D00988A054926
:103CF0001B8B984703000020002C01DB0130A04003
:103D00002900984755420000042040427047C046B1
:103D100010B5002383F31088FA22002392000021BB
:103D200000F0EEFE00F086F8434258410123404285
:103D3000984310BD10B5041E01D000F055F82000C6
:103D400010BDC046004870472C140020F8B506008E
:103D50000F001500FFF7F6FF041E0AD04368280085
:103D60009847002804D13800B0472800A368984736
:103D7000F8BD04204042FBE7AA23064A1B0113605A
:103D80008D235B00D3600449044B19605368002BFA
:103D9000FCDA70470040024000B0FA0000600240C8
:103DA000F8B50E00EFF3108772B60C4B84009B68D9
:103DB0001D59A94204D00A4B9D420AD200F0CEF907
:103DC000064B9B681E51BFF35F8F87F31088280056
:103DD000F8BD044B9D42F3D3F0E7C04600ED00E090
:103DE000C0010010D401001070B5FEF7D5FC04002E
:103DF0000D480368002B13D02000FEF7D9FCD02318
:103E00001B061C68094925000F352800FEF792FEA5
:103E100028000121FEF756FE0122054B1A5570BD00
:103E2000FFF766F9E8E7C0468C41002085040020D2
:103E30009441002070B504000D00FFF72BFE220016
:103E40002B0012184B41002B02DA0122084B524280
:103E5000084D28001DF0F4FA041E07D0064A136826
:103E60000133136040BF28001DF08AFA200070BDA6
:103E7000FFFFFF7F8C41002038140020F0B5C646BC
:103E8000431E00B50A3314D8072304001A0008346F
:103E9000224023426CD01300093BA34209D31030C7
:103EA000841AFDF761FD374A27001568002D28D1D7
:103EB0000EE0FDF759FD334A1368002B06D00025AC
:103EC000FDF75AFD280080BCB846F0BD002700244D
:103ED00007202D4D2B002900284245D100202B4ED4
:103EE000706031602A4EB44607266544B5431560BC
:103EF000284AEB1A1360284A6860286013604B60F8
:103F00000D60002FDBDD244F3E68A642D7D31F484B
:103F1000036804E01A68002A04D0180013005968E6
:103F2000A142F7D3AB42CAD01D001A6808359046AB
:103F300002600A1B102A05D919194A6042460A6014
:103F400001602100134A761A10683E60864200D252
:103F50001660802212060A435A6000221A600F4A35
:103F6000136801331360ABE7EB1D83431900B5E71A
:103F7000FDF7FAFC034A27001568002DA8D0002C95
:103F8000C1DA9CE7B0DB0020A0EF00202CF102207A
:103F9000F8FF0100FCF00220F0F0022008F10220FE
:103FA00070B5002804D0083843680400002B00DBFB
:103FB00070BD0268002AFBD15B005B08436005000E
:103FC000FDF7D2FC184A616813685B181360174B41
:103FD0001A001B689C42FBD850681618B4420DD0DA
:103FE000601883421AD02360AA4200D01560104A9C
:103FF000136801331360FDF7BFFCD9E709185018A7
:1040000051608342F3D10B48150000689842EED00E
:1040100058681B68411869602B60E5E7054800682F
:104020008342F5D1DFE7C046F0F002202CF10220F8
:104030000CF10220B0DB0020F8B5040006200D00D2
:10404000FEF780FB002844D0374B3849E3185A1E4E
:1040500093418022120494465B429B0D344A9B0597
:1040600063441360334A136018000A689043FBD11D
:104070002D4B314AE31859424B4180215B004900E6
:1040800006209952FEF75EFB2900C00000F0BEF941
:104090000130C3091ED1402701226262A362266B50
:1040A000F30722D4E36A254B0620E51800232B6092
:1040B0002663FEF747FB3900800000F0A7F9702364
:1040C000E26A5A400E3313402B601D4B23630323D7
:1040D000A364F8BD1B4A93421ED900231A4A1B4F02
:1040E0006262A362266BF307DCD5194B144AE3180E
:1040F0001A60656AA36A0620AD01ED18FEF722FB7F
:10410000144900F083F9AD020100280000F07EF9A7
:104110000021FFF7C9FCC5E74006800E9F011A0089
:104120003F180300B9E7C0460080FCBF08C000404C
:1041300000E0004000F0004098EF00202C1000004C
:1041400001030000FEFF0000FFFF0000C0FF3F0072
:10415000303000004E0E00007047C04610B50148D8
:10416000FEF7FCFA7C16021070B5074D074EB542FB
:1041700009D20024013E761BB60808CD98472300DB
:104180000134B342F9D170BDC0140210FC14021006
:10419000054B064A06491A60064A074B1A6010008A
:1041A0000B689843FBD1704700E00040BFCDFBFE99
:1041B00008C00040FE7F3C0000F00040044BDB6C78
:1041C000002B03D18022034BD2021A607047C046F5
:1041D000000011504C201150044A054B1A60054A4A
:1041E0001368DB018033FBD17047C046FFFFFF013E
:1041F00000F0004008C000404022034B9A675A6715
:104200001A67DA667047C04600F0014010B5FEF745
:1042100079FB10BDF8B52749274C284D641AA61024
:104220003200302E00D930222800920000F014FD18
:10423000BC2C3BD830202F232C196407204A801B2C
:10424000E40F9B1B052B16D93700002C02D0B300BE
:10425000771CEA50001B33199B004108EB18C9007A
:10426000C9181A605A6008339942FAD101230342EF
:104270001CD09843C619B300EA50731C2F2E15D0DA
:104280009B00EA50B31C2E2E10D09B00EA50F31C6A
:104290002D2E0BD09B00EA50331D2C2E06D09B00F8
:1042A000EA50731D2B2E01D09B00EA50054B9D60F8
:1042B000F8BDC04600010010C00100100000002041
:1042C000C101001000ED00E0002310B5294C82B0C0
:1042D000A367FFF751FD0122274B1A60636C012B86
:1042E000FCD10322254B1A60224A936B012BFCD18F
:1042F000013300930121224A22480433FFF718FCBE
:10430000052301210093204A2048FFF711FC0022D9
:10431000022104201E4BFEF7A1F9002201210520F5
:104320001C4BFEF79BF90022002107201A4BFEF7D9
:1043300095F9002200210820174BFEF78FF9802302
:10434000DB000093002200210920134BFEF70CF93B
:104350000022104B00210620FEF780F90420FEF712
:10436000F1F90E4900F052F801000020FFF780FC3F
:1043700002B010BD008000403CB0004030B00040B2
:10438000002F685900800240008C864700C0024020
:10439000001BB70040597307006CDC0240420F005D
:1043A00001480421014B184740140020A13C001093
:1043B000014B9B681847000040140020124A936F7D
:1043C0009B0815D29066D166002905D0FFE7FFE76C
:1043D000FFE7516F106F704704B580210906C217BF
:1043E0005140002800D0C8431CF0F2FF002104BD5A
:1043F000F0B5146E556E576F166FFFF7E3FF146636
:10440000556657671667F0BD000000D0114A936FDC
:104410009B0813D210665166002905D0FFE7FFE71D
:10442000FFE7516F106F704704B5002801D00020DE
:10443000C0431CF0CDFF002104BDC046F0B5146E92
:10444000556E576F166FFFF7E5FF14665566576791
:104450001667F0BD000000D094464A4A926F920859
:10446000624601D228E0C046F0B5464E346E756E05
:10447000776F366F00F020F89446424A146655660E
:10448000576716676246F0BD94463E4A926F92089F
:10449000624601D254E0C046F0B53A4E346E756EB5
:1044A000776F366F00F04CF89446364A14665566BE
:1044B000576716676246F0BD002B24DB11D0002938
:1044C0003EDA00B5C943404200D1013100F038F86E
:1044D000C943404200D10131DB43524200D1013394
:1044E00000BD002AEBD1002801D1002905D0002011
:1044F000C90FC90701D1C043410800B51CF050FFE6
:104500000022002300BD00B500290ADBDB43524234
:1045100000D1013300F014F8C943404200D1013109
:1045200000BDC943404200D10131DB43524200D1BA
:10453000013300F005F8DB43524200D1013300BDE6
:10454000002923D1002B18D1002A0CD0BC460D4FD6
:1045500038667A6600210023FFE7FFE7FFE77A6FFE
:10456000386F67467047002801D00748010000B542
:104570001CF016FF0022002300BD02000B000020EB
:1045800000217047000000D0FFFFFFFF002B00D08C
:10459000BFE0130C28D1002AE7D080B4114F396650
:1045A0007A66FFE7FFE730B4040C7B6F396F1B04BA
:1045B00023433B667A66FFE7FFE7FFE7C04684B226
:1045C0007B6F3D6F1B0423433B667A66FFE7FFE783
:1045D000C04600232C042D0C7A6F386F00196941F6
:1045E000B0BC7047000000D0F0B594460025140E12
:1045F00001D112020835140F01D112010435940FB4
:1046000001D192000235D40F01D152000135D40BF3
:104610000134254F7C66254C3C660E0C93B2FFE7B7
:10462000FFE7FFE73C6F6643360C7703BE467343F4
:10463000DF0B5B04C01AB941130C7343DB18C91AB2
:10464000CE086643360CB64493B273431F0F1B016A
:10465000C01AB941130C73431F0B1B05C01AB94193
:10466000860D8F023E436643360C092D24DB520A29
:104670007243801A7703460A6643360C16235B1B87
:10468000DE40DF40BF1964466643821B7046043536
:1046900006330100D940A840C01900D30131A2421D
:1046A00006D20023F0BD0000000000D0FFFFFFFF96
:1046B000121B0130F3D3F1E709277F1BFE4064464C
:1046C000A2B27243801A00D20139220C7243130C39
:1046D0001204821A99410B00704604351337010009
:1046E000F940A840801900D30131002B02D1A24229
:1046F0000AD2F0BD013000D30131121BFAD2013BC6
:10470000F8D1A24200D2F0BD013000D30131121B1A
:10471000F7E7F0B51C0C00D080E00CB400251C0AB3
:1047200004D11B02160E3343120208351C0B04D1B0
:104730001B01160F3343120104359C0B04D19B005F
:10474000960F334392000235DC0B02D192185B4185
:1047500001351C00971864410134464F7C66464C75
:104760003C660E0CFFE7FFE7FFE7C0463C6F664381
:10477000360C7703BE4697B27743C01B00D201398F
:10478000C01B00D201399FB27743C91BC91B170C4C
:1047900077437E04FF0B801BB941CE086643360C7D
:1047A0000C2D33DBB644120B1F053A431B0B97B29B
:1047B0007743C01B00D201399FB27743C91B170C46
:1047C00077433E043F0C801BB941860D8F023E4368
:1047D000664329277F1BFE400C3D7746AF40BF193B
:1047E00030BCA2B2ABB272437343801A9941220C1F
:1047F0007243130C1204801A994102000B00013716
:10480000001BA941F9D2781E0021F0BD0C277F1BA7
:10481000FE4077467F0BAF40FF19E0E700245D1CA8
:1048200007D0144F7D663966FFE7FFE7FFE7FFE734
:104830003C6F95B29EB265436643401BB141150C77
:104840001E0C6543664336042F0C3E432D04401B6B
:10485000B141994204D202000B0020000021F0BDBA
:1048600001D19042F7D3801A994101349942F2D391
:10487000F6E70000000000D0FFFFFFFF4840414086
:10488000484018B4134B5B68019308BD18B4114B32
:104890001B68019308BD94460F4A926F920805D297
:1048A000624618B40B4BDB68019308BD0A4AF0B5A9
:1048B000146E556E576F166F6246FFF7F2FF064A89
:1048C0001466556657671667F0BD18B4014B9B68B0
:1048D000019308BDA81C0020000000D0FFB5504087
:1048E0004240504059404B40594000E0FFB5154F01
:1048F0004C00640D03D0BC4204D10C0314D800203A
:10490000090D09055C00640D03D0BC4204D11C03F1
:104910000AD800221B0D1B0501264B4009D44B4031
:1049200003D58B4200D18242FFBD9942FCD1904217
:10493000FFBD0B43DB1803431343F5D0C9434918AC
:10494000FFBD0000FF07000000B5FFF7CFFF80416B
:1049500000BDC04600B5FFF7C9FF01D9002000BD6A
:10496000012000BD00B5FFF7B9FF01D9002000BD4F
:10497000012000BD00B5FFF7B1FF804100BD01205F
:1049800040054A00121804D85A00121801D8002015
:1049900070470120704700000021002805D17047B2
:1049A000C1174840401AFAD0C90713B5064B1B6817
:1049B00098470CBC441CA2401005120B0349091B6C
:1049C00009051943114310BD18EE00201F04000013
:1049D00010B54C00620D8023D218DB00D21A5B05A3
:1049E0007E2A10DD9E3A13DACC17090349081943D1
:1049F0005242D140640001341532202A05DAD040F9
:104A00000843604310BD002010BD0846604310BD40
:104A1000C80FC018013810BD18B4024B5B6A01936F
:104A200008BD0000A81C002010B50148FDF796FE47
:104A300088160210132370B51D78012D19D014DDCE
:104A40001D48FFF725F906001C48FFF721F91C4C0B
:104A500080223100200000F0FFF8022D06D0194816
:104A6000FFF70EF9184B186070BD154C174BA36477
:104A7000F5E7174B124C23606360A360E36023618A
:104A80006361A361E36123626362A362E362236300
:104A90006363A363E36323646364A364E3642365E0
:104AA0006365A365E36523666366A366E3662367C0
:104AB0006367A367E367D9E75344000053460000E8
:104AC000A81C00204C33000018EE0020D54A00102E
:104AD000294A001007B5604601880A0A0230DF2A19
:104AE000FAD1C9B2820804D3028840880004104376
:104AF00000E00068014A5050039007BDA81C002048
:104B000051434343C9188C46110C83B24B4310B434
:104B1000040C614392B280B2504362431C041B0CEC
:104B2000001910BC59411304120CC01851416144C2
:104B30007047000010B50148FDF710FE80320210EA
:104B4000132310B510481C78FFF7A2F80100012CC0
:104B50000AD003DD80220D4800F07EF80C48FFF7F4
:104B60008FF80C4B186010BD084C5422200000F048
:104B700073F82200084980322368002B00D121609D
:104B800004349442F8D1E9E7534600001CEE0020BB
:104B90004C33000018EE0020354B001070B50400B7
:104BA0000A4E30001CF074FC20001BF07FFD050055
:104BB00030001CF0E5FB002D05D0054B2C199C4264
:104BC00001D8280070BD0348FDF7C8FD701A002009
:104BD00000000420A0160210F8B506000C000C4FCF
:104BE00038001CF055FC210030001BF0FFFC0500D4
:104BF00038001CF0C5FB7443002D05D0054B2C1963
:104C00009C4201D82800F8BD0348FDF7A7FDC04627
:104C1000701A002000000420A016021070B50400D5
:104C2000054D28001CF034FC20001BF049FD280035
:104C30001CF0A6FB70BDC046701A0020014804217C
:104C4000014B184750140020A13C0010014B1B6879
:104C50001847000050140020014B5B681847000003
:104C6000501400207047C046F8B55746DE464E4601
:104C70004546E0B599460A9B07009A460D9B884633
:104C800093460B9C9B073BD10C9B9C423DD21E1B29
:104C90000B9415000C005E442A004B4601352100A0
:104CA0002020B847B542F7D1A0460B9C002C20D05D
:104CB000454636195346321B013C185D29004B46C8
:104CC000B847002CF6D12B00350098460D9B9B076A
:104CD0000FD55B46EC1A0C9BA3420AD94646984670
:104CE0002A004B46310020200134B84701354445A5
:104CF000F6D32800F0BCBB46B246A946A046F8BD94
:104D000016001500002CD3D1E0E716001500002C8A
:104D1000CED1EEE7F0B54546DE4657464E46E0B505
:104D200085B09C4610AB1B78149F934698460F9C09
:104D3000129E139DBB074CD4002D42D1B44248D2E1
:104D400001233B4099460E9B013B9A46302304E0E9
:104D5000524601341355A64201D9202CF8D14B46B6
:104D6000002B00D183E00E9B013B99463023A542E6
:104D700005D82EE04A4601341355AC4229D0202CE8
:104D8000F8D1FB060CD57B0554D4A64263D0A542CE
:104D900061D0119B102B50D0022B57D0202C32D138
:104DA000202301930E9B5A46009303976346029576
:104DB000FFF75AFF05B0F0BCBB46B246A946A04675
:104DC000F0BD01233B40994601233B422AD1B44226
:104DD000B9D3FB061CD57B05DBD4002CD5D1119BA8
:104DE000102B5BD0119B022B6BD0302301240E9A29
:104DF00013704346002B10D17B073ED52B260E9A0D
:104E0000631C1655CDE72300013430260E9AD65484
:104E1000202CC5D04346002BEED02D260E9A631CC5
:104E20001655BEE74346002B2FD0013DB44200D2B9
:104E300089E798E7119B102BB2D1BB0637D5202C00
:104E4000AED058230E9A13550134A7E7202CA7D0D3
:104E50002300013407E0631E012CC0D0119A102AF0
:104E600031D0022AD1D162260E9AD65496E7FB069B
:104E7000CED57B0500D488E78BE723003E0790D58D
:104E800020260E9A013316558BE70C233B405A1E01
:104E90009341ED1AB44200D255E764E7BB060ED445
:104EA00078230E9A0224137030235370A1E7202C2C
:104EB00000D175E778230E9A135501346EE7582315
:104EC000EFE76033EDE70E9AA61E91464E44BA0610
:104ED00002D55822327098E77822327095E7C046A2
:104EE00010B5002800D110BD01F09CFCFBE7C046C6
:104EF0000B0010B5002802D049681B68984710BD08
:104F0000F0B55746DE464E464546E0B595B0834679
:104F10000F00924698461E9A1F9B10001900209E73
:104F2000FFF72DFD002800D0EAE11E981F9901220D
:104F3000C54B5242FFF708FD002800D014E11E982F
:104F40001F990122C14B5242FFF714FD002800D0E7
:104F5000E9E01E981F990022BD4BFFF70BFD0028CA
:104F600000D0C8E01E981F990022BA4BFFF7ECFC56
:104F7000002800D0BFE01E981F9900220023FFF7F1
:104F8000E3FC002800D0E4E000230B93229B5B05A8
:104F900000D406260024302307E0172106AA013496
:104FA00052181355013E202C01D0092EF5D81E9819
:104FB0001F99FFF70DFDA84BF2009B181A685B685C
:104FC000050008920993FFF7EBFC02000B001E9806
:104FD0001F99FFF756FC089A099BFFF776FC06908D
:104FE0000791FFF719FD8146FFF7D6FC02000B0081
:104FF00006980799FFF745FC0022984B0690079109
:10500000FFF7B8FC002800D10DE101239C46E144E4
:105010004846FFF7C1FC02000B0008980999FFF70A
:1050200099FC002802D0002399460135002E00D1BA
:10503000D9E006954D46B94614E006AA94461723D2
:105040000A216344280001341F19FFF7DFF93031CA
:10505000397028000A21013EFFF7D8F9092D00D840
:1050600017E10500202CE8D14F46069D20240CAE08
:1050700006AA17239446634499465B46B3460693B3
:105080000FE04B4628000A210134E618FFF796F995
:105090003031280031700A21FFF790F9051E00D148
:1050A000E4E0202CEDD1069B5E469B460323229A2A
:1050B0001340012B18D1219B002B15D00B9B002BEB
:1050C00000D1FDE0219B013B2193202B0CD9302303
:1050D000219A07E0172006A9013409180B559442BC
:1050E00000D3CCE0202CF5D1229B01940393219B8B
:1050F0000096029322E0229B52460493219B3900A2
:10510000039358461E9B1F9C0296009301944346AE
:1051100000F04AF90400200015B0F0BCBB46B246CE
:10512000A946A046F0BD229B5B070FD403224C4B3F
:10513000229901920391219900930291434652468C
:1051400039005846FFF790FD0400E4E70422454B80
:10515000EEE71E9A1F9B00200021FFF792FB012320
:105160001E901F910B9311E7229B54469B0711D170
:10517000219B042B0ED9219B55469C465E46043C40
:1051800064442A004346013539002020B047A54237
:10519000F7D1B346344D26002B1F99465B46A346F4
:1051A0001C003200E87843463900013DA047013633
:1051B0004D45F6D123005C469B46229B04349B0759
:1051C000A9D55346219AE31A9A42A4D95E461500FE
:1051D0002200434639002020B04753460134E31AE9
:1051E0009D42F5D897E72800FFF7DAFB02000B0095
:1051F0001E981F99FFF745FB0022184B0690079158
:10520000FFF7A2FB0CAE002800D031E70698079903
:105210000022124BFFF7AEFB002800D028E7012345
:1052200001359D4324E70022069807990B4BFFF7B1
:105230008BFB002800D0F9E64B46002B5CD1012304
:105240009C46E144F2E6C046FFFFEFFFFFFFEF7F21
:1052500065CDCD4165CDCDC1904902100000E03F44
:10526000F8160210F016021000170210069B5E4698
:105270009B460323229A1340012B00D181E0202C6E
:1052800000D131E70B9B002B27D02D233355013460
:105290002AE74F46069D202C00D1E7E6302233193D
:1052A00007E0172006A9013409180A55202C00D15F
:1052B000DCE6A342F5D12E220CAE0134F254D7E63F
:1052C0000C23229A134257D0219B013B2193A342E6
:1052D00000D9FCE6202C00D106E7229B5B0703D512
:1052E0002B2333550134FFE6229B1B0700D4FBE63A
:1052F000202333550134F7E6DB0700D496E69EE71A
:10530000229B55469B0711D1219B032B0ED9219B34
:1053100054469C465E46033D6544220043460134A4
:1053200039002020B047AC42F7D1B346B9465F46BA
:105330001C4EEC1C2A00B078434649460135B8475C
:10534000013EAC42F6D1229BBB464F469B0700D4A0
:10535000E1E65346219AE31A9A4200D8DBE65E461C
:1053600015002200434639002020B047534601343F
:10537000E31AAB42F5D3CEE6219BA34200D9A6E6C1
:10538000B2E6219B002B00D179E70B9B002B97D035
:10539000219B013B21939C4200D298E6202C00D017
:1053A00073E7A1E6FC160210F0B5DE4657464E46FE
:1053B0004546E0B599B081468B4692469846229A7A
:1053C000239B10001900FFF7DAFA002800D0CAE08A
:1053D000229823990122824B5242FFF7CBFA0028F0
:1053E00000D0C0E02298239901227E4B5242FFF761
:1053F000ABFA002800D0B6E02298239900220023BF
:10540000FFF7A2FA002800D0C9E1229B239C089351
:105410000994089809998023269ADB001A400D9276
:105420008022269C1201144022000B94269C070027
:105430000E001C4200D0ADE00B00034300D0D5E0CD
:10544000002A00D00AE222000633249302231340EC
:105450000C930223134200D002E2259B042B00D2BE
:105460000FE2043B0B93002304250A9300222298A9
:1054700023990023FFF768FA002800D003E25A4B73
:10548000269A134004930B9B0393249B0293089B3F
:10549000099C009301945946434652464846FFF7FB
:1054A0002FFD02002020269B1F27034059424B411D
:1054B0005B421840531C0893594643464530C84741
:1054C0000A9AD317D4185C40D30F0A936B1E0B9320
:1054D00008AB9C460025674401E0202D0FD020003A
:1054E0000A21FEF793FF01357E193031317020001B
:1054F0000A21FEF78BFF26000400092EEDD80523B4
:1055000006930B9B59460593002304930A33039398
:105510000A9B4846029310AB0093089A43460195B4
:10552000FFF7F8FB0C9B002B2DD05346C41A259B8C
:10553000A34228D94D465F4681461E005346390096
:105540001A19202043460134A847A642F6D85346EC
:1055500048462599C21A01320023914200D386E1C0
:10556000013018180FE0269B0493259B0393249B7E
:105570000293229B239C0093019443465246594632
:105580004846FFF7BDFC19B0F0BCBB46B246A94681
:10559000A046F0BD01432BD10B9B2200002B00D174
:1055A00054E700230A93249B0A9A0024934200DDC7
:1055B00085E12298239900220023FFF7C5F90028EE
:1055C00000D035E1269B084A02941A408023DB0074
:1055D00013430493259B0393089B099CCBE7C04688
:1055E000FFFFEF7FFFFFEFFFFFF7FFFF062324938F
:1055F000B44B70009C46400D6044FFF7D1F9B24AAD
:10560000B24BFFF762F9B24AB24BFFF73FF93603EC
:10561000B14B360B334304000D0038001900002253
:10562000AE4BFFF72EF9AE4AAE4BFFF74EF9020034
:105630000B0020002900FFF729F9FFF7C9F90A90AC
:10564000FFF7AEF9A84AA94B04000D00FFF73DF99A
:105650000022A74BFFF71AF9FFF7BAF9A54A06008F
:10566000A54B20002900FFF730F9040030000D00A1
:105670000C96FFF795F9A14AA14BFFF726F9020016
:105680000B0020002900FFF7FCF802000B000600C9
:105690000F00FFF71AF9320004000D003B00300044
:1056A0003900FFF7F3F800220E900F91954B200080
:1056B0002900FFF7F0F80022934BFFF7E7F802000C
:1056C0000B0020002900FFF7E6F800228F4BFFF7C0
:1056D000DDF802000B0020002900FFF7DCF80D00C8
:1056E0008021040032003B000020C905FFF7C9F803
:1056F00002000B0020002900FFF7C8F802000B0091
:105700000E980F99FFF7C7F80022734BFFF7BEF80A
:105710007F4B0C9C9C46644400222305FFF7D5F880
:1057200006000F0002000B0008980999FFF70CF91A
:1057300000280AD00A9B3000013B39000A9300225E
:10574000714BFFF7A8F806000F000A9A3300633286
:105750003900C62A12D802222698042510400B9A36
:105760000C90002A25D1259B042B05D9002800D0B8
:10577000A1E0259B043B0B93042541E002222698DF
:1057800010400B9A0C90002A12D1259B052B76D93C
:10579000002872D1259B0525053B0B9334E0802220
:1057A00012069446229B0893239B6344099330E698
:1057B00005250B4300D1F6E608980999554A564B42
:1057C000FFF7D0F8002808D0089809990022534B19
:1057D000FFF7BAF8002800D0E5E6249B002B1CD088
:1057E0000D9B002B19D0249B013B2493259BAB429E
:1057F00004D90C9B002B5AD002230C9300230B934B
:105800000A9B002B00D131E60898099932003B0031
:10581000FFF741F80890099128E6259BAB42EDD9A6
:105820000C9B002B43D000230B9302330C93E7E730
:105830008020269B3A4A00061A4080238446029420
:10584000089C099D2900DB0013430493259B6144B8
:10585000220003930B00009201938EE60524A8E634
:1058600000230B930A93023304250C93FEE5534661
:105870008C46013B63441B1A72E602230C930525F8
:10588000C2E70423EDE58020089E099F0006390049
:105890008446269A224B6144134004930B9B3200AA
:1058A0000393249B02930B0000920193F3E5259B45
:1058B0005B1B0B93A4E7022304250C93A0E79C1A1F
:1058C000013C76E601FCFFFFFB799F501344D33F78
:1058D000B3C8608B288AC63F0000F03F0000F83F45
:1058E00061436F63A787D23F71A379094F930A4041
:1058F0000000E03F1655B5BBB16B0240EF39FAFE30
:10590000422EE63F00002C400000244000001840DA
:10591000FF0300002D431CEBE2361A3F80842E412A
:10592000FFF7FFFFF0B5DE4657464E464546E0B569
:10593000A5B01E002E9B92460C93CD4ACD4B8046BF
:105940008B461A60002900D1EAE10023307899469D
:10595000002800D1ECE1C84B4C460B93C74B4546A1
:1059600057460E930AE0631C984622003B005946B6
:10597000A84744463078002800D187E00136252822
:10598000F1D108239A46043B9946023B9846013BD5
:1059900000229C460D943078711C0300203BDBB242
:1059A000102B03D80B9C9B00E3589F460300303B11
:1059B00089460D9C092B3AD9002398462A2800D104
:1059C000C1E000239A462E284BD00300683BDBB28F
:1059D000122B1ED80E999B00CB589F4663460E0093
:1059E0001A43D8E743460E001A43D4E74B460E004D
:1059F0001A43D0E710230E001A43CCE753460E009B
:105A00001A43C8E780235B001A43FF3B9C4670782B
:105A1000E1444E4667284FD82428A4D90300253BEB
:105A2000DBB2422B9FD896499B00CB589F46002360
:105A300094461E0000E00131B3009B195B001E1864
:105A40000878303E0300303B092BF4D9012362462D
:105A500089469C460023B0469A460E00E1442E2813
:105A6000B3D13021802049428C46C0000243707877
:105A70004B4684446146092900D86CE12A2800D1AC
:105A80007AE101239C464E46E1449EE7A146A846A2
:105A9000BA46CA4503D801235B425344994653464C
:105AA0004A4659460020C047200025B0F0BCBB46FE
:105AB000B246A946A046F0BD0300693BDBB20D9398
:105AC0000F2B00D94FE7012199408C466D4989463B
:105AD00061464B4619400F91634649460B4200D040
