:020000041000EA
:1000000000B5324B212058609868022188439860DF
:10001000D860186158612E4B002199600221596106
:100020000121F02299502B49196001219960352056
:1000300000F044F80222904214D00621196600F024
:1000400034F8196E01211966002018661A6600F04E
:100050002CF8196E196E196E052000F02FF8012189
:100060000842F9D1002199601B49196000215960AB
:100070001A491B48016001219960EB211966A021F2
:10008000196600F012F800219960164914480160C1
:100090000121996001BC002800D000471248134993
:1000A000086003C880F30888084703B5996A0420EC
:1000B0000142FBD001200142F8D103BD02B5186610
:1000C0001866FFF7F2FF186E186E02BD00000240BE
:1000D000000000180000070000035F00212200005C
:1000E000F4000018222000A00001001008ED00E03C
:1000F00000000000000000000000000074B24E7A12
:1001000000200420F7010010CB010010CD010010E9
:10011000C9010010C9010010C9010010C901001077
:10012000C9010010C9010010C9010010CF01001061
:10013000C9010010C9010010D1010010D301001045
:10014000C1010010C1010010C1010010C101001067
:10015000C1010010C1010010C1010010C101001057
:10016000C1010010C1010010C1010010C101001047
:10017000C1010010C1010010C1010010C101001037
:10018000C1010010C1010010C1010010C101001027
:10019000C1010010C1010010C1010010C101001017
:1001A000C1010010C1010010C1010010C101001007
:1001B000C1010010C1010010C1010010C1010010F7
:1001C000EFF30580103800BE00BE00BE00BE00BECA
:1001D00000BE00BEF2EB8871DC1606100C1706108C
:1001E0003802001090A31AE71E481F49086006C88D
:1001F00081F3088810471D480068002801D019487D
:10020000F3E70DA40ECC002902D000F012F8F9E7B4
:100210001749184A002000E001C19142FCD116495B
:100220008847164988471649884700BEFDE701C937
:1002300001C29A42FBD370470C170610E000002061
:10024000801A0020AC3006100000042000000420BA
:10025000AC30061000100420001004200000000044
:10026000704700000000000008ED00E0000000D032
:10027000801A0020A0F2022019530010D5020010AD
:1002800011530010F8B5C04606480749091A8B10EB
:10029000C90FC91810B5491003D0044B002B00D06A
:1002A000984710BD801A0020801A0020000000002E
:1002B000054B10B5002B03D00449054800E000BFF2
:1002C000FFF7E2FF10BDC04600000000FCDA00208E
:1002D0003023021070B588B005F05CF93D493E4806
:1002E00000F0A8F900286BDB02D13C4805F0A4F926
:1002F0006C460521684605F003FE03212278384B41
:10030000985C0140012901D12032D2B20321227030
:100310006278985C0140012901D12032D2B20321D8
:100320006270A278985C0140012901D12032D2B2DA
:10033000A270E278995C03230B40012B01D120329B
:10034000D2B203ADE2702A00264B43CB43C2192040
:1003500000261B78210013706844042203F024FB5C
:10036000290021486E7405F0EBF93C231F4C20490D
:10037000200023826560A660E66000F0F7F81D4D5E
:1003800001006422280021F0DFFC1B4B6561A361A2
:1003900001236377A37713F033FC21008931230015
:1003A000164A1748FF3115F06DF8050013F032FCBE
:1003B000002D0BD0053500D1FEE7124801F0ECF816
:1003C000023095DB104805F037F991E7200000F086
:1003D000CFF8F1E7302302103C230210442302102F
:1003E000D91506107423021084230210CCEE0020CD
:1003F00094230210ACF10220EC4302101506001009
:10040000A4230210B42302106023021010B521307F
:100410006422FF3021F098FC10BDC0462023F0B5C7
:10042000C646984600B58044040084B007004046A4
:1004300015000E0021F088FCC22300225B00E5506D
:1004400021376319FF37203339001A70214842469B
:1004500005F076F93800204921F0CEFC002815D0AF
:1004600038001E4921F0C8FC002813D038001C4970
:1004700021F0C2FC002813D038001A4921F0BCFC3E
:10048000002803D1CA2301225B00E25404B080BCDF
:10049000B846F0BD32002900134805F051F9F5E7E0
:1004A00002F010FA00290FD0FA220023920002F085
:1004B00093FEFA21890002F051FE0B2103000B4A42
:1004C00001A804F0CBFEE1E7FA21890002F046FE24
:1004D000EFE7C046C8230210E0230210E823021011
:1004E000F823021000240210F02302107C2B0210CB
:1004F00010B5002900D110BD014805F021F9FAE737
:100500000824021030B50C0085B0002A09D08023E1
:100510005B009A421AD18C33CB5C002B19D005B00A
:1005200030BDC62301255B00CD540B4805F084F88F
:1005300061690029F3D0094B2068094A02930394AA
:1005400001230195009520F0A7F9E8E7054801F09F
:1005500023F8054801F020F824240210F1040010CB
:10056000043902105424021030240210080070478D
:1005700030B5040083B01D4805F05EF820F04CFB58
:10058000206000282BD01A4B2500186889350430CC
:100590001EF0ACFF174B0100FF35180005F0D0F836
:1005A00028001EF0A3FF144B0100180005F0C8F846
:1005B00013F026FB220001CA290001920F4B104ABA
:1005C000009420F031FB00280CD123000D4A0E4985
:1005D000206820F015FB13F01DFB03B030BD0B4865
:1005E00000F0DAFF0A4800F0D7FFC0466824021086
:1005F000E8DA0020A4240210C4240210050500102B
:10060000B42200001D0400100D040010802402100C
:10061000E8240210100010B5002906D0C4230A688F
:100620005B00C250FFF7A4FF10BD014800F0B4FF0B
:10063000B423021070B504000D000DF001FC002879
:100640000DD10DF09DFB074B29002000064A0DF04F
:10065000A5FB431E984101234042984370BD0120F1
:100660004042FBE730750000040040008022044B4C
:1006700052051A60BFF34F8FBFF36F8F7047C046AC
:1006800004ED00E072B6044A136801331360BFF34F
:100690004F8FBFF36F8F7047D4F00220034A136867
:1006A000013B1360002B00D162B67047D4F00220EA
:1006B000EFF3108072B6704780F310887047C04621
:1006C000D02310B51B061868074B1B78834200D057
:1006D00010BDEFF30583002B02D05B00C018F7E7D5
:1006E00000F006FEF4E7C046C813002010B5030072
:1006F0000268154882B00478D02000060068844261
:1007000008D0BFF35F8F0023136081F3108820BFF0
:1007100002B010BDBFF35F8F0020106081F310881E
:100720000A4A1B6810680A4A944663449A105C2B74
:1007300000D9183A012301215B4291400093012224
:10074000002300F04DF9E3E7C813002014F2022063
:1007500000FFFF2F0A002B4930B58C46036883B099
:1007600063449C105C2B00D9183C0121264BA1400E
:100770001C78D0231B061B689C421FD040BF234D12
:1007800003682C68A34234D02368002BFCD0BFF34D
:100790005F8F1F4C23680B4323602B68BFF35F8F71
:1007A000002119600368D020002100064165BFF3D5
:1007B0005F8F196082F3108803B030BD40BF0368BB
:1007C000BFF35F8F00241C6082F31088EFF3058372
:1007D000104ADBB21068002B10D001AA019400F07F
:1007E000A9F9019B002BE7D080220B4B52051A6020
:1007F000E2E7074C206808432060D4E700F04CF99A
:10080000DAE7C04600FFFF2FC81300202CDB0020D2
:10081000D8F0022014F2022004ED00E0F0B5CE463C
:10082000474680B51D00344B14001A78D0231B06B0
:100830001B688046894683B09A420FD00368BFF395
:100840005F8F00221A6081F310882000290001F0D8
:1008500085FF03B0C0BCB946B046F0BD02F032F827
:1008600026002F00361A8F41012124484942801961
:10087000794143461E6800291EDC19D0BFF35F8F03
:100880000023336089F310881D4B5A6A954205D8BE
:100890009B6A0120A342DCD29542DAD18022194B17
:1008A00052051A60BFF34F8FBFF36F8F0020D0E760
:1008B000FA239B009842E1D3FA220023920002F02F
:1008C00073FC031EDAD0BFF35F8F0022326089F31E
:1008D00010880D4A0D49106842468C4612686244E1
:1008E00096105C2A00D9183E01210093B1400023E4
:1008F000012200F075F8C7E7C813002018FCFFFFBD
:100900000040054004ED00E014F2022000FFFF2F3C
:1009100010B500F0F1FE054A054B94466044800096
:10092000186000F051F8034B186010BD400000340F
:100930002CDB002014F20220F8B5DE4657464E4666
:100940004546E0B505000F00060000F0EDFA296805
:100950002C6939430C362960A6422CD000239846D6
:100960008023DB049B4680235B049A4680239B0400
:1009700099460FE06746002F0AD057463A4202D008
:1009800042461A4390464B46194300F067FC2968DB
:10099000A6420ED020000F000268646813021B0AF2
:1009A0001F40BC465F463A42E4D06345E5D0A642CC
:1009B000F0D143469943296000F0BEFAF0BCBB4633
:1009C000B246A946A046F8BD10B51C2002F04AF96F
:1009D000041E03D0002308C000F0B8F8200010BDAA
:1009E000F0B5C6460D00060000B51F00904600F0A9
:1009F0009BFA2B0034682340002F0DD1002B28D008
:100A00004346002B28D02300AB43336000F094FA18
:100A1000200080BCB846F0BD9D42F1D0069B002B63
:100A20001AD0434680215A1E9341C9041B0619431C
:100A3000069A2943301D00F049FB00F07DFA00289A
:100A400024D000F08DFC040083010DD52402240A7B
:100A5000DEE7069B002B02D100F06EFAD8E7414694
:100A60004B1E99410906E3E7FFF70CFE34682300AB
:100A70002B40002F0DD1002B05D04346002B02D078
:100A80002300AB433360FFF709FEDFE7FFF7EEFD1E
:100A9000D7E7AB42F7D1F0E7F0B5DE4657464E4612
:100AA00045460400E0B583B00D000600019000F05B
:100AB0003BFA2200136824690C361D433700156089
:100AC000A6422BD0002399468023DB04984680233E
:100AD0005B049B4680239B049A460FE000290BD0C1
:100AE00059460A4202D04A461A4391465146294382
:100AF00000F0B4FB019B1D68A7420DD02000290027
:100B000046460268646813021B0A19403242E5D067
:100B10008B42E5D0A742F1D14B469D43019B1D601E
:100B200000F00AFA280003B0F0BCBB46B246A94662
:100B3000A046F0BD10B5044C13000A0001002000CF
:100B400000F01AFC10BDC04639090010030008333C
:100B500001224360C360036100235242826003604C
:100B60007047C046030030B50D6808336A1C0DD0CD
:100B70001C005B681A68AA42FAD94B609960036846
:100B80008C60013361600861036030BD0469636893
:100B9000F3E7C0460369416882688A60516059681A
:100BA000814205D000220261186801381860704740
:100BB0005A60F7E7F0B5C64600B5846C82B0A26B08
:100BC000E36B002501909A4204D3280002B080BC58
:100BD000B846F0BD4523226CE65CA76B76B2002ACE
:100BE0001CD0606801A902F0DFFE6368226C9B18CC
:100BF000A2686360934201D32368636000250137D4
:100C0000A763731C15D1636A002BDED0200024304B
:100C100000F0BEFA0028D8D00125D6E72368984610
:100C2000002BEBD1A06800F069FB43460500A360F0
:100C3000E5E700F045FA8642C7D24523013676B291
:100C4000E654C2E7F8B55746DE464E464546040030
:100C5000E0B592461D000F00FFF72AFDA26BE36B83
:100C600006009A423BD300239846022D09D030005B
:100C7000FFF722FD4046F0BCBB46B246A946A0465F
:100C8000F8BD4533E35C226C5BB29846A36B9B4690
:100C9000A36B9946002A2DD03900E06802F084FE4B
:100CA000226CE36851429B1A2268E360934202D2AD
:100CB000A3685B18E3604B46022D51D00133A36358
:100CC000434601333DD000F0FBF9804504D2434652
:100CD000452201335BB2A35401239846C7E745235D
:100CE000E35C226C5BB29846A36B9B46A36B994670
:100CF000002A11D12768002F46D04B460133A36349
:100D000043460133DFD1A36C002B33D0022D1BD11E
:100D10005B46002B18D0DFE7002DBDD1390060689D
:100D200002F042FE49466368226C01319B18A268BA
:100D30006360934201D3236863604346A163013338
:100D4000C1D1A36C002B15D02000FFF733FF002882
:100D5000C2D05346002BBFD0012352461360BBE7DD
:100D6000002B00D10123A36343460133ABD1A36C15
:100D7000002BCDD1636A002BAED02000243000F0D0
:100D800007FA0028E5D1A7E7A06800F0B7FAA76046
:100D9000B3E7C046F0B5DE4657464E464546594B8A
:100DA000E0B51A6883B0013294461A60002A5FD019
:100DB00055490B689C4570D3544B99461B681B687A
:100DC000002B00D198E000239846514B514E9B4692
:100DD000514B01919A4639E000215961116801395E
:100DE00011609A6A002A0ED0D969186A556888601D
:100DF0004160190018318D4200D173E000219962E1
:100E00001168013911605246D96A1268914201D9BC
:100E1000524611608A0052189200B51868688768B7
:100E20009860DF607C6084605D61B3580133B350CB
:100E30005B461B684246DB6A8B429B415B421A431E
:100E40004B461B6890461B68002B50D04B461B68D6
:100E5000DB68DB685A68944546D35A699868D96854
:100E60001C1D816048605068A042B5D15160B3E755
:100E7000264B2A4A196810681860116028490A68C8
:100E800001320A601A681268002A25D101231E491E
:100E90005B420B600B689C458ED2002398461C4B2E
:100EA0001C4E9B465B4601201B681E4AD96A12688D
:100EB0008B005B189B00F3589842804113005A1E28
:100EC0009341404218434346184303B0F0BCBB462D
:100ED000B246A946A046F0BD1B680B49DB681B68FB
:100EE0000B6066E7506089E701990A60DAE70199CB
:100EF00001235B420B60D5E79846054B054E9B46A8
:100F0000F6E7C04660F2022020F2022034DB002027
:100F100030DB002040DB0020E4F002203CDB00203E
:100F200024F2022068F20220024A1368013313609F
:100F30007047C046E0F00220F0B5DE4657464E4608
:100F40004546E0B583B0FFF79DFB534C2368013B5A
:100F500023602368002B00D081E0504B1B68002BDE
:100F60007DD04F4B9C461B68002B00D190E04D4B31
:100F70004D4D98464D4B019499464D4B9A46002352
:100F80009B466346DB68DB68D869196A9A6A8160A8
:100F90004860180056681830864200D172E0594601
:100FA00099621168013911605A699868D968566860
:100FB00081604860181D864262D011680139116055
:100FC0004146DA6A09688A4201D941460A609100BD
:100FD00089188C002E1971688F689960DF607860BD
:100FE00088605E612B5901332B514B461B68DB6ACD
:100FF0009A423FD9534601221A6063461B68002B70
:10100000BFD12C4B019C1A681268002A3CD01B6887
:10101000DB681A68284B1A60284E3568002D14D0FA
:10102000012708E0FFF7B6FE002801D053461F60F5
:10103000013D002D08D02368002BF3D03368013D1B
:1010400001333360002DF6D1356053461B68002B09
:1010500005D0164B01241B68FFF708FB00E00024B5
:10106000FFF71CFB200003B0F0BCBB46B246A9460C
:10107000A046F0BD63461B68002B00D081E7C0E7A7
:1010800051609AE751608AE70B4B013A1A60C3E757
:10109000074B9A46C0E7C046E0F00220DCF0022091
:1010A00030F20220E4F0022040DB002030DB0020A0
:1010B00068F2022034DB002020F202202CF2022011
:1010C000014B18687047C046DCF002208023F0B561
:1010D000C646294C15001B0622680B4300B59361D8
:1010E000226843689968D3612268116222681832C5
:1010F0004A602268002118329A6023689862036867
:10110000013303601D4B1E681D4B1F681D4B1B6880
:10111000226898466D232068D1540430FFF73AFDC9
:101120006B1C15D023682168AD195D600431AE4297
:1011300005D94046FFF716FD80BCB846F0BD380023
:10114000FFF710FD104B1A689542F5D21D60F3E7CA
:101150000E4B21685A688A6090682168C8602168CF
:1011600004314160216804319160226853611A683A
:1011700001321A60E0E7C04630DB002060F2022056
:1011800034DB00203CDB002020F202204CF2022065
:10119000C368F0B5DB68D869196A9A6A81604860EB
:1011A000180054681830844241D0002199621168B7
:1011B00001391160234AD96A1268002A29D15A6973
:1011C0009C68D8681D1DA06044605468AC4230D053
:1011D0001068013810601C4A1068884225D38A00C4
:1011E0001A485218920086187468A7689C60DF60DD
:1011F0007D60A5605E61835801338350144B0020ED
:101200001B68DB6A8B4203D20122124B01301A6049
:10121000F0BD114A5468A568DC611D626860A06079
:101220009A62136801331360E8E71160D7E75160F1
:10123000BBE75060106801381060034A10688842AC
:10124000CDD2F2E7E0F00220E4F0022040DB002003
:1012500030DB002068F2022030F2022080231B06DF
:10126000F0B5026944680B4381680360C368A160FC
:101270004C60546884422ED0002101611168986846
:10128000013911605A69D9681D1D81604860506834
:10129000A84222D0116801391160114AD96A106838
:1012A000814200D911608A000E48521892008618B7
:1012B0007468A7689C60DF607D60A5605E6183588C
:1012C00001338350084B1B68DB6A994202D9012223
:1012D000064B1A60F0BD5160CEE75160DAE7C046B8
:1012E000E4F0022040DB002030DB002068F2022026
:1012F000014B18687047C04630DB002070B5041EF3
:1013000008D0036DC16AC26C013B0365914201D0F4
:10131000002B01D0002070BD051D2800FFF73AFC0E
:101320002023E26C9B1AA3610B4BE26219688A428C
:1013300000D91A60930009499B189B00C81842689D
:101340009668A260E66075609560CA586061013277
:101350000120CA50DFE7C046E4F0022040DB002055
:10136000044B1A68196890691A682023C96A5B1AC5
:101370009361704730DB002030B514001A0002235F
:101380000D0085B05B420093054B019069461868DB
:10139000002302950394FFF755FC05B030BDC0460D
:1013A00064F20220F8B5DE464E4657464546E0B5A3
:1013B0008B4605000A991800160001F0CFFE0A9B23
:1013C0006C001F02324B64199C46A400644463689D
:1013D00081469F4200D967602B1FDBB29846012BE4
:1013E00030D9C02380229B01E31812011A60294BD7
:1013F000AD0059599A4600291BD17301E026226895
:1014000053401E40802342465B01E3181E60012AC0
:1014100030D9802380229B01E31812011A605346C1
:101420004A4667605A51F0BCBB46B246A946A04640
:10143000F8BD586901F092FE013043001B18033BD0
:10144000FDD2DAE75B46012BCBD1C02303229B01FF
:10145000E3181A60023AA3681A42FCD07301E0262E
:101460002268AD0053401E4080230A4A5B01924629
:10147000E3181E605A462168514003220A401A6050
:1014800001225B469A40A3681A42FCD0C1E7C046DD
:101490000080004034270020F0B546464F46D6462F
:1014A000C0B51F00344B44009C462418A40064447B
:1014B000636888461600FF2B02D880235B006360B8
:1014C000031FDBB29A46012B30D9C02380229B0137
:1014D000E31812011A60294B8500595999460029D1
:1014E0001BD17301E026226853401E4080235246E0
:1014F0005B01E3181E60012A30D9802380229B0102
:10150000E31812011A6080235B0063604B465F5151
:10151000E0BCBA46B146A846F0BD586901F01EFECF
:10152000013043001B18033BFDD2DAE74346012B91
:10153000CBD1C02303229B01E3181A60023AA368AF
:101540001A42FCD07301E0262268850053401E40F9
:1015500080230A4A5B019146E3181E6042462168D7
:10156000514003220A401A60012342469340A26878
:101570001342FCD0C1E7C046008000403427002061
:10158000014B8000C0587047342700208023DB05C2
:101590001868000F7047C0460FB400B5084883B004
:1015A00004F04AF8049B002B07D005A9180001910C
:1015B00003F07AFE034804F03FF8012003F08CFEAC
:1015C00008250210783F0210EFF3108072B6034A2C
:1015D0001368002BFCD0BFF35F8F70472C0100D045
:1015E000BFF35F8F0022024B1A6080F310887047B0
:1015F0002C0100D070B5EFF3108C72B60D4D2B6836
:10160000002BFCD0BFF35F8F0724CB08C618C05C4B
:1016100001230C40A3401C000440034207D118439F
:101620003070BFF35F8F2C608CF3108870BD10009A
:10163000FFF7B2FF2C0100D0F8B54746CE468846EA
:1016400080B5EFF3108C72B61C4D2C68002CFCD0CA
:10165000BFF35F8F9A4222D807210126894602E014
:101660000132934218D34D4637001540AF40D4089D
:101670000119045D2742F3D110003C430C70BFF305
:101680005F8F00220D4B1A608CF3108800280EDB50
:10169000C0BCB946B046F8BD01204042EFE7BFF3F9
:1016A0005F8F00232B608CF310880120404243465B
:1016B000002BEDD00898FFF76FFFC0462C0100D03B
:1016C00030B5EFF3108C72B60A4C2368002BFCD0B7
:1016D000BFF35F8F072301220B409A40CD08435D83
:1016E00093434355BFF35F8F002323608CF310882F
:1016F00030BDC0462C0100D0044A1078431CDBB238
:10170000172B00D9102313707047C046C91300204F
:1017100010B5064B064C82B00100009318221F231F
:101720002000FFF789FF02B010BDC0461825021047
:10173000282700200021044B044ABFF35F8F02C317
:101740009342FAD17047C046000100D0800100D01A
:10175000094A83009A1810B5146840225440803218
:101760002240064CC000A44663441A60044B9C46C9
:101770006044416010BDC04604C0014004D0014037
:1017800000400140074B8000C3181B68C90092004D
:101790000A435A400C231340034A944660440360B2
:1017A0007047C04604C0014004D0014080000029B9
:1017B00005D0064B9C460223604403607047044BEF
:1017C0009C46022360440360F8E7C04604E0014001
:1017D00004F00140D0231B061B6830B505005842B9
:1017E00043412F205B4283430E48EC088446072088
:1017F00028408000814020000B4D3C306344800035
:10180000A40041511B19002A05D080229201944660
:101810006344196030BDC02292019446634419604C
:10182000F8E7C0463041014000400140D023F0B508
:10183000C6461B0698461B680C4F9B001600FA58BC
:1018400004000D0000B5104209D1290014430D20F9
:101850003200FC5000F0B0F880BCB846F0BD01F09A
:1018600025FB43461B689B00FA58EEE77CED002001
:1018700010B504000D2000F099F9D0231B061B6859
:1018800002499B005A58A2435A5010BD7CED0020DB
:101890000123D0228340120693629361094A830098
:1018A0009A1811684022514080320A400649C0000F
:1018B0008C4663441A60054B9C4605236044436094
:1018C0007047C04604C0014004D0014000400140C0
:1018D000054B064A1360064A136053609360D36059
:1018E00013615361936170478080808000E400E061
:1018F00004E400E01F2318401E3B8340002905D06C
:10190000C021044A490053501360704780220149A6
:101910008B50FAE700E100E001228240034B1B6894
:1019200013405A1E9341D8B27047C04600E100E010
:1019300001238340014A13607047C04600E200E083
:10194000064B10309B688000C358054A00209B1A44
:101950002F229A424041C0B27047C04600ED00E0DD
:10196000CC13002070B50D00EFF3108672B60F4A4D
:101970001368002BFCD0BFF35F8F0D4B10309B68BA
:1019800084001B590B4A934203D09D4201D001F0C1
:101990008DFA074B9B681D51BFF35F8FBFF35F8FBD
:1019A0000022024B1A6086F3108870BD240100D01B
:1019B00000ED00E0C1010010F0B557464E46DE468E
:1019C0004546E0B585B0060000911700EFF3108B97
:1019D00072B66A4A1368002BFCD0BFF35F8F0025F4
:1019E000674B5D579A46002D00DAA9E06B00654C05
:1019F00001935B199B009846A146C1444B46524651
:101A00009B7910361370604BB6009B6899590B1B7D
:101A10002F2B33D95D4B994200D0ACE0019B42465D
:101A20009C465B4B6544AD0063535A4B0232A2188F
:101A3000043B9B1A1B05584A5B0D651913436B80C9
:101A4000564B0121AB80FF23AB71009BEF71AB6064
:101A50004B460B4319004C4B9B689951BFF35F8F6A
:101A6000BFF35F8F0022454B1A608BF3108805B0DF
:101A7000F0BCBB46B246A946A046F0BD01200A0014
:101A80008243D3798C46BB4231D845461300444942
:101A90001B1B5B415943090D3D4B63533D4B0235C5
:101AA0006519043B5B1B1B053B4D5B0D2B43AA4695
:101AB0004D466B800425AC465546E044131F444414
:101AC0001B1B1B055B0D1D434B46997100999D80A7
:101AD00099604946DF71334B01431360BBE75800FF
:101AE000C01880002018C179B9422FD902000623FE
:101AF000D356002BF3DA02932B4B61460393131D4D
:101B00009A4604235B429C46E14450464B461B1ACE
:101B10001B055B0D9C46204B9571984663464046DD
:101B200003439380019B5A199200039BA418A3803E
:101B3000029B1C4AA371009B2260E771A3608AE7A5
:101B400001F0B4F9002553465D574FE790880293A2
:101B50004005131D9A46031561469C464046D444F1
:101B6000634604302018181AE0230005400D1B02BC
:101B700018430390C5E701F099F94FE7240100D01D
:101B80008FF20220CC13002000ED00E0C101001014
:101B900000A1FFFFFC13002000E0FFFF01BDFFFFDD
:101BA000AAAA00000148804701BD0000F0B5DE464A
:101BB00057464E464546E0B50C0083B0EFF310881B
:101BC00072B6634A1368002BFCD0BFF35F8F614B82
:101BD00061499A68030010339F00D55901938D42E3
:101BE00043D0A54254D05D4EAA1B2F2A3DD85C4B52
:101BF0009B461B68994601231A009C4682404B462F
:101C000013401F2299466346024093409A46802221
:101C10005B4650469850BFF35F8FEFF305839B46BA
:101C2000002B37D0019B5B4501D001F03FF9012328
:101C30002A009A439068844208D176E04B005B18F2
:101C40009B00F3189868844236D01A00062151563A
:101C50000029F3DA844254D04B46002B27D0C0220F
:101C600051463F4B5200995019603A4B9B68DD51E9
:101C7000BFF35F8FBFF35F8F0022354B1A6088F38D
:101C8000108803B0F0BCBB46B246A946A046F0BDE2
:101C90000D00EAE72A0063469A4390688442D5D152
:101CA00006201056130000280ADA0D0031E08023C8
:101CB00051462B4AD150D8E706201856002821DB80
:101CC00042001118890074188B46A1689960E17967
:101CD000D971062161569971002924DBA488F11A73
:101CE000640524155C44091909051E4C490D21435E
:101CF000998013181C4A9B001178F3189971107081
:101D0000AAE713005946002914D1FF3191711749F0
:101D1000918015490A789A71154A9B1B5B415A4379
:101D2000120D0A7098E71149E2E7062010561300D9
:101D30000028C5DA0F4A1049D21A083A5002400D5D
:101D4000014399800D4952080A43DA8084E7C0466E
:101D5000240100D000ED00E0C1010010CC130020F0
:101D600000E100E000E0FFFF8FF2022001BDFFFF75
:101D7000AAAA00000614002000F0FFFF00F8FFFFF1
:101D800010B58308040003202040FF24054AC0004A
:101D90009446844081409B0063441A68A2430A43EE
:101DA0001A6010BD00E400E070B501240443EFF3B5
:101DB0000581EFF3108C72B6214A1368002BFCD01A
:101DC000BFF35F8F1F4B05001F4AED1A6D416A4339
:101DD000120D1E4D8900AE6852B27658A6421CD034
:101DE0000621595691421CD012215956914222D0B7
:101DF0001E215956914220D02A215956032491423E
:101E000010D0134B19781A708171BFF35F8F0022C5
:101E10000B4B1A608CF3108870BDAB680D4C5C5096
:101E2000EFE700246100091989005B18FF2199710F
:101E300009499980E5E70124F4E70224F2E7C04666
:101E4000240100D0CC130020AAAA000000ED00E07D
:101E50008FF20220C101001001BDFFFF1F2110B54C
:101E6000091A0248FFF72CFC10BDC0469CF2022064
:101E700010B5084B084C82B00100009300220523E6
:101E80002000FFF7D9FB002801DB1F23181A02B03E
:101E900010BDC046342502109CF2022070B504002B
:101EA0000E001500FFF728FC0100200000F006F8E6
:101EB000A680E580BFF35F8F70BDC046024B9C4695
:101EC000614489000160704740000034F8B5124C4D
:101ED000124DAC4212D20126002776422368002B15
:101EE0000DD0FFF709FC01002000FFF7E7FF666057
:101EF0002772BFF35F8F0C34AC42EFD3F8BDFFF70E
:101F0000FBFB01002000FFF7D9FF6660BFF35F8F86
:101F10000834AC42E2D3F1E7701A0020801A0020A6
:101F200010B50400FFF7E8FB01002000FFF7C6FF33
:101F300001235B426360BFF35F8F10BD10B50400E7
:101F4000FFF7DAFB01002000FFF7B8FF01235B4237
:101F5000636000232372BFF35F8F10BD10B50400D0
:101F60000120FFF7D5FB034BC3189B002360BFF391
:101F70005F8F10BD40000034034B9C4661448900D4
:101F80000160BFF35F8F704740000034F0B5DE465C
:101F900057464E464546E0B587B0EFF3058303222A
:101FA00001251A40954091008846A946B34B0392FB
:101FB0005C58B34B1D60B34B04934B46B24843632C
:101FC0000823E55E002D37DAA3881BB2002B00DB67
:101FD000ADE0A379002B00D0EEE00823E05E0028FE
:101FE00020DB430062691B18DB00D3189E68DD68A4
:101FF000731C00D111E1A44801004144826A0B69BD
:10200000B71A9B1A9F4215D30123026A0398834093
:102010001A420FD09C4800F04DFC8D4202DCCCD11E
:102020008642CAD940BF07B0F0BCBB46B246A946FB
:10203000A046F0BD0E61EDE762696B0092465B1948
:10204000DB009A4453469E68DF6800F033FC8F4201
:10205000BADC00D103E1002F00DAE8E05246534633
:1020600052691B699346049A934200D1D9E05246C3
:102070000821605E5288000459461043984700903A
:1020800001910099019A0B001000134300D1CEE09A
:1020900013000A00B61A9F41002806DB7A4800F0B8
:1020A00009FC009E019F36184F4153469E60DF6039
:1020B00000229A5E002A00DA86E7530099186069C8
:1020C000C900411802938B68C9689B46B94200DD7C
:1020D0007AE702D1B34200D976E708239C46A444AC
:1020E000059565462281A446029B2C0006E053001C
:1020F0009918C90041188D68C968AB469B18DB0068
:10210000C318B94206DC00D1B3E01C000023E25E34
:10211000002AECDA230064469C4653461A80634644
:10212000059D1D80A3881BB2002B00DA51E72269B0
:10213000EFF3108172B61368002BFCD0BFF35F8FF2
:102140000123A7885B42A3803FB22369BFF35F8F5F
:1021500000221A6081F31088002F00DA39E723008B
:10216000083322009A4666697B00DB19DB00F3180E
:10217000996850468C460824115FDD68002910DB01
:10218000029306E0AB4244D00023E15E2000002928
:1021900006DB4C006418E4003419E368AB42F1DD5F
:1021A000029B078000201F5E1980002FDCDA1400DC
:1021B000A379002B00D110E70023A3712600082388
:1021C000E15E08364B1C00D12CE70800A246656989
:1021D00002E03E004B1C1AD04B005B18DB00EF18EE
:1021E0000A008C46E95E7B881BB2002BF1DA0123E2
:1021F0005B42DC17BB60FC60824205D053463180F5
:102200001B893B8053461A8160464B1CE4D15446DF
:10221000E5E6A3686345B7D9C2E76B1C00D0EAE6E0
:10222000F8E65B4658461B69984700281BD1534681
:102230001B8822692381EFF3108372B6116800298D
:10224000FCD0BFF35F8F514662880A8022696580A7
:10225000BFF35F8F0021116083F31088B4E68642DC
:1022600000D8F8E6B0E65B461A685B680092019316
:1022700007E7B34500D848E74CE7C0461CDB002021
:102280003C7005408D1F001000400540074810B508
:102290000268EFF3108172B61368002BFCD0BFF315
:1022A0005F8FFEF757FA0020002110BDA0EE00203E
:1022B00070B52E4C2569002D04D00A212C48FFF75B
:1022C000FDFD70BD2B4E0321300000F0D1FAE66019
:1022D000FFF712FA284B03229C46D02322701B06DC
:1022E0001B6801216370254B6044A3600F238000AD
:1022F00020610220638063694942A1801980023114
:10230000198647311D83585218315A5275325C393B
:1023100099521832013199521832013199521832BA
:1023200001319952083518329D52023118329952B2
:102330001832013199521832013199521832013153
:1023400099521832013199521832013199520C4B7D
:102350000C49DC6001303562FFF704FB01210320EA
:10236000FFF7C8FA084B1D60A7E7C0461414002009
:10237000A0EE00200040054040000034FFFF1000A8
:102380001CDB00208D1F001038600540004870479E
:1023900014140020F8B5050018200F0001F0A6FA6B
:1023A000041E3ED01821380001F0BEFA0121606100
:1023B000280000F06FFAE5600600FFF79DF9D022D3
:1023C000267012061268184B62709C460122BBB23E
:1023D00052426044800063819B1820612281A28068
:1023E0006380002F0BD079006269C919C9000F4BB7
:1023F00089181380013318329BB28A42F9D1012720
:10240000B7400B4BB20030000A492F62D450FFF79F
:10241000A9FA01213000FFF76DFA074B9C4665448D
:102420002F602000F8BDC04640000034FFFF0000D0
:102430001CDB00208D1F001038200000124B70B5EF
:10244000040098421ED001230578C668AB400F4AAD
:102450003362B218136001212800FFF74BFA2800FD
:102460000B49FFF7A3FB2900300000F00BFA002115
:102470002278084B60699200D15001F077FA200071
:1024800001F074FA70BDC04614140020383000000A
:102490008D1F00101CDB0020F8B51F0008AB1B7857
:1024A00004001600002B08D100F00CFA32003B00AB
:1024B000121A8B41002B00DA52E02269EFF31080F0
:1024C00072B61368002BFCD0BFF35F8F0223E15E6E
:1024D00063694A005218D2009B182269002936DB32
:1024E0001D886580BFF35F8F0025156080F310881D
:1024F000069A9E60DF601A61079A5A615A88013213
:102500005204520C101C002A1FD082B258800804BA
:1025100010432669EFF3108772B63268002AFCD0A8
:10252000BFF35F8FA2881A80A1802369BFF35F8FFA
:1025300000221A6087F310880A4923788C460132FA
:102540009A40E36863441A60F8BD0120DDE7BFF3F9
:102550005F8F0023136080F3108801204042F3E76F
:102560000020F1E73C20000070B501000469EFF3A2
:10257000108C72B620680028FCD0BFF35F8F022059
:102580000D5E4C6968004019C00024180869002DD0
:1025900036DB26884E80BFF35F8F002606608CF303
:1025A0001088E36063880498013320615B04059818
:1025B0005B0CA26060611A1C002B1FD093B2280430
:1025C000628018430A69EFF3108C72B61368002B0F
:1025D000FCD0BFF35F8F8B8823808D800B69BFF3A6
:1025E0005F8F00221A608CF310880B7801329A40BA
:1025F000CB6808498C4663441A6070BD0122DDE750
:10260000BFF35F8F002303608CF3108801204042EA
:10261000F3E7C0463C20000010B543890A149342FA
:102620001ADD53009B184269DB00D3180469EFF3ED
:10263000108C72B62268002AFCD0BFF35F8F5A88D4
:10264000090494B2090C8A4208D00369BFF35F8F72
:1026500000221A608CF31088002010BD8022120224
:1026600014435C80012302698371BFF35F8F0021F3
:1026700011608CF31088044902788C469340C2683C
:10268000012062441360E8E73C2000004078704776
:10269000F0B54746CE46060080B596246442E5175D
:1026A0000F00A4197D4183B08D4215D812D000F0DF
:1026B00009F922002B00121A8B41002B16DC002B8B
:1026C00040D03000390000F03BF903B0C0BCB9463F
:1026D000B046F0BD8442EAD90024002500F0F2F8AB
:1026E00022002B00121A8B41002BE8DD00F0EAF8E3
:1026F00022002B00121A8B41002B0ADB00230193CE
:10270000124B2200009312482B00FFF72DFF0130DF
:10271000D7D0A846A1460F4D0F4C6B6A984504D8F8
:10272000AA6A4A45CDD29845CBD12268EFF31081F1
:1027300072B61368002BFCD0BFF35F8F2000FDF74B
:10274000D5FFEAE7002ABCD0D0E7C0468D220010B2
:102750001414002000400540A0EE0020F0B55746BC
:102760004E46DE464546E0B506000F0085B0EFF365
:10277000058399468B46002B12D0384900204B6ABE
:10278000BB4206D38A6ADB1B591E8B41B2424041D1
:10279000184305B0F0BCBB46B246A946A046F0BD02
:1027A0002F4B9A46DB68984653461B784046039366
:1027B00000F080F84246039B040004339B009B58C2
:1027C0000D001B1A39003000001BA941894510DC9F
:1027D0000DD020BF214A0020536A5B45D9D3926AAD
:1027E000DB1B591E8B41B24240411843D1E7834263
:1027F000EFD900F067F832003B00121A8B41002B32
:102800001ADB00230193174B3200009350463B0024
:10281000FFF7AAFE011E0FDD104B5A6A5A451BD363
:102820009B6AB34216D35046FFF7F6FE0B4A0020D0
:10283000536A5B45ADD3D2E7084A0020536A5B4533
:10284000A7D30020926ADB1BB24240415A1E93413B
:1028500018439EE75A45E6D120BFE4E70040054013
:10286000141400208D2200100048704700400540DD
:1028700010B5024A0248FEF7BDFE10BD50250210F9
:102880002C27002010B50248FEF71AFF10BDC046E5
:102890002C27002000B5054B83B0009300220323B2
:1028A0000348FEF7C9FE03B000BDC0467425021000
:1028B0002C2700200300416A0A00986A596A8A425C
:1028C000FAD17047034B596A0A00986A596A9142D3
:1028D000FAD170470040054070B504000D00174A5A
:1028E000536A1900966A536A8B42FAD13000190074
:1028F00024184D41AB4216D813D0104B2A005B6A06
:102900009D4203D90D494B6A9342FCD3934207D1B0
:102910000A4A02E0516A994202D1916AA142F9D36E
:1029200070BDA642E9D9054B5B6A1C005A1CEFD06A
:10293000012201246442E5175242E3E700400540CA
:10294000064A536A9942FCD807D1044B02E05A6AFE
:10295000914202D19A6A9042F9D8704700400540EE
:10296000F8B5040021481E0017000D0000F0F6FB2A
:102970000100380000F0F2FB069B36041B031E43E7
:102980002368002B20DB1A4B1A49E3185A1E934187
:102990008022920194465B421B0B174A1B0363443F
:1029A0001360164A13601F000A689743FBD1144B4B
:1029B0002560E2182123A06013602368002BFCDA55
:1029C0000823E6601360F8BD3F2322681340AB4242
:1029D000D9D1A3681B051B0D8342D4D1EE22E36835
:1029E000D2021340B342CED1EDE7C046001BB70080
:1029F0000040FDBF08C0004000E0004000F0004083
:102A00000430000010B580241C4BE4051C60002835
:102A10001AD001231A4C18431A4BDC611A4C44405B
:102A20001C62596298628021144BC90519601748CD
:102A300017490860E021C9041960002A07D18022E3
:102A4000144B12061A6010BD0E4BD861EBE7530110
:102A50009B1A9B009A18802312015B049A4209D2A8
:102A600013000D490B60074B5A608022094BD205B9
:102A70001A60E8E7094B1A00F3E7C04600B00540CA
:102A8000D3C007B0008005402D3FF84FFCFF010088
:102A90000820014000A0054044410020FFFFFF0046
:102AA0008023024A9B000B43D3627047008005409D
:102AB000002310B50100988A1B8B984710BDC046B3
:102AC000162310B50100188802331B88984710BDE3
:102AD000F8B54746CE4680B50F1E18D01423994648
:102AE000043304000025012698464B4618884346C7
:102AF00021681B88984701C4431E98410135064050
:102B0000AF42F2D13000C0BCB946B046F8BD012694
:102B1000F8E7C046002370B504000D00988A054907
:102B20001B8B984703000020002C01DB0130A040E4
:102B30002900984755420000042040427047C04693
:102B400010B5002383F31088FA220023920000219D
:102B500000F07EFE00F062F84342584101234042FB
:102B6000984310BD10B5041E01D000F031F82000CC
:102B700010BDC046004870472C140020F8B5060070
:102B80000F001500FFF7F6FF041E0AD04368280067
:102B90009847002804D13800B0472800A368984718
:102BA000F8BD04204042FBE7AA23064A1B0113603C
:102BB0008D235B00D3600449044B19605368002BDC
:102BC000FCDA70470040024000B0FA0000600240AA
:102BD00070B5FEF7F9FC04000D480368002B13D014
:102BE0002000FEF7FDFCD0231B061C6809492500C8
:102BF0000F352800FEF7B6FE28000121FEF77AFE09
:102C00000122054B1A5570BDFFF78AF9E8E7C04667
:102C100048410020850400205041002070B5040088
:102C20000D00FFF74FFE22002B0012184B41002B26
:102C300002DA0122084B5242084D28001FF00CFB1B
:102C4000041E07D0064A13680133136040BF2800F2
:102C50001FF0AAFA200070BDFFFFFF7F484100204F
:102C600038140020F0B5C646431E00B50A3314D808
:102C7000072304001A000834224023426CD01300BA
:102C8000093BA34209D31030841AFEF74DF9374AA5
:102C900027001568002D28D10EE0FEF745F9334ACC
:102CA0001368002B06D00025FEF746F9280080BCEB
:102CB000B846F0BD0027002407202D4D2B00290029
:102CC000284245D100202B4E706031602A4EB44618
:102CD00007266544B5431560284AEB1A1360284A55
:102CE0006860286013604B600D60002FDBDD244FAF
:102CF0003E68A642D7D31F48036804E01A68002A3A
:102D000004D0180013005968A142F7D3AB42CAD0CF
:102D10001D001A680835904602600A1B102A05D962
:102D200019194A6042460A6001602100134A761A66
:102D300010683E60864200D21660802212060A4366
:102D40005A6000221A600F4A136801331360ABE720
:102D5000EB1D83431900B5E7FEF7E6F8034A2700A9
:102D60001568002DA8D0002CC1DA9CE738DB0020C4
:102D7000BCF0002044F20220F8FF01001CF2022007
:102D800018F2022028F20220F8B5040006200D00F7
:102D9000FEF7F6FB002844D0374B3849E3185A1E9B
:102DA00093418022120494465B429B0D344A9B055A
:102DB00063441360334A136018000A689043FBD1E0
:102DC0002D4B314AE31859424B4180215B004900A9
:102DD00006209952FEF7D4FB2900C00000F0BEF98E
:102DE0000130C3091ED1402701226262A362266B13
:102DF000F30722D4E36A254B0620E51800232B6055
:102E00002663FEF7BDFB3900800000F0A7F97023B0
:102E1000E26A5A400E3313402B601D4B2363032399
:102E2000A364F8BD1B4A93421ED900231A4A1B4FC4
:102E30006262A362266BF307DCD5194B144AE318D0
:102E40001A60656AA36A0620AD01ED18FEF798FBCB
:102E5000144900F083F9AD020100280000F07EF96A
:102E60000021FFF739FDC5E74006800E9F011A00DB
:102E70003F180300B9E7C0460080FCBF08C000400F
:102E800000E0004000F00040B4F000202C100000F2
:102E900001030000FEFF0000FFFF0000C0FF3F0035
:102EA000303000004E0E00007047C04610B501489B
:102EB000FEF772FB8825021070B5074D074EB5422C
:102EC00009D20024013E761BB60808CD984723009E
:102ED0000134B342F9D170BDE8220210242302105C
:102EE000054B064A06491A60064A074B1A6010004D
:102EF0000B689843FBD1704700E00040BFCDFBFE5C
:102F000008C00040FE7F3C0000F00040044BDB6C3A
:102F1000002B03D18022034BD2021A607047C046B7
:102F2000000011504C201150044A054B1A60054A0C
:102F30001368DB018033FBD17047C046FFFFFF0100
:102F400000F0004008C000404022034B9A675A67D7
:102F50001A67DA667047C04600F0014010B5FEF708
:102F6000E9FB10BDF8B52749274C284D641AA61077
:102F70003200302E00D930222800920000F014FDDB
:102F8000BC2C3BD830202F232C196407204A801BEF
:102F9000E40F9B1B052B16D93700002C02D0B30081
:102FA000771CEA50001B33199B004108EB18C9003D
:102FB000C9181A605A6008339942FAD101230342B2
:102FC0001CD09843C619B300EA50731C2F2E15D09D
:102FD0009B00EA50B31C2E2E10D09B00EA50F31C2D
:102FE0002D2E0BD09B00EA50331D2C2E06D09B00BB
:102FF000EA50731D2B2E01D09B00EA50054B9D60BB
:10300000F8BDC04600010010C00100100000002003
:10301000C101001000ED00E0002310B5294C82B082
:10302000A367FFF7C1FD0122274B1A60636C012BD8
:10303000FCD10322254B1A60224A936B012BFCD151
:10304000013300930121224A22480433FFF788FC10
:10305000052301210093204A2048FFF781FC00222C
:10306000022104201E4BFEF717FA00220121052041
:103070001C4BFEF711FA0022002107201A4BFEF725
:103080000BFA002200210820174BFEF705FA8023D7
:10309000DB000093002200210920134BFEF782F988
:1030A0000022104B00210620FEF7F6F90420FEF75F
:1030B00067FA0E4900F052F801000020FFF7F0FC1B
:1030C00002B010BD008000403CB0004030B0004075
:1030D000002F685900800240008C864700C00240E3
:1030E000001BB70040597307006CDC0240420F0020
:1030F00001480421014B184740140020D12A001038
:10310000014B9B681847000040140020124A936F3F
:103110009B0815D29066D166002905D0FFE7FFE72E
:10312000FFE7516F106F704704B580210906C21781
:103130005140002800D0C8431FF05EF8002104BDB4
:10314000F0B5146E556E576F166FFFF7E3FF1466F8
:10315000556657671667F0BD000000D0114A936F9F
:103160009B0813D210665166002905D0FFE7FFE7E0
:10317000FFE7516F106F704704B5002801D00020A1
:10318000C0431FF039F8002104BDC046F0B5146EED
:10319000556E576F166FFFF7E5FF14665566576754
:1031A0001667F0BD000000D094464A4A926F92081C
:1031B000624601D228E0C046F0B5464E346E756EC8
:1031C000776F366F00F020F89446424A14665566D1
:1031D000576716676246F0BD94463E4A926F920862
:1031E000624601D254E0C046F0B53A4E346E756E78
:1031F000776F366F00F04CF89446364A1466556681
:10320000576716676246F0BD002B24DB11D00029FA
:103210003EDA00B5C943404200D1013100F038F830
:10322000C943404200D10131DB43524200D1013356
:1032300000BD002AEBD1002801D1002905D00020D3
:10324000C90FC90701D1C043410800B51EF0B4FF42
:103250000022002300BD00B500290ADBDB435242F7
:1032600000D1013300F014F8C943404200D10131CC
:1032700000BDC943404200D10131DB43524200D17D
:10328000013300F005F8DB43524200D1013300BDA9
:10329000002923D1002B18D1002A0CD0BC460D4F99
:1032A00038667A6600210023FFE7FFE7FFE77A6FC1
:1032B000386F67467047002801D00748010000B505
:1032C0001EF07AFF0022002300BD02000B00002048
:1032D00000217047000000D0FFFFFFFF002B00D04F
:1032E000BFE0130C28D1002AE7D080B4114F396613
:1032F0007A66FFE7FFE730B4040C7B6F396F1B047D
:1033000023433B667A66FFE7FFE7FFE7C04684B2E8
:103310007B6F3D6F1B0423433B667A66FFE7FFE745
:10332000C04600232C042D0C7A6F386F00196941B8
:10333000B0BC7047000000D0F0B594460025140ED4
:1033400001D112020835140F01D112010435940F76
:1033500001D192000235D40F01D152000135D40BB6
:103360000134254F7C66254C3C660E0C93B2FFE77A
:10337000FFE7FFE73C6F6643360C7703BE467343B7
:10338000DF0B5B04C01AB941130C7343DB18C91A75
:10339000CE086643360CB64493B273431F0F1B012D
:1033A000C01AB941130C73431F0B1B05C01AB94156
:1033B000860D8F023E436643360C092D24DB520AEC
:1033C0007243801A7703460A6643360C16235B1B4A
:1033D000DE40DF40BF1964466643821B70460435F9
:1033E00006330100D940A840C01900D30131A242E0
:1033F00006D20023F0BD0000000000D0FFFFFFFF59
:10340000121B0130F3D3F1E709277F1BFE4064460E
:10341000A2B27243801A00D20139220C7243130CFB
:103420001204821A99410B007046043513370100CB
:10343000F940A840801900D30131002B02D1A242EB
:103440000AD2F0BD013000D30131121BFAD2013B88
:10345000F8D1A24200D2F0BD013000D30131121BDD
:10346000F7E7F0B51C0C00D080E00CB400251C0A76
:1034700004D11B02160E3343120208351C0B04D173
:103480001B01160F3343120104359C0B04D19B0022
:10349000960F334392000235DC0B02D192185B4148
:1034A00001351C00971864410134464F7C66464C38
:1034B0003C660E0CFFE7FFE7FFE7C0463C6F664344
:1034C000360C7703BE4697B27743C01B00D2013952
:1034D000C01B00D201399FB27743C91BC91B170C0F
:1034E00077437E04FF0B801BB941CE086643360C40
:1034F0000C2D33DBB644120B1F053A431B0B97B25E
:103500007743C01B00D201399FB27743C91B170C08
:1035100077433E043F0C801BB941860D8F023E432A
:10352000664329277F1BFE400C3D7746AF40BF19FD
:1035300030BCA2B2ABB272437343801A9941220CE1
:103540007243130C1204801A994102000B000137D8
:10355000001BA941F9D2781E0021F0BD0C277F1B6A
:10356000FE4077467F0BAF40FF19E0E700245D1C6B
:1035700007D0144F7D663966FFE7FFE7FFE7FFE7F7
:103580003C6F95B29EB265436643401BB141150C3A
:103590001E0C6543664336042F0C3E432D04401B2E
:1035A000B141994204D202000B0020000021F0BD7D
:1035B00001D19042F7D3801A994101349942F2D354
:1035C000F6E70000000000D0FFFFFFFF4840414049
:1035D000484018B4134B5B68019308BD18B4114BF5
:1035E0001B68019308BD94460F4A926F920805D25A
:1035F000624618B40B4BDB68019308BD0A4AF0B56C
:10360000146E556E576F166F6246FFF7F2FF064A4B
:103610001466556657671667F0BD18B4014B9B6872
:10362000019308BDA81C0020000000D0FFB5504049
:103630004240504059404B40594000E0FFB5154FC3
:103640004C00640D03D0BC4204D10C0314D80020FC
:10365000090D09055C00640D03D0BC4204D11C03B4
:103660000AD800221B0D1B0501264B4009D44B40F4
:1036700003D58B4200D18242FFBD9942FCD19042DA
:10368000FFBD0B43DB1803431343F5D0C94349186F
:10369000FFBD0000FF07000000B5FFF7CFFF80412E
:1036A00000BDC04600B5FFF7C9FF01D9002000BD2D
:1036B000012000BD00B5FFF7B9FF01D9002000BD12
:1036C000012000BD00B5FFF7B1FF804100BD012022
:1036D00040054A00121804D85A00121801D80020D8
:1036E00070470120704700000021002805D1704775
:1036F000C1174840401AFAD0C90713B5064B1B68DA
:1037000098470CBC441CA2401005120B0349091B2E
:1037100009051943114310BD9CED00201F04000052
:1037200010B54C00620D8023D218DB00D21A5B0565
:103730007E2A10DD9E3A13DACC1709034908194393
:103740005242D140640001341532202A05DAD040BB
:103750000843604310BD002010BD0846604310BD03
:10376000C80FC018013810BD18B4024B5B6A019332
:1037700008BD0000A81C002010B50148FDF70CFF93
:1037800094250210132370B51D78012D19D014DD76
:103790001D48FFF795F906001C48FFF791F91C4CEE
:1037A00080223100200000F0FFF8022D06D01948D9
:1037B000FFF77EF9184B186070BD154C174BA364CA
:1037C000F5E7174B124C23606360A360E36023614D
:1037D0006361A361E36123626362A362E3622363C3
:1037E0006363A363E36323646364A364E3642365A3
:1037F0006365A365E36523666366A366E366236783
:103800006367A367E367D9E75344000053460000AA
:10381000A81C00204C3300009CED0020253800102F
:103820007937001007B5604601880A0A0230DF2A9E
:10383000FAD1C9B2820804D3028840880004104338
:1038400000E00068014A5050039007BDA81C00200A
:1038500051434343C9188C46110C83B24B4310B4F7
:10386000040C614392B280B2504362431C041B0CAF
:10387000001910BC59411304120CC0185141614485
:103880007047000010B50148FDF786FE8C4102101C
:10389000132310B510481C78FFF712F90100012C12
:1038A0000AD003DD80220D4800F07EF80C48FFF7B7
:1038B000FFF80C4B186010BD084C5422200000F09B
:1038C00073F82200084980322368002B00D1216060
:1038D00004349442F8D1E9E753460000A0ED0020FB
:1038E0004C3300009CED00208538001070B50400BA
:1038F0000A4E30001EF0E0FC20001DF061FE0500C5
:1039000030001EF051FC002D05D0054B2C199C42B7
:1039100001D8280070BD0348FDF73EFE701A002054
:1039200000000420AC250210F8B506000C000C4F76
:1039300038001EF0C1FC210030001DF0E1FD050043
:1039400038001EF031FC7443002D05D0054B2C19B6
:103950009C4201D82800F8BD0348FDF71DFEC04673
:10396000701A002000000420AC25021070B504007D
:10397000054D28001EF0A0FC20001DF02BFE2800A5
:103980001EF012FC70BDC046701A002001480421D0
:10399000014B184750140020D12A0010014B1B681E
:1039A0001847000050140020014B5B6818470000C6
:1039B000501400209A4200D2885470477047C04685
:1039C000F8B55746DE464E464546E0B599460A9B51
:1039D00007009A460D9B884693460B9C9B073BD15C
:1039E0000C9B9C423DD21E1B0B9415000C005E44A8
:1039F0002A004B46013521002020B847B542F7D1B7
:103A0000A0460B9C002C20D0454636195346321B4D
:103A1000013C185D29004B46B847002CF6D12B001D
:103A2000350098460D9B9B070FD55B46EC1A0C9B07
:103A3000A3420AD9464698462A004B463100202028
:103A40000134B84701354445F6D32800F0BCBB46E5
:103A5000B246A946A046F8BD16001500002CD3D1E9
:103A6000E0E716001500002CCED1EEE7F0B5454694
:103A7000DE4657464E46E0B585B09C4610AB1B78F7
:103A8000149F934698460F9C129E139DBB074CD4DF
:103A9000002D42D1B44248D201233B4099460E9BAF
:103AA000013B9A46302304E0524601341355A642A6
:103AB00001D9202CF8D14B46002B00D183E00E9B7E
:103AC000013B99463023A54205D82EE04A460134F1
:103AD0001355AC4229D0202CF8D1FB060CD57B0520
:103AE00054D4A64263D0A54261D0119B102B50D074
:103AF000022B57D0202C32D1202301930E9B5A4603
:103B00000093039763460295FFF75AFF05B0F0BC98
:103B1000BB46B246A946A046F0BD01233B409946AC
:103B200001233B422AD1B442B9D3FB061CD57B0505
:103B3000DBD4002CD5D1119B102B5BD0119B022B19
:103B40006BD0302301240E9A13704346002B10D102
:103B50007B073ED52B260E9A631C1655CDE7230016
:103B6000013430260E9AD654202CC5D04346002B63
:103B7000EED02D260E9A631C1655BEE74346002B49
:103B80002FD0013DB44200D289E798E7119B102B5A
:103B9000B2D1BB0637D5202CAED058230E9A135580
:103BA0000134A7E7202CA7D02300013407E0631ECF
:103BB000012CC0D0119A102A31D0022AD1D162260C
:103BC0000E9AD65496E7FB06CED57B0500D488E73F
:103BD0008BE723003E0790D520260E9A0133165519
:103BE0008BE70C233B405A1E9341ED1AB44200D29E
:103BF00055E764E7BB060ED478230E9A02241370AF
:103C000030235370A1E7202C00D175E778230E9A5A
:103C1000135501346EE75823EFE76033EDE70E9A52
:103C2000A61E91464E44BA0602D55822327098E735
:103C30007822327095E7C04610B5002800D110BD3B
:103C400001F0B0FCFBE7C0460B0010B5002802D025
:103C500049681B68984710BDF0B55746DE464E468A
:103C60004546E0B595B083460F00924698461E9AA9
:103C70001F9B10001900209EFFF729FD002800D08F
:103C8000EAE11E981F990122C54B5242FFF704FD3D
:103C9000002800D014E11E981F990122C14B524206
:103CA000FFF710FD002800D0E9E01E981F990022C0
:103CB000BD4BFFF707FD002800D0C8E01E981F99F4
:103CC0000022BA4BFFF7E8FC002800D0BFE01E98A6
:103CD0001F9900220023FFF7DFFC002800D0E4E05A
:103CE00000230B93229B5B0500D40626002430237F
:103CF00007E0172106AA013452181355013E202C63
:103D000001D0092EF5D81E981F99FFF709FDA84B81
:103D1000F2009B181A685B68050008920993FFF788
:103D2000E7FC02000B001E981F99FFF752FC089A4F
:103D3000099BFFF772FC06900791FFF715FD81467E
:103D4000FFF7D2FC02000B0006980799FFF741FC31
:103D50000022984B06900791FFF7B4FC002800D191
:103D60000DE101239C46E1444846FFF7BDFC0200FB
:103D70000B0008980999FFF795FC002802D0002352
:103D800099460135002E00D1D9E006954D46B94639
:103D900014E006AA944617230A216344280001343C
:103DA0001F19FFF7DBF93031397028000A21013E75
:103DB000FFF7D4F9092D00D817E10500202CE8D130
:103DC0004F46069D20240CAE06AA17239446634452
:103DD00099465B46B34606930FE04B4628000A21FE
:103DE0000134E618FFF792F93031280031700A21CA
:103DF000FFF78CF9051E00D1E4E0202CEDD1069BE5
:103E00005E469B460323229A1340012B18D1219B27
:103E1000002B15D00B9B002B00D1FDE0219B013B1B
:103E20002193202B0CD93023219A07E0172006A9D3
:103E3000013409180B55944200D3CCE0202CF5D165
:103E4000229B01940393219B0096029322E0229BE4
:103E500052460493219B3900039358461E9B1F9C96
:103E6000029600930194434600F04AF904002000B2
:103E700015B0F0BCBB46B246A946A046F0BD229B99
:103E80005B070FD403224C4B229901920391219995
:103E9000009302914346524639005846FFF790FD81
:103EA0000400E4E70422454BEEE71E9A1F9B002026
:103EB0000021FFF78EFB01231E901F910B9311E74A
:103EC000229B54469B0711D1219B042B0ED9219B89
:103ED00055469C465E46043C64442A0043460135F0
:103EE00039002020B047A542F7D1B346344D260013
:103EF0002B1F99465B46A3461C003200E8784346D8
:103F00003900013DA04701364D45F6D123005C46FE
:103F10009B46229B04349B07A9D55346219AE31A5A
:103F20009A42A4D95E46150022004346390020205B
:103F3000B04753460134E31A9D42F5D897E728006D
:103F4000FFF7D6FB02000B001E981F99FFF741FBFD
:103F50000022184B06900791FFF79EFB0CAE00283D
:103F600000D031E7069807990022124BFFF7AAFB11
:103F7000002800D028E7012301359D4324E70022D3
:103F8000069807990B4BFFF787FB002800D0F9E64E
:103F90004B46002B5CD101239C46E144F2E6C0462F
:103FA000FFFFEFFFFFFFEF7F65CDCD4165CDCDC1B9
:103FB000A05C02100000E03F04260210FC25021065
:103FC0000C260210069B5E469B460323229A134052
:103FD000012B00D181E0202C00D131E70B9B002B7D
:103FE00027D02D23335501342AE74F46069D202C38
:103FF00000D1E7E63022331907E0172006A9013483
:1040000009180A55202C00D1DCE6A342F5D12E2256
:104010000CAE0134F254D7E60C23229A134257D047
:10402000219B013B2193A34200D9FCE6202C00D127
:1040300006E7229B5B0703D52B2333550134FFE6AC
:10404000229B1B0700D4FBE6202333550134F7E6FF
:10405000DB0700D496E69EE7229B55469B0711D1CD
:10406000219B032B0ED9219B54469C465E46033D63
:10407000654422004346013439002020B047AC4259
:10408000F7D1B346B9465F461C4EEC1C2A00B07807
:10409000434649460135B847013EAC42F6D1229B22
:1040A000BB464F469B0700D4E1E65346219AE31AEC
:1040B0009A4200D8DBE65E461500220043463900EE
:1040C0002020B04753460134E31AAB42F5D3CEE685
:1040D000219BA34200D9A6E6B2E6219B002B00D18A
:1040E00079E70B9B002B97D0219B013B21939C42AE
:1040F00000D298E6202C00D073E7A1E60826021033
:10410000F0B5DE4657464E464546E0B599B0814685
:104110008B4692469846229A239B10001900FFF77F
:10412000D6FA002800D0CAE0229823990122824BB7
:104130005242FFF7C7FA002800D0C0E02298239926
:1041400001227E4B5242FFF7A7FA002800D0B6E0CA
:104150002298239900220023FFF79EFA002800D01E
:10416000C9E1229B239C089309940898099980230C
:10417000269ADB001A400D928022269C12011440E0
:1041800022000B94269C07000E001C4200D0ADE0DC
:104190000B00034300D0D5E0002A00D00AE2220041
:1041A00006332493022313400C930223134200D0BE
:1041B00002E2259B042B00D20FE2043B0B93002369
:1041C00004250A930022229823990023FFF764FA1A
:1041D000002800D003E25A4B269A134004930B9B0D
:1041E0000393249B0293089B099C009301945946D6
:1041F000434652464846FFF72FFD02002020269BEB
:104200001F27034059424B415B421840531C0893FF
:10421000594643464530C8470A9AD317D4185C40DC
:10422000D30F0A936B1E0B9308AB9C460025674483
:1042300001E0202D0FD020000A21FEF78FFF01356D
:104240007E193031317020000A21FEF787FF2600E9
:104250000400092EEDD8052306930B9B59460593C0
:10426000002304930A3303930A9B4846029310AB3E
:104270000093089A43460195FFF7F8FB0C9B002B2F
:104280002DD05346C41A259BA34228D94D465F46DC
:1042900081461E00534639001A1920204346013436
:1042A000A847A642F6D8534648462599C21A013275
:1042B0000023914200D386E1013018180FE0269BBD
:1042C0000493259B0393249B0293229B239C00939E
:1042D00001944346524659464846FFF7BDFC19B083
:1042E000F0BCBB46B246A946A046F0BD01432BD167
:1042F0000B9B2200002B00D154E700230A93249B40
:104300000A9A0024934200DD85E122982399002235
:104310000023FFF7C1F9002800D035E1269B084AA9
:1043200002941A408023DB0013430493259B0393DC
:10433000089B099CCBE7C046FFFFEF7FFFFFEFFF25
:10434000FFF7FFFF06232493B44B70009C46400DFB
:104350006044FFF7CDF9B24AB24BFFF75EF9B24ABB
:10436000B24BFFF73BF93603B14B360B3343040036
:104370000D00380019000022AE4BFFF72AF9AE4AB3
:10438000AE4BFFF74AF902000B0020002900FFF7AF
:1043900025F9FFF7C5F90A90FFF7AAF9A84AA94B32
:1043A00004000D00FFF739F90022A74BFFF716F9BB
:1043B000FFF7B6F9A54A0600A54B20002900FFF734
:1043C0002CF9040030000D000C96FFF791F9A14A7A
:1043D000A14BFFF722F902000B0020002900FFF794
:1043E000F8F802000B0006000F00FFF716F9320084
:1043F00004000D003B0030003900FFF7EFF8002209
:104400000E900F91954B20002900FFF7ECF8002249
:10441000934BFFF7E3F802000B0020002900FFF7A1
:10442000E2F800228F4BFFF7D9F802000B002000C2
:104430002900FFF7D8F80D008021040032003B006E
:104440000020C905FFF7C5F802000B002000290075
:10445000FFF7C4F802000B000E980F99FFF7C3F89E
:104460000022734BFFF7BAF87F4B0C9C9C466444C8
:1044700000222305FFF7D1F806000F0002000B0011
:1044800008980999FFF708F900280AD00A9B30001C
:10449000013B39000A930022714BFFF7A4F8060094
:1044A0000F000A9A330063323900C62A12D802225A
:1044B0002698042510400B9A0C90002A25D1259BA4
:1044C000042B05D9002800D0A1E0259B043B0B93C9
:1044D000042541E00222269810400B9A0C90002AF5
:1044E00012D1259B052B76D9002872D1259B052555
:1044F000053B0B9334E0802212069446229B0893DE
:10450000239B6344099330E605250B4300D1F6E66F
:1045100008980999554A564BFFF7CCF8002808D05F
:10452000089809990022534BFFF7B6F8002800D0ED
:10453000E5E6249B002B1CD00D9B002B19D0249B5F
:10454000013B2493259BAB4204D90C9B002B5AD0F2
:1045500002230C9300230B930A9B002B00D131E61E
:104560000898099932003B00FFF73DF8089009913F
:1045700028E6259BAB42EDD90C9B002B43D00023B2
:104580000B9302330C93E7E78020269B3A4A000600
:104590001A40802384460294089C099D2900DB0070
:1045A00013430493259B6144220003930B00009264
:1045B00001938EE60524A8E600230B930A930233A9
:1045C00004250C93FEE553468C46013B63441B1ABD
:1045D00072E602230C930525C2E70423EDE5802053
:1045E000089E099F000639008446269A224B6144A2
:1045F000134004930B9B32000393249B02930B0004
:1046000000920193F3E5259B5B1B0B93A4E7022328
:1046100004250C93A0E79C1A013C76E601FCFFFF01
:10462000FB799F501344D33FB3C8608B288AC63FA1
:104630000000F03F0000F83F61436F63A787D23F5F
:1046400071A379094F930A400000E03F1655B5BBAE
:10465000B16B0240EF39FAFE422EE63F00002C40DB
:104660000000244000001840FF0300002D431CEB15
:10467000E2361A3F80842E41FFF7FFFFF0B5DE4699
:1046800057464E464546E0B5A5B01E002E9B9246C5
:104690000C93CD4ACD4B80468B461A60002900D141
:1046A000EAE1002330789946002800D1ECE1C84BBC
:1046B0004C460B93C74B454657460E930AE0631C86
:1046C000984622003B005946A847444630780028C7
:1046D00000D187E001362528F1D108239A46043B12
:1046E0009946023B9846013B00229C460D94307847
:1046F000711C0300203BDBB2102B03D80B9C9B00EA
:10470000E3589F460300303B89460D9C092B3AD95C
:10471000002398462A2800D1C1E000239A462E287B
:104720004BD00300683BDBB2122B1ED80E999B00C6
:10473000CB589F4663460E001A43D8E743460E0007
:104740001A43D4E74B460E001A43D0E710230E005D
:104750001A43CCE753460E001A43C8E780235B0098
:104760001A43FF3B9C467078E1444E4667284FD879
:104770002428A4D90300253BDBB2422B9FD89649BD
:104780009B00CB589F46002394461E0000E0013159
:10479000B3009B195B001E180878303E0300303BC5
:1047A000092BF4D90123624689469C460023B04672
:1047B0009A460E00E1442E28B3D130218020494290
:1047C0008C46C000024370784B46844461460929F8
:1047D00000D86CE12A2800D17AE101239C464E469C
:1047E000E1449EE7A146A846BA46CA4503D801233C
:1047F0005B425344994653464A4659460020C047B7
:10480000200025B0F0BCBB46B246A946A046F0BD8C
:104810000300693BDBB20D930F2B00D94FE7012159
:1048200099408C466D49894661464B4619400F9127
:10483000634649460B4200D028E10D9B0A2B3AD033
:10484000072B00D03BE70C9B190008C98846002BBA
:1048500000D14BE121200243914614A98C461F222E
:104860000F2162448C4651460D950C91A2461500CD
:104870000F9902E020290CD0130064461C40200050
:104880003730092C00D80738013168541A090F2B2A
:10489000F0D80C9B54460D9D9A460F9133E10C9B2A
:1048A00002CB8846002947DB0C9301239C46707895
:1048B0004E46E14431E70C9B02CB14935346002B48
:1048C00000D138E19C4608780B000C908C440028FD
:1048D00001D100F098FC89466146944603E05A787D
:1048E0000133002A01D08B42F9D1494662465B1A56
:1048F0000C900F93530500D520E1022318001040BF
:104900000D90134200D1CBE30D930B1BB1469A4699
:104910005E460C9822003B003100A8475346013404
:10492000185D0028F6D1B3464E460D9B002B00D0F3
:10493000C7E1149B0C93C9E60C9301239C462838CD
:1049400049420243884670784E46E144E5E6707875
:104950006C2800D17FE180235B001A43FF3B9C461B
:10496000E14402E780239B001A4301239C467078B0
:10497000E144FAE67078682800D173E180231A4395
:104980007F3B9C46E144F0E6672800D103E14728DD
:1049900000D15AE1452800D15AE10492072142464C
:1049A0000C9B0392073352468B43190002920CC9A9
:1049B0002800009201930C9122003B005946FFF71A
:1049C0009FFB040082E6C0467D4600103441002073
:1049D000005B0210445B0210905B021041900000EB
:1049E000462800D1DBE00492072142460C9B03924B
:1049F000073352468B43190002920CC928000092DB
:104A000001930C9122003B005946FFF725F9040061
:104A10005CE6631C984622003B0059462520A847C7
:104A2000444653E60C9B04330D93631C994692074E
:104A300000D422E10C9B2200187859463B00A8477D
:104A400043464444012B00D885E23300B8462E008B
:104A50005F4625004C469946220043460134390002
:104A60002020B047AC42F7D12C00BB46350047466A
:104A70004E460D9B0C9329E6DB4B3078984600237D
:104A80009946002800D012E60024AEE66F2800D137
:104A900088E000D80BE31023782800D1CFE09A43B8
:104AA0000A239C4600230F930A330D9380E0564659
:104AB000B1008919490001330E181878303E010001
:104AC00030390929F4D9B2461E000133994628E647
:104AD0000C9B023602CB8A46C9435046C917084090
:104AE00082460C933078731C99461AE61023100006
:104AF000984311331843814680201300C0000340BF
:104B0000024200D1A9E64B4606930823059353467B
:104B1000049310230393002302930F9B220001931D
:104B20001CAB009359463B002800FEF79FFF43460D
:104B300004000C93CAE501235B42C3E60F9B534577
:104B400001D953460F930223180010400D901342D1
:104B500000D1B7E10D93D1460B1B9A463300A14417
:104B60002E0022004D460C98B9465F469B4608E051
:104B70004B463900541CB0475346185D002877D087
:104B800022009542F4D15B46BB464F46A94635000C
:104B90004C461E00C9E680231B011A43FDE6202374
:104BA0001A4320E708239C4600230F9308330D93F4
:104BB00080231100DB0019401A4200D116E10D23B9
:104BC0009A431000802302009B001A40149218425E
:104BD00000D0C2E1802302005B001A4091460C9A8B
:104BE00004320F92184200D0B7E2430600D59FE18D
:104BF000030600D419E30C9B1B880993002B00D0FB
:104C0000FCE110339843002900D1F7E100239946D5
:104C100043460593534604930D9B0690039300234C
:104C2000D2E0582808D0622867D102239C4600238E
:104C30000F9302330D93BBE720231A43103B9C468E
:104C400000230F9310330D93B2E780231B011A4307
:104C500020231A43A1E6C0239B001A43F31C994664
:104C6000B07882E5C0231A43F31C9946B0787CE5FE
:104C700035005E46BB464F4657E64346012B00D8FB
:104C800063E1631E43449A463300B9462E005F46F3
:104C900055469B46A24622004B460134390020204F
:104CA000B047AC42F7D135005E46BB464F46A14601
:104CB00054460C9B4A46187859463B004444A84742
:104CC000D7E6A1460F9B984500D832E64444E41A43
:104CD0003300B8462E005F4625004C469946220018
:104CE0004346013439002020B047AC42F7D12C00B4
:104CF000BB46350047464E461BE680231000DB00CE
:104D000018401A4200D10FE1112118008A430D9278
:104D10000D9A802311009B0019408C461A4269D1DC
:104D2000802311005B00194089460C9904310F91D2
:104D30001A4200D0CAE113005B0600D5F0E0130070
:104D40001B0600D459E20C9B00229B5ED9175A180F
:104D50004A4092B2D90F0C91002B00D1F9E110001A
:104D600014AA944642461F23149252466344A8460E
:104D700016944D460400B946B2461F00159201E054
:104D8000202D0FD020000A21FEF7E8F901357E1909
:104D90003031317020000A21FEF7E0F926000400CE
:104DA000092EEDD8149B4F46A94645469846159BBB
:104DB00056469A46169C0D9B0693434605935346CA
:104DC00004930A2303930C9B02934B4601931CAB61
:104DD0002200009359463B002800FEF747FE0F9B38
:104DE00004000C9372E4C046BD3900100C239A43B2
:104DF0001000E7E607220C9B0733934301329446E9
:104E00009C4462460C920CCBD90F0F9111001943B0
:104E100000D191E0D917139112915140109113993B
:104E20005940119110981199129A139B801A994127
:104E30001090119114AA0023944642469946149268
:104E400052461F336344A846B24616944E46109C01
:104E5000119DB94615921F0001E0202E10D02000B0
:104E600029000A220023FEF7B7F9013630322B0061
:104E7000BA550D0022000400002BEED1092AECD80F
:104E8000149B1094119545469846159B4F46B14684
:104E900056469A46169C0D9B0693434605935346E9
:104EA00004930A2303930F9B02934B4601931CAB7D
:104EB0002200009359463B002800FEF7D7FD04006E
:104EC000FFF704FC0F9B984500D8C1E18023DB006D
:104ED0000D9343460F9A1B199B1A994633002E00D7
:104EE0004D46B9465F469B460C9122004B46013425
:104EF00039002020B047AC42F7D143460C9901332A
:104F00000F930B7835000C935E46BB464F46002B43
:104F100000D10EE50D9B002B00D1F6E4002319E62D
:104F20000C9B1B781A0015E710239A430D92EFE6AD
:104F30000C9B1B78099361E6002399460028AAD1AF
:104F4000002200231092119374E70C9B2200187822
:104F500059463B00A8474C468BE50C9AFA3BFF3B71
:104F600007329A430133994691444B460C93136898
:104F7000526815921A4306D11032904300220992CA
:104F8000002900D081E06122810600D54122D2B201
:104F90000A9214AA91460A9A00210A3A14924246A9
:104FA0001792524618925A460991B3461F311E0075
:104FB0000F9B4944BA4619941A95002467469846AF
:104FC0008946159D16901B920AE03032D2B24B46AC
:104FD00001341A55A8454AD0202C4AD006000D00AD
:104FE0003A00002330002900FEF7F6F8D2B2092A71
:104FF000EBD9149B9C466244D2B2E8E76123820657
:1050000000D54123DBB20A3B0C93434614A91F226F
:105010008C46159353466244A046B2464C461797B9
:10502000A9461700099D0D9E1490169308E0303391
:10503000DBB201343B55B5420ED3202C0CD0050019
:1050400031002800FEF78AF8CBB20929EFD90C9A73
:1050500094466344DBB2ECE7159B4D46A1464446BB
:105060009846169B564614989A46179FD0E5B74225
:10507000B2D9179B57469846189B5E469A461B9B8B
:1050800009949B461698199C1A9D434605935346CE
:1050900004930D9B0690039300230293099B05E75D
:1050A0000F9B984500D914E701330F932DE410238B
:1050B000110099430D91692800D0BAE080231000B7
:1050C000DB0018401A4200D122E61DE60C9B1B684B
:1050D000DA0F1100002B00D18CE0DA17981850403D
:1050E00014AA914642461F23149252464B44A046AE
:1050F000A946169704006546B2461F000C9115920A
:1051000001E0202D0FD020000A21FEF727F80135FD
:105110007E193031317020000A21FEF71FF8260079
:105120000400092EEDD8149B444698460C9BAC46CF
:105130001900159B56464D469A46169F0D9B0291A7
:10514000069343460593534604930A230393634609
:105150003CE6002800D02EE602E60C9B1B68994630
:10516000002B03D110339843002938D161238206E4
:1051700000D54123DBB20A3B0C93434616935346BA
:1051800014A91F228C4617932B006244A0464D465B
:10519000B246189799461700149C0D9E159008E08A
:1051A0003033DBB201343B55B5420ED3202C0CD04A
:1051B000050031002800FDF7D1FFCBB20929EFD956
:1051C0000C9A94466344DBB2ECE7169B1494444675
:1051D0009846179B56464D469A461598189F434643
:1051E0000593534604930D9B06900393002302936B
:1051F000149BEBE50028A1D172E70C9B1B68D91723
:105200005A184A40A6E580231000DB0018409C464F
:105210000F901A420FD00220030013400F93104248
:1052200019D00023A1460F934CE50C9B1B680993F2
:10523000E4E40A0034E40223180010400D90134205
:1052400000D03EE54346002B00D042E6FFF771FB5D
:1052500001330F937FE463460D93F3E70CB430B54D
:1052600085B008AC08CC064D0A0000940100280067
:105270000394FFF703FA05B030BC08BC02B018472E
:10528000B539001010B50C0084B00394012402A9B4
:1052900002900093034813006242FFF7EFF904B055
:1052A00010BDC046493C001010B5094A03001468FF
:1052B00084B0002C08D0012200910648524203A974
:1052C000A047012004B010BD00F0B6F90020F9E7B6
:1052D00034410020393C001000BEFDE7094A0300BC
:1052E0001068002805D00849C3188B4207D81360FE
:1052F000704706480449C31810608B42F7D9012053
:105300004042F5E7F43C002000000420A0F2022017
:1053100010B5FFF7E1FFC04670B5FDF7CDFD074DB5
:10532000074EB54209D20024013E761BB60808CDCF
:10533000984723000134B342F9D170BD24230210F1
:1053400030230210030010B5080011001B689847B5
:1053500010BDC046F0B5C64600B5437D07000C0041
:105360001600002B46D0002A17DD0B780A2B24D01C
:1053700000239846012E13D001252900635C0135D6
:105380000A2B26D0B542F8D1464509DCA419013CC8
:1053900023780D3B5A4253413B7580BCB846F0BD63
:1053A0004346E018A419F11A013C3B68984723785A
:1053B0000D3B5A4253413B75EFE7037D002BD7D19C
:1053C00002210F483B689847012EDFD00123984601
:1053D000D2E7631E5B5C0D2BD4D0884504DA4346CC
:1053E000C91AE0183B689847022105483B68A8465F
:1053F0009847C7E70368110020009847CDE7C046EB
:10540000F05C0210F0B5C6460B6806000C0000B553
:10541000802B06D05A1C2260E418267180BCB84646
:10542000F0BD0F4B1D68002D16D00B1D98460D4F7B
:1054300002E02D69002D0FD02B68002BF9D03B68BE
:10544000002B01D0AB42F4D1280041462268FFF77F
:1054500081FF2D69002DEFD101220023DBE7C0463B
:10546000E835002004360020F0B54546DE464E46BD
:105470005746E0B583B091461C0080460D00FDF70D
:1054800021FA0023304A12184B41002B02DA012284
:105490002E4B52422E4908008A461CF0EDFE0700B2
:1054A0006B1C03D140461CF0EBFC0500002C27D000
:1054B000284E294B1C68002C18D04B46002B21D1BC
:1054C000264B994602E02469002C0FD02368002B5C
:1054D000F9D04B461B68002B01D09C42F3D1200031
:1054E0002A004146B0472469002CEFD1002F26D175
:1054F000280003B0F0BCBB46B246A946A046F0BDAA
:10550000174ED6E7154B99460A239B4602E02469BD
:10551000002CEBD02368002BF9D04B461B68002BE6
:1055200001D0A342F3D12A0041462000B0476B4688
:105530005A462000DA71D91D0122B047E7E75046EC
:105540001CF032FED4E7C04640420F00FFFFFF7F51
:10555000781A002055530010E8350020043600204A
:10556000455300100A4A1368002B05D10CE01A00BD
:105570001B691032002B07D08342F8D1002902D1D9
:1055800018691060196170470029FCD01060FAE7B3
:10559000E835002010B500F0ADF900F0E9FB01207E
:1055A00010BDC046F0B5CE46474680B583B06B46C9
:1055B0000600DD1D2870FDF785F90023194A121831
:1055C0004B41002B02DA0122174B524217490800C7
:1055D00088461CF051FE164B81461C68002C14D0E6
:1055E000144F02E02469002C0FD02368002BF9D05F
:1055F0003B68002B01D09C42F4D1200001222900FD
:10560000FFF7A8FE2469002CEFD14B46002B05D1F3
:10561000300003B0C0BCB946B046F0BD40461CF0F7
:10562000C3FDF5E740420F00FFFFFF7F781A00201F
:10563000E83500200436002070B504001CF020FC82
:1056400001230100050001222000FFF70DFF084B98
:105650001C68002C06D06368002B05D0984724698D
:10566000002CF8D1280070BD2469002CF3D1F9E793
:10567000E8350020F0B5CE46474680B5A3B004001B
:105680000D00FDF71FF90023274A12184B41002B8C
:1056900002DA0122254B5242254E30001CF0ECFD6F
:1056A00000232200019307002B00224801A9FFF7E5
:1056B000E9FD214B804699461C68019B002B1AD0BE
:1056C000002C2FD01D4D02E02469002C0FD0236840
:1056D000002BF9D02B68002B01D0A342F4D120007D
:1056E000019A02A9FFF736FE2469002CEFD14B4640
:1056F0001C6800230193002C06D06368002B0BD09C
:1057000098472469002CF8D1002F07D1404623B0D8
:10571000C0BCB946B046F0BD2469ECE730001CF0CF
:1057200043FDF3E70194EFE740420F00FFFFFF7FE7
:10573000781A002005540010E835002004360020B7
:105740000FB400B583B004A901C90191FFF792FF1E
:1057500003B008BC04B01847F0B5002915DD0E4BA6
:105760000D271A680D4B0E4CD3185D426B4145183E
:1057700020215B001E5F0478A64207D0936919427E
:10578000FCD101301460A842F5D1F0BD93691942F3
:10579000FCD11760F2E7C046B8F000200080FCBFE3
:1057A000B4F00020204B70B504000D1E1E682ADDE9
:1057B000002010211D4B013C1A689369194214D135
:1057C000013093691942FCD1136823548542F4D106
:1057D000002E08D050239363516B183B0B401449A3
:1057E0008C4662441360280070BD002E08D0502300
:1057F0009363516B183B0B400D498C466244136018
:105800000028F1D10CE0002E0AD05022074B1B6873
:105810009A63596B183A0A4005498C4663441A60EA
:1058200003204042E0E7C04618270020B8F00020DF
:1058300034100000064B10B51B68002B06D0002169
:10584000044A12689163044A1068984710BDC04624
:1058500018270020B8F00020202700200822034B42
:1058600019688B691A42FCD17047C046B8F0002015
:10587000F8B51A4F1A4B3A680500D31858424341FD
:10588000184E14331C003368002D02D0002B0FD0AB
:10589000F8BD002BFCD0002120009563FCF72AF80E
:1058A00020001149FCF782F9104B35601D60EFE7CD
:1058B0000E4B200019600C493560FCF753F80121AC
:1058C0002000FCF717F850223B689A63596B183A8E
:1058D0000A4007498C4663441A60D9E7B8F00020B3
:1058E0000080FCBF1827002035580010202700201A
:1058F000341000000D4B10B51B780D4B0D4C1B7870
:105900000D4B02211B780D4B00202360FBF720FF7D
:1059100002210120FBF71CFFE12120684902FDF76D
:1059200033FA01210648FFF71DFE10BD04170610CB
:1059300000170610B8F00020FC16061000400340C7
:10594000601400207047C0460022014B1A70704757
:1059500090F202204B790020FF2B0BD18B79002B8A
:1059600008D1CB79012B05D1082A03D9024B8A78BB
:1059700009301A707047C04690F20220012070472B
:1059800010B5012913D112495379107909781B02F6
:1059900003430020994200D010BD5378012B08D05A
:1059A000022BF9D1642200210020FDF72BF8012001
:1059B000F2E7D37891781B021943480ADB0501D43A
:1059C000012040427F238A05D20F1940FDF7A2F83B
:1059D00090F2022000487047D85D021070B50500B3
:1059E00014000120012909D153780020012B05D191
:1059F000637912791B021343072B00D070BD21007D
:105A00002800024A9F3301F05DFAF7E7305D02108B
:105A10000123037000487047105D02104B780A782C
:105A20001B0213438A7810B512041A43CB781B0665
:105A300013439622D200934200D010BD00220120D1
:105A400011004042FDF766F8024B1860024B1960E6
:105A50007047C0461C2700202427002010B5024BA9
:105A60001878FBF765FF10BD91F20220154B70B559
:105A70001A68002A22D0EFF3108172B6106800284D
:105A8000FCD0BFF35F8F00200F4A596010701B6875
:105A9000BFF35F8F186081F31088002400250B4E40
:105AA0003078FBF739FF002804D1002400252900B5
:105AB000200070BD3078FBF73BFFF8E7FA240025A3
:105AC000A400ECE714DB002093F2022091F2022004
:105AD00070B5040000200E0001F012FB002834D045
